:0400000508000000EF
:020000040800F2
:1000000070020020650100084D0A0008410A00083E
:100010004B0A00085B0300086D0D0008000000009B
:10002000000000000000000000000000E90C0008D3
:100030001F09000800000000030B0008EB0C00087B
:100040006F0D0008010B0008ED0C0008E30C000820
:100050002F0900086D0C0008210900082509000877
:1000600027090008290900082B09000811090008C0
:1000700013090008150900081709000819090008E4
:100080001B0900081D09000859030008050D000898
:10009000090D000845070008BD0700082D090008E4
:1000A000EF0C0008F50C0008F30C0008F10C000838
:1000B000F70C0008F90C0008FB0C0008450A0008C2
:1000C000430A0008490A0008470A0008E50C00082E
:1000D000E70C0008FD0C0008FF0C0008010D0008EB
:1000E00023090008E10C0008030D000800F002F8E5
:1000F00000F05BF80AA090E8000C82448344AAF167
:100100000107DA4501D100F050F8AFF2090EBAE864
:100110000F0013F0010F18BFFB1A43F0010318473B
:10012000AC0C0000CC0C0000103A24BF78C878C199
:10013000FAD8520724BF30C830C144BF04680C60ED
:10014000704700000023002400250026103A28BF35
:1001500078C1FBD8520728BF30C148BF0B60704739
:1001600000F0F2B80348004703480449024A044B30
:1001700070470000ED0000087000002070020020B1
:10018000700000207047744600F02EF8A6460DB5AA
:1001900000F050F80400BDE80D4011007047020067
:1001A00010B50020AFF3008010BDAFF30080FFF763
:1001B000EAFF03B400F0B8F803BC00F055F80FB440
:1001C00000F0B7F80FBC00F0D3FD00F047F801B520
:1001D000AFF3008000F09FF8BDE8014000F002F8A6
:1001E0006FF0000000F02CF8754600F033F8AE46D2
:1001F00005006946534620F00700854618B020B533
:10020000FFF7B2FFBDE820404FF000064FF00007B7
:100210004FF000084FF0000B21F00701AC46ACE8AE
:10022000C009ACE8C009ACE8C009ACE8C0098D461B
:100230007047000001487047704700002000002010
:1002400003494FF01800ABBE70470000EF000000FC
:100250002600020000487047100000200446AFF35B
:1002600000802046FFF7B3FF2DE9FE4304460D460C
:1002700000F0A4FD0020CDE90045AFF3008002901E
:100280006846FFF76DFF04460D46DDE9000117469D
:100290001E46AFF30080AFF30080AFF30080002173
:1002A0000846AFF30080804600F048F80021814600
:1002B000C0F800800846AFF30080411CC9F8041064
:1002C00000210846AFF300800021C9F80800084665
:1002D000AFF300800021C9F80C000846AFF300809E
:1002E000C9F81000AFF30080AFF30080AFF30080D7
:1002F000AFF30080AFF30080AFF30080AFF3008076
:10030000AFF30080AFF3008003B0204629463A46A1
:100310003346BDE8F08310B50020AFF30080AFF3A3
:100320000080AFF3008010BD6FF000006FF002019D
:10033000704710B5AFF3008010BD7047014870479B
:1003400070470000300000207047000001487047EF
:1003500070470000140000207047704710B501215D
:100360004C06204600F0DAFB2046BDE81040002194
:1003700000F0D4BB044A202110B9C2F80C14704715
:10038000C2F81014704700000060004030B50378D8
:100390000121324A9940136889B243F00103136086
:1003A000D3698B43D3618378A2F5C062B3B9D2F825
:1003B0000C368B43C2F80C36C3884589047843EA6F
:1003C000054302EBC404C4F84036838804890578E9
:1003D00043EA044302EBC504C4F844368378012B96
:1003E00014D1D2F80C360B43C2F80C3643680478AB
:1003F0004FEA334302EBC404C4F840368368047800
:100400004FEA334302EBC404C4F844364378002B6C
:10041000D2F8043601D18B4300E00B43C2F8043616
:10042000838923B9D2F814368B43C2F814368389F2
:10043000012B04D1D2F814360B43C2F81436807B5A
:10044000012804D1D2F81C060843C2F81C06D2F8D1
:10045000000620F00100C2F8000630BD0066004032
:10046000054A0029D2F8141401D0014300E0814369
:10047000C2F81414704700000060004010B500225C
:1004800039490123C1F80034D1F80434DB0768D0BE
:100490000278012AD1F8002402D142F0800201E062
:1004A00022F08002C1F800244278012AD1F8002409
:1004B00002D142F0400201E022F04002C1F80024E3
:1004C0008278012AD1F8002402D142F0200201E012
:1004D00022F02002C1F80024C278012AD1F80024B9
:1004E00002D142F0100201E022F01002C1F8002413
:1004F0000279012AD1F8002402D142F0080201E079
:1005000022F00802C1F800244279012AD1F800241F
:1005100002D142F0040201E022F00402C1F80024FA
:100520008379C4799B07027A43EA046444EA02446B
:10053000437A428944EA0350521E1043C1F81C0416
:10054000D1F80034012223F001039002C1F80034F5
:10055000401E0004000CFBD1D1F80404C00700D0F9
:100560000022104610BD00000060004030B58DB084
:10057000FFF7F4FE0AA800F022F9002407208DF806
:1005800030008DF82C40012506208DF82D408DF887
:1005900031008DF82E500A948DF82F40ADF832506E
:1005A0000AA8FFF76BFF8DF818508DF81940ADF8C9
:1005B0001C40ADF82040ADF824408DF81A50ADF83D
:1005C0001E40ADF822408DF8265006A8FFF7DEFE4B
:1005D00001210220FFF744FF1220019034200290F5
:1005E00004208DF80C008DF80D4002208DF80E00CF
:1005F000DE208DF80F00CA208DF8100001A800F051
:10060000EFF8074CFF2060606068FF28FCD00021F5
:100610000220FFF725FF60680DB0C0B230BD0000BA
:10062000000000200100074A4FF0000002D1D2F87C
:100630000C0403E0012903D1D2F8100400F00300F8
:10064000704700000060004070B592B00024FFF7D2
:1006500085FE0FA800F0B3F8072000258DF84400B0
:1006600006208DF840508DF845008DF84150012648
:1006700005208DF84260ADF846000F958DF8435087
:100680000FA8FFF7FBFE8DF82C508DF82D50ADF81C
:100690003050ADF83450ADF838508DF82E60ADF8CC
:1006A0003250ADF836508DF83A600BA8FFF76EFE69
:1006B000112006908DF821508DF8205002208DF8E1
:1006C0002200CA208DF82300FE208DF8240006A801
:1006D00000F086F8064601E0641CA4B2304600F043
:1006E000D3F8012801D0FF2CF6D1002401E0641CCE
:1006F000A4B20020FFF796FF08B9FF2CF7D18DF8C0
:100700000C508DF80E5001958DF80F508DF810504B
:1007100001A9002000F018F8019811280DD19DF8CA
:100720000C0050B99DF80E00022806D1BDF80F004C
:1007300040BAA0F54A41FE3902D0002012B070BD87
:100740000120FBE7704700001B4A02EB0012D2F8C1
:10075000B03503F004030B72DBB2002BD2F8B035D6
:1007600002D15B0D0B6001E0DB084B6002F5B66265
:10077000136803F002034B72536803F00F038B728C
:1007800053681B0ACB749368CB7293681B0A0B7374
:1007900093681B0C4B7393681B0E8B73D368CB73DE
:1007A000D3681B0A0B74D3681B0C4B74D268120EEF
:1007B0008A74FFF7DFBD0000006000407047002131
:1007C000017041708170C170017141718171C1719D
:1007D0000321017202214172012141817047000011
:1007E00070B528490022D1F808345B010AD4D1F849
:1007F0000824120101D5012204E0D1F80824D20016
:1008000015D5022201EB0211D1F8803503F0010366
:10081000C1F88035037A63B903685B050360D1F8DA
:100820008045457A1C432C43C1F880450CE00422E6
:1008300026E04468E4004460D1F88055467A2543B8
:1008400033431D43C1F88055837A01F5B06103F04D
:100850000F0383724B6823F00F034B604B68847A5D
:1008600023434B60C37AC46843EA04238B60C37B91
:10087000006943EA0020C860086840F00100086091
:10088000104670BD00600040204A0021D0B1012810
:1008900028D002280FD102F581621068136800F495
:1008A000803041EA9030116803F4003240EA12408F
:1008B000C1F30071014329B3052925D0072923D1AC
:1008C0000120704702F581621068136800F0010092
:1008D00041EA8000116803F002020243C1F3806123
:1008E0001143E8E702F581621068136800F4807034
:1008F00041EA9010116803F4007240EA1220C1F33B
:10090000C061D7E7022070470020704700600040B8
:10091000704770477047704770477047704770471F
:10092000704770477047704770477047704770470F
:1009300004490A6822F010020A600A6802430A6049
:10094000704700000020024038B54FF47070ADF8D9
:10095000000010208DF8030003208DF80200694686
:100960000C4800F01BF84FF40060ADF80000482080
:10097000094C8DF803006946204600F00FF8A014DA
:10098000ADF8000018208DF803006946204600F0FD
:1009900005F838BD0010014000080140F0B5CB78E3
:1009A0000022DC0603F00F0301D58C7823430C886A
:1009B0000F2714F0FF0F4FF0010C1CD0D0F800509F
:1009C0000E880CFA02F42640A64210D1960007FACF
:1009D00006FE25EA0E0E03FA06F5CE7845EA0E0568
:1009E000282E00D14461CE78482E00D10461521CDB
:1009F000082AE5D305600A88FF2A1ED94568002227
:100A000002F108060CFA06F40E882640A64210D120
:100A1000960007FA06FE25EA0E0E03FA06F5CE78D2
:100A200045EA0E05282E00D14461CE78482E00D12B
:100A30000461521C082AE3D34560F0BD0161704790
:100A4000704770477047704770477047704708B5E8
:100A500000214FF0006000F049F814208DF80000EC
:100A600000208DF801008DF8020001208DF80300B0
:100A7000684600F001F808BDF0B50F23C278017890
:100A80004FF0E024012742B3D4F80C2D467802F44D
:100A9000E062C2F5E062120AC2F10405D340827836
:100AA000AE401A40324315018A07D20E954021F01C
:100AB00003010B19D3F80064FF2191408E430D40D0
:100AC0002E43C3F800640078410900F01F0004EBD6
:100AD00081018740C1F80071F0BD01F01F0087401F
:100AE000480904EB8000C0F88071F0BD024A114053
:100AF000014302480160704780FFFF1F08ED00E0DE
:100B000070477047044A0029D16901D0014300E0D1
:100B10008143D1617047000000100240044A00295F
:100B2000116901D0014300E0814311617047000069
:100B300000100240044A0029916901D0014300E0FD
:100B400081439161704700000010024010B500F031
:100B50002BF84FF4803000F06FF800F0A7F811493F
:100B60004870C0B2012813D1002000F05BF80020CB
:100B700000F088F84FF4806000F07AF81020FFF75A
:100B8000D7FE012000F088F800F044F80428FBD1DB
:100B900001211420FFF7CEFF0121BDE810404806D7
:100BA000FFF7B0BF000000200B48016841F00101D1
:100BB00001604168094A114041600168084A1140DA
:100BC0000160016821F4802101604268002122F463
:100BD000FE02426081607047001002400000FFF892
:100BE000FFFFF6FE034600205909094A012901D1F9
:100BF000116804E0022901D1116A00E0516A03F092
:100C00001F02012393400B4200D0012070470000D7
:100C1000001002400248406800F00C0070470000DD
:100C200000100240034A516821F0F0010143516075
:100C300070470000001002400B490A6822F480321D
:100C40000A600A68B0F5803F22F480220A6007D06B
:100C5000B0F5802F03D1086840F4A02008607047E9
:100C6000086840F48030F9E7001002407047000047
:100C7000034A516821F4E06101435160704700006C
:100C800000100240034A516821F4605141EAC0005B
:100C90005060704700100240034A516821F0030180
:100CA00001435160704700000010024030B50B4C0A
:100CB00040F2FF153120FFF795FF20706068401C5F
:100CC0006060207810B96068A842F3D13120FFF746
:100CD00089FF002800D0012030BD0000080000205E
:100CE000704770477047704770477047704770474C
:100CF000704770477047704770477047704770473C
:100D0000704770477047000010B586B000248DF81A
:100D10000C408DF80E40019402948DF817408DF828
:100D20000F408DF8104001A92046FFF70DFD0198F6
:100D30000D49122815D10298342812D19DF80C00C3
:100D400004280ED19DF80E0002280AD1BDF80F002C
:100D500040BAA0F55E42CA3A03D10120086006B04D
:100D600010BD0C60FBE700000400002070477047D6
:100D700070B5FFF7EBFEFFF76AFEFFF7E5FDFFF743
:100D800063FC0C4C207020780B4D08B9A91500E0CD
:100D900040212846FFF752FEFFF7E8FB207020783D
:100DA00010B94FF4007100E080212846FFF746FE9D
:100DB000FEE70000000000200010014010B5FFF722
:100DC000C5FA4FF00001016010BD0000EC0D0008F5
:100DD000000000201000000028010008FC0D0008A1
:100DE0001000002060020000440100080000000024
:0C0DF000000000000000000000000000F7
:00000001FF
