:0400000508000000EF
:020000040800F2
:1000000078020020650100082D0300082F03000876
:100010003103000833030008350300080000000026
:10002000000000000000000000000000390300088C
:1000300037030008000000003B0300083D030008F0
:1000400047030008490300084B0300084D0300085C
:100050004F0300085103000853030008550300082C
:1000600057030008590300085B0300085D030008FC
:100070005F030008610300086303000865030008CC
:1000800067030008690300086B0300086D0300089C
:100090006F0300087103000873030008750300086C
:1000A000B7030008B9030008BB030008BD0300083C
:1000B000BF030008C1030008C3030008C50300080C
:1000C000C7030008C9030008CB030008CD030008DC
:1000D000CF030008D1030008D3030008D5030008AC
:1000E000D7030008D9030008DB03000800F002F87A
:1000F00000F091F90AA090E8000C82448344AAF130
:100100000107DA4501D100F086F9AFF2090EBAE82D
:100110000F0013F0010F18BFFB1A43F0010318473B
:100120001009000030090000103A24BF78C878C1D7
:10013000FAD8520724BF30C830C144BF04680C60ED
:10014000704700000023002400250026103A28BF35
:1001500078C1FBD8520728BF30C148BF0B60704739
:1001600000F028BA0348004703480449024A044BF8
:1001700070470000ED0000087800002078020020A1
:100180007800002010B50446012000F027FC6148EB
:10019000046001680029FCD1881E00F01FFCBDE846
:1001A0001040002000F01ABC08B54FF47070ADF894
:1001B000000003208DF8020010208DF8030069462E
:1001C000554800F085FA4FF40070ADF800000420A7
:1001D0008DF803006946514800F07AFA08BD08B569
:1001E00000214FF0006000F007FB4FF4C06000F00A
:1001F000F9FA17208DF8000000208DF801008DF825
:10020000020001208DF80300684600F0B1FA08BD35
:1002100010B5042000F0D6FB00220321404800F076
:10022000F5FA404800F0F8FBBDE81040012000F06E
:10023000E7BB10B500F01CFB4FF48034204600F003
:100240005FFB00F0A5FB38490870C0B2012822D13D
:10025000002000F04BFB002000F076FBA01100F026
:1002600069FB022000F014FA102000F005FA4FF4A8
:10027000E011204600F078FB012000F06FFB3920F0
:1002800000F014FB0028FAD0022000F077FB00F009
:1002900025FB0828FBD10121BDE81040192000F002
:1002A000DBBA2DE9F047FFF7C4FFFFF7B1FFFFF717
:1002B00096FFFFF779FF0921012000F0F5F91A48B0
:1002C0004FF40071001D0160002101710C2141718A
:1002D0000121817100F08AF90F4C6FF46C774FF4B3
:1002E00048766FF45C756FF43C786FF4F879E760EA
:1002F0003046FFF747FFE5603046FFF743FFC4F89D
:100300000C803046FFF73EFFC4F80C903046FFF7F4
:1003100039FFECE70C00002000100140000C014008
:100320009AC3020040190100000000207047704786
:100330007047704770477047704770472749086893
:10034000401E08607047704770477047704770479D
:1003500070477047704770477047704770477047E5
:1003600070477047704770477047704770477047D5
:100370007047704770B54FF40075284600F028F9B3
:10038000002817D0164B174900206FF47072CA600E
:10039000401C9842FBDD0020134B421ECA60401CEB
:1003A0009842FBDD114E0024284600F00BF9641C36
:1003B000B442F9DD70BD70477047704770477047B1
:1003C0007047704770477047704770477047704775
:1003D0007047704770477047704770470C000020A7
:1003E00000127A000010014080841E0040420F007D
:1003F0007047744600F02EF8A6460DB500F050F890
:100400000400BDE80D4011007047020010B5002047
:10041000AFF3008010BDAFF30080FFF7EAFF03B435
:1004200000F0B8F803BC00F055F80FB400F0B7F8CE
:100430000FBCFFF736FF00F047F801B5AFF30080BF
:1004400000F09FF8BDE8014000F002F86FF00000F6
:1004500000F02CF8754600F033F8AE46050069460A
:10046000534620F00700854618B020B5FFF77CFE04
:10047000BDE820404FF000064FF000074FF00008A5
:100480004FF0000B21F00701AC46ACE8C009ACE826
:10049000C009ACE8C009ACE8C0098D46704700004F
:1004A00001487047704700002800002003494FF0C2
:1004B0001800ABBE70470000EF00000026000200ED
:1004C00000487047180000200446AFF30080204623
:1004D000FFF7B3FF2DE9FE4304460D4600F0A0FAF6
:1004E0000020CDE90045AFF3008002906846FFF799
:1004F00037FE04460D46DDE9000117461E46AFF300
:100500000080AFF30080AFF3008000210846AFF316
:100510000080804600F048F800218146C0F8008045
:100520000846AFF30080411CC9F8041000210846BA
:10053000AFF300800021C9F808000846AFF300803F
:100540000021C9F80C000846AFF30080C9F810007C
:10055000AFF30080AFF30080AFF30080AFF3008013
:10056000AFF30080AFF30080AFF30080AFF3008003
:10057000AFF3008003B0204629463A463346BDE833
:10058000F08310B50020AFF30080AFF30080AFF32D
:10059000008010BD6FF000006FF00201704710B5D1
:1005A000AFF3008010BD70470148704770470000EE
:1005B0003800002070470000014870477047000075
:1005C0001C0000200149086070470000140401402D
:1005D000054B01461A6800205B690A400B4202D0B5
:1005E000002A00D0012070470004014010B5837933
:1005F00020490268A3B3D1F800349343C1F8003412
:10060000D1F8042403689A43C1F8042402790468E9
:100610000A44D2F800342343C2F80034D1F8082445
:1006200003689A43C1F80824D1F80C2403689A435C
:10063000C1F80C244279102A0AD101F581610A68B7
:1006400003681A430A604A68006802434A6010BDA2
:100650001144D1F8002400680243C1F8002410BD01
:10066000FFE700790844D0F800149143C0F8001463
:10067000F5E700000000014004490A6822F010027A
:100680000A600A6802430A607047000000200240C6
:1006900004490A6802F038020A600A6802430A60E4
:1006A000704700000020024010B58A0721F00304C3
:1006B0000649120F21440F238C6893409C438C60A1
:1006C0008B68904003438B6010BD00000000014028
:1006D000F0B5CB780022DC0603F00F0301D58C784F
:1006E00023430C880F2714F0FF0F4FF0010C1CD090
:1006F000D0F800500E880CFA02F42640A64210D121
:10070000960007FA06FE25EA0E0E03FA06F5CE78E5
:1007100045EA0E05282E00D14461CE78482E00D13E
:100720000461521C082AE5D305600A88FF2A1ED9F5
:100730004568002202F108060CFA06F40E882640ED
:10074000A64210D1960007FA06FE25EA0E0E03FA1D
:1007500006F5CE7845EA0E05282E00D14461CE7804
:10076000482E00D10461521C082AE3D34560F0BD35
:10077000F0B50F23C27801784FF0E024012742B38F
:10078000D4F80C2D467802F4E062C2F5E062120A59
:10079000C2F10405D3408278AE401A4032431501BD
:1007A0008A07D20E954021F003010B19D3F800649B
:1007B000FF2191408E430D402E43C3F80064007822
:1007C000410900F01F0004EB81018740C1F800716E
:1007D000F0BD01F01F008740480904EB8000C0F81D
:1007E0008071F0BD0249084302490860704700006B
:1007F0000000FA050CED00E0024A114001430248F6
:100800000160704780FFFF1F08ED00E070B54FF0FA
:10081000E026D6F80C3DFF2403F4E063C3F5E06363
:100820001B0ADC40C3F10405A94022400A43110120
:1008300000F0C0029209C0F30120C0008140FF23F4
:10084000834006EB820000F6185002689A4302606B
:1008500002680A43026070BD044A0029916901D010
:10086000014300E0814391617047000000100240A5
:100870000B48016841F0010101604168094A1140DB
:1008800041600168084A11400160016821F480213B
:1008900001604268002122F4FE02426081607047DC
:1008A000001002400000FFF8FFFFF6FE03460020A4
:1008B0005909094A012901D1116804E0022901D12D
:1008C000116A00E0516A03F01F02012393400B42BA
:1008D00000D001207047000000100240024840682C
:1008E00000F00C007047000000100240034A5168FD
:1008F00021F0F001014351607047000000100240F8
:100900000B490A6822F480320A600A68B0F5803F19
:1009100022F480220A6007D0B0F5802F03D1086846
:1009200040F4A02008607047086840F48030F9E780
:1009300000100240034A516821F4E0610143516014
:100940007047000000100240034A516821F46051D2
:1009500041EAC0005060704700100240014908663B
:100960007047000000004242034B5A68084322F4DB
:100970007C1210435860704700100240034A5168CF
:1009800021F0030101435160704700000010024054
:1009900030B50B4C40F2FF153120FFF787FF207078
:1009A0006068401C6060207810B96068A842F3D18C
:1009B0003120FFF77BFF002800D0012030BD000070
:1009C000100000204FF0E0210428086902D140F017
:1009D000040001E020F00400086170474FF0E021BE
:1009E000012803D1086940F0010004E0801C04D113
:1009F000086920F001000861704700208861704795
:100A00004FF0E0210028086902D040F0020001E028
:100A100020F00200086170474FF0E0214861704704
:100A200010B5FFF7C9FD4FF00001016010BD0000D7
:100A3000500A0008000000201800000028010008EB
:100A4000680A000818000020600200004401000845
:100A50000000000000000000000000000000000096
:080A600000000000000000008E
:00000001FF
