:0400000508000000EF
:020000040800F2
:10000000E803002065010008850100088701000859
:10001000890100088B0100088D0100080000000024
:100020000000000000000000000000009101000836
:100030008F010008000000009301000895010008EE
:1000400097010008990100089B0100089D01000824
:100050009F010008A1010008A3010008A5010008F4
:10006000A7010008A9010008AB010008AD010008C4
:10007000AF010008B1010008B3010008B501000894
:10008000B7010008DD010008DF010008E1010008F8
:10009000E3010008E5010008E7010008E9010008A4
:1000A000EB010008ED010008EF010008F101000874
:1000B000F3010008F5010008F7010008F901000844
:1000C000FB010008FD010008FF0100080102000813
:1000D00003020008050200080702000809020008E0
:1000E0000B0200080D0200080F02000800F002F8E1
:1000F00000F053FC0AA090E8000C82448344AAF16B
:100100000107DA4501D100F048FCAFF2090EBAE868
:100110000F0013F0010F18BFFB1A43F0010318473B
:10012000CC110000EC110000103A24BF78C878C14F
:10013000FAD8520724BF30C830C144BF04680C60ED
:10014000704700000023002400250026103A28BF35
:1001500078C1FBD8520728BF30C148BF0B60704739
:1001600000F078BD0348004703480449024A044BA5
:1001700070470000ED000008E8010020E8030020BF
:10018000E80100207047704770477047704770471C
:1001900070477047704770477047704770477047A7
:1001A0007047704770477047704770477047704797
:1001B00070477047704710B54FF4001000F0DAFD3B
:1001C00000280AD0124800F0D1FD12490880BDE88D
:1001D00010404FF4801000F045BD10BD70477047CF
:1001E0007047704770477047704770477047704757
:1001F0007047704770477047704770477047704747
:100200007047704770477047704770477047704736
:100210006C0002400200002010B507E003680C6883
:10022000A34201D0002010BD001D091D1300A2F142
:10023000010292B2F2D1012010BD30B589B0002484
:100240004FF40070ADF80800874DADF80440ADF8EC
:100250000640ADF80A4001A9284600F079FF4FF4A6
:10026000E1300390ADF814400C20ADF81040ADF82B
:100270001600ADF81240ADF8184003A9284600F06A
:1002800081FF0121284600F072FF09B030BD38B56A
:1002900003208DF802004FF40070ADF80000182024
:1002A000724C8DF803006946204600F0B1FD201520
:1002B000ADF8000004208DF803006946204600F0E8
:1002C000A7FD38BD08B500214FF0006000F02AFE00
:1002D00010208DF8000000208DF801008DF802003C
:1002E00001208DF80300684600F0E2FD08BD10B55E
:1002F00000F03AFE4FF48034204600F0C7FE00F0D4
:100300000DFF5B494870C0B2012823D1002000F0E6
:10031000B3FE002000F0DEFEA01100F0D1FE0220AE
:1003200000F06AFD102000F05BFD4FF4E011204664
:1003300000F0E0FE012000F0D7FE392000F07CFE46
:100340000028FAD0022000F0DFFE00BF00F08CFE93
:100350000828FBD1012144F2040000F0F9FD01213D
:10036000BDE81040084600F0E7BD2DE9F041FFF779
:10037000BEFFFFF7A7FFFFF78AFFFFF75EFF3DA075
:1003800000F0DEFA404C204600F080FC40483F4F31
:1003900000F12C05C0E9007500212022C0E90212FD
:1003A0004022026180224261920082619200C0E993
:1003B000072191004162490081620146204600F018
:1003C000F1FC01220221204600F0E4FC204600F06E
:1003D000CDFC274E70800121204600F04DFC708836
:1003E0000028FCD12BA000F0ABFA30A000F0A8FA56
:1003F0000024A00702D138A000F0A2FA57F8241078
:1004000036A000F09DFA641C202CF2DB35A000F031
:1004100097FA0024A00702D12FA000F091FA55F816
:1004200024102EA000F08CFA641C202CF2DB18495A
:1004300020222C311548FFF7EFFE3070307808B9D4
:1004400032A000E036A000F07BFAFEE710B50446CB
:10045000C1B2054800F0DAFE374800BFB0F8001816
:100460000906FBD5204610BD0038014000080140B8
:10047000000000200A20626F6F742073756363654B
:100480007373210A000000006C000240241200086F
:100490000C00002020436F6D706C657465207472D1
:1004A000616E73666572210A000000000A205468BC
:1004B0006520636F6E74656E7473206F6620746858
:1004C00065205352435F436F6E73745F4275666677
:1004D0006572206172653A000A0000003078252DAF
:1004E000397800000A2054686520636F6E74656E69
:1004F0007473206F6620746865204453545F42759E
:1005000066666572206172653A0000000A20444DFB
:10051000412074657374206661696C210A000000D3
:100520000A20444D412074657374207375636365BC
:100530007373210A00000000003001402DE9FF5FC5
:100540004FF0000904460D464FF0010A4FF0800BB2
:10055000C0F83C90E06A0768B84604E0E06AE16BE6
:100560000768491CE163A16A8847060001D0252E6F
:10057000F4D1B84504D03A4641462046236A98470C
:10058000002E70D0A64F00267F44D4E90A10884779
:10059000202807DB312805D2391811F8201C09B1B1
:1005A0000E43F2E7C4F838900027C4F834902A28A4
:1005B0000ED101CD04EB87014863D4E90A108847C6
:1005C000012F26D1A16B00292DDA26F020062AE082
:1005D000A0F130010A291AD2BAF1000F17D004EBAA
:1005E0008708C8F8341008E0D8F8341001EB81010E
:1005F00000EB41003038C8F83400D4E90A108847CD
:10060000A0F130010A2902D2BAF1000FECD1012F7A
:1006100009D02E2807D1D4E90A1088477F1C022F61
:1006200046F02006C3DB616B002903DA494246F03D
:1006300001066163F10701D026F01006B10701D56C
:1006400026F004066C2801D0682813D10746D4E9A7
:100650000A108847B84207D158466C2F01D04FF492
:100660008060064316E08CE040216C2F00D08900AA
:100670000E4312E04C2805D06A2803D0742801D01C
:100680007A280AD149464C2803D059466A2800D016
:1006900000210E43D4E90A1088476528A6616FD06F
:1006A00014DC4728FBD008DC00286AD0412869D038
:1006B0004528F4D04628F2D01CE0582857D06128AD
:1006C000F5D063281DD0642874D013E06F2861D062
:1006D00008DC6628E3D067287FD069286AD06E28B6
:1006E00039D007E0702842D073281BD0752861D01C
:1006F00078283CD0E269616A9047E06B401CE06377
:1007000028E70122700606D5ADF8069001CD01A9B3
:10071000ADF804000BE08DF80190694601CD8DF82D
:1007200000000EE002CD4FF0FF32700609D5206BBD
:100730000028204602D0AFF300800BE7AFF3008023
:1007400008E7206B0028204602D0AFF3008001E7C5
:10075000AFF30080FEE6700504D4F00502D4300645
:1007600000D47006204602CDAFF30080F2E63106D9
:1007700009D5ED1D25F00705D5E90023083504E06E
:100780002BE046E037E004CD4B460146204600F022
:100790006FF8DFE6300606D5ED1D25F00705D5E933
:1007A0000023083501E004CD4B462046AFF300801E
:1007B000D0E6FFE731060AD501462046ED1D25F0BB
:1007C0000705D5E900230835AFF30080C2E604CD64
:1007D00001462046AFF30080BCE6ED1D25F007057D
:1007E000D5E900120835CDE902120146204602AAD9
:1007F000AFF30080AEE6ED1D25F00705D5E9001248
:100800000835CDE902120146204602AAAFF3008066
:10081000A0E6E06B04B0BDE8F09F704770477047FA
:100820002C0D000070B50446456B80693026C1066A
:1008300000D42026C00709D106E0E2693046616A8B
:100840009047E06B401CE0636D1EF6D570BD70B53F
:100850000446456B8069C00709D006E0E269616A19
:1008600020209047E06B401CE0636D1EF6D570BD04
:100870002DE9F04F07460D46104689B0DFF8AC80F1
:10088000F844582901D0A8F11108B969090602D520
:1008900004461E4604E03946AFF3008000260446B5
:1008A0000FF28C09B8694FF0000A010716D5702DB8
:1008B00004D10FF280094FF0010A11E0002386EA0B
:1008C000030184EA030008430FD00FF26C09782D6E
:1008D00001D00FF268094FF0020A06E0702D04D132
:1008E00040F02000B8610820B86300250DF1040B2A
:1008F0000AE004F00F00240918F8000044EA067426
:100900000BF805006D1C3609002386EA030184EA12
:1009100003000843EDD14B462A46384601A9CDF8DD
:1009200000A000F085F809B0BDE8F08F560A00007D
:100930000000000040000000307800003058000047
:100940000FB40A4A0A4910B503AB7944029800F083
:10095000C1F80446054800F0D7F820B14FF0FF3049
:1009600010BC5DF814FB2046FAE70000FC000020F4
:10097000FFFAFFFF7047744600F02EF8A6460DB54B
:1009800000F050F80400BDE80D401100704702006F
:1009900010B50020AFF3008010BDAFF30080FFF76B
:1009A000EAFF03B400F046F903BC00F0E3F80FB42B
:1009B00000F045F90FBCFFF7D8FC00F0D5F801B501
:1009C000AFF3008000F02DF9BDE8014000F002F81F
:1009D0006FF0000000F0A8F8754600F0AFF8AE46E2
:1009E00005006946534620F00700854618B020B53B
:1009F000FFF7BAFBBDE820404FF000064FF00007BC
:100A00004FF000084FF0000B21F00701AC46ACE8B6
:100A1000C009ACE8C009ACE8C009ACE8C0098D4623
:100A200070470000014870477047000094010020A3
:100A30002DE9F0478946044615469A468169DDF856
:100A40002080880604D5A06B21F01001A16100E090
:100A500001200027A84200DD471B606B7919414443
:100A6000401A6063A069C00602D42046FFF7DAFE90
:100A7000002608E0E2691AF80600616A9047E06B18
:100A8000401C761CE0634645F4DBA069C0060AD52D
:100A90002046FFF7C7FE06E0E269616A3020904712
:100AA000E06B401CE063381EA7F10107F4DC07E0AF
:100AB000E26919F80500616A9047E06B401CE06349
:100AC000281EA5F10105F3DC2046FFF7C0FEBDE8B6
:100AD000F08700000FB50846194691B00790084806
:100AE00009927844089000200C90064878440A90B7
:100AF00011A80B906846FFF721FD15B000BD00005E
:100B00005F0000006F00000070B5044600F13C0576
:100B10002846AFF30080E06800F080042846AFF379
:100B20000080204670BD000003494FF01800ABBEA6
:100B300070470000130100002600020000487047C3
:100B40008401002070B505460C46164604E0EB69AA
:100B500014F8010B696A9847B442F8D370BD016874
:100B60004A1C0260087870470446AFF300802046B4
:100B7000FFF725FF2DE9FE4304460D4600F04AFB32
:100B80000020CDE90045102000BF02906846FFF725
:100B9000E7FA04460D46DDE9000117461E46AFF3AD
:100BA0000080AFF30080AFF3008000210846AFF370
:100BB0000080804600F048F800218146C0F800809F
:100BC0000846AFF30080411CC9F804100021084614
:100BD000AFF300800021C9F808000846AFF3008099
:100BE0000021C9F80C000846AFF30080C9F81000D6
:100BF000AFF30080AFF30080AFF30080AFF300806D
:100C0000AFF30080AFF30080AFF30080AFF300805C
:100C1000AFF3008003B0204629463A463346BDE88C
:100C2000F08310B50020AFF30080AFF30080AFF386
:100C3000008010BD6FF000006FF00201704710B52A
:100C4000AFF3008010BD7047014870477047000047
:100C5000A401002070470000014870477047000061
:100C6000880100200349C20002D5C1F8040470477E
:100C700048607047000002400029016802D041F03E
:100C8000010101E021F001010160704702680021CB
:100C900022F001020260016041608160C160304B5E
:100CA0002F49C21A8039984245D018DC2D4BA0EB51
:100CB0000302984237D00ADC2B4A80182BD0142824
:100CC0002DD0282826D1486840F4706036E0142AD8
:100CD0002DD0282A1ED1486840F470002EE0B2F5CD
:100CE0006C7F32D00ADCB2F5627F29D0B2F5677F23
:100CF00010D1D1F8040440F0F00009E0B2F5717FA2
:100D000028D0B2F5767F05D1D1F8040440F47020E4
:100D1000C1F804047047486840F00F000EE04868CE
:100D200040F0F0000AE0486840F4704006E048688F
:100D300040F4702002E0486840F0706048607047FE
:100D4000D1F8040440F00F00E2E7D1F8040440F4C5
:100D50007060DDE7D1F8040440F47040D8E700008B
:100D60008000024044000240F8FFFDBF406880B2AE
:100D700070470000024600200549D30002D5D1F893
:100D8000001400E00968114200D001207047000003
:100D900000000240002A026801D00A4300E08A43B2
:100DA0000260704770B5026847F6F0739A430E6AA6
:100DB0008B680C693343D1E905562C432343CC6936
:100DC00033432343D1E909542B43234313430360A3
:100DD000CA6842600A6882604968C16070BD0000EC
:100DE00004490A6822F010020A600A6802430A6095
:100DF000704700000020024004490A6802F03802EF
:100E00000A600A6802430A6070470000002002403E
:100E1000F0B5CB780022DC0603F00F0301D58C7807
:100E200023430C880F2714F0FF0F4FF0010C1CD048
:100E3000D0F800500E880CFA02F42640A64210D1D9
:100E4000960007FA06FE25EA0E0E03FA06F5CE789E
:100E500045EA0E05282E00D14461CE78482E00D1F7
:100E60000461521C082AE5D305600A88FF2A1ED9AE
:100E70004568002202F108060CFA06F40E882640A6
:100E8000A64210D1960007FA06FE25EA0E0E03FAD6
:100E900006F5CE7845EA0E05282E00D14461CE78BD
:100EA000482E00D10461521C082AE3D34560F0BDEE
:100EB000F0B50F23C27801784FF0E024012742B348
:100EC000D4F80C2D467802F4E062C2F5E062120A12
:100ED000C2F10405D3408278AE401A403243150176
:100EE0008A07D20E954021F003010B19D3F8006454
:100EF000FF2191408E430D402E43C3F800640078DB
:100F0000410900F01F0004EB81018740C1F8007126
:100F1000F0BD01F01F008740480904EB8000C0F8D5
:100F20008071F0BD024A11400143024801607047E0
:100F300080FFFF1F08ED00E0044A0029516901D03D
:100F4000014300E0814351617047000000100240FE
:100F5000044A0029916901D0014300E08143916175
:100F600070470000001002400B48016841F0010189
:100F700001604168094A114041600168084A114016
:100F80000160016821F4802101604268002122F49F
:100F9000FE02426081607047001002400000FFF8CE
:100FA000FFFFF6FE30B5204A5168204B11F00C01CE
:100FB00003D0042901D0082901D0036011E0516851
:100FC000022401F4701104EB91415468184D14F49B
:100FD000803F02D05468A40301D5694300E059431F
:100FE00001605168134B01F0F00109095C5C016874
:100FF000E1404160546804F4E064240A1C5D21FA75
:1010000004F48460546804F46054E40A1B5DD9401D
:10101000C1605268074B02F44042920B1B1F9A5C5E
:10102000B1FBF2F1016130BD0010024000127A0004
:1010300000093D00A8120008034600205909094A8A
:10104000012901D1116804E0022901D1116A00E0EF
:10105000516A03F01F02012393400B4200D001208C
:1010600070470000001002400248406800F00C0089
:101070007047000000100240034A516821F0F0015F
:101080000143516070470000001002400B490A689C
:1010900022F480320A600A68B0F5803F22F4802290
:1010A0000A6007D0B0F5802F03D1086840F4A02073
:1010B00008607047086840F48030F9E7001002408B
:1010C000034A516821F4E061014351607047000018
:1010D00000100240034A516821F4605141EAC00007
:1010E00050607047001002400149086670470000D8
:1010F00000004242034B5A68084322F47C1210431A
:101100005860704700100240034A516821F0030103
:1011100001435160704700000010024030B50B4C95
:1011200040F2FF153120FFF787FF20706068401CF8
:101130006060207810B96068A842F3D13120FFF7D1
:101140007BFF002800D0012030BD000004000020FB
:1011500030B5028A4FF2FF031A400B884D888C8805
:10116000C9882B430C4323431343038230BD00291A
:10117000818902D041F4005101E021F400518181C4
:101180007047000030B50446008A85B00D464CF625
:10119000FF710840E98801432182A0894EF6F311CE
:1011A0000840A9882A8911436A8902431143A18111
:1011B000A08A4FF6FF410840A9890143A1826846F1
:1011C000FFF7F0FE1048844201D1039800E0029836
:1011D00019214843296864228900B0FBF1F0B0FB73
:1011E000F2F109010B096FF018056B43322500EB92
:1011F000830005EB0010B0FBF2F000F00F00084395
:10120000208105B030BD000000380140C1F3080165
:101210008180704710B5FFF71FFD4FF0000101609E
:1012200010BD000004030201080706050C0B0A09A3
:10123000100F0E0D14131211181716151C1B1A1966
:10124000201F1E1D24232221282726252C2B2A2956
:10125000302F2E2D34333231383736353C3B3A3946
:10126000403F3E3D44434241484746454C4B4A4936
:10127000504F4E4D54535251585756555C5B5A5926
:10128000605F5E5D64636261686766656C6B6A6916
:10129000706F6E6D74737271787776757C7B7A7906
:1012A000807F7E7D02040608000000000102030426
:1012B00001020304060708090400000800000000FA
:1012C00000000002000100001030313233343536A6
:1012D00037383961626364656600303132333435E2
:1012E0003637383941424344454600000C13000864
:1012F000000000200C00000028010008181300085E
:101300000C000020DC030000440100080000000085
:081310000000000000000000D5
:00000001FF
