:0400000508000000EF
:020000040800F2
:10000000700200206501000827060008D5050008D9
:10001000250600085B030008C10900080000000075
:10002000000000000000000000000000F9080008C7
:100030006F0300080000000037070008FD080008F3
:10004000C309000835070008A5090008F3080008DF
:10005000850400087D080008710300087503000886
:1000600077030008790300087B0300086103000898
:1000700063030008650300086703000869030008BC
:100080006B0300086D03000859030008BD09000850
:10009000BF0900085D0300085F0300087D03000836
:1000A000A7090008AD090008AB090008A909000864
:1000B000AF090008B1090008B3090008D905000814
:1000C000D7050008DD050008DB050008F508000875
:1000D000F7080008B5090008B7090008B9090008C1
:1000E00073030008F1080008BB09000800F002F8DB
:1000F00000F05BF80AA090E8000C82448344AAF167
:100100000107DA4501D100F050F8AFF2090EBAE864
:100110000F0013F0010F18BFFB1A43F0010318473B
:100120001409000034090000103A24BF78C878C1CF
:10013000FAD8520724BF30C830C144BF04680C60ED
:10014000704700000023002400250026103A28BF35
:1001500078C1FBD8520728BF30C148BF0B60704739
:1001600000F0F2B80348004703480449024A044B30
:1001700070470000ED0000087000002070020020B1
:10018000700000207047744600F02EF8A6460DB5AA
:1001900000F050F80400BDE80D4011007047020067
:1001A00010B50020AFF3008010BDAFF30080FFF763
:1001B000EAFF03B400F0B8F803BC00F055F80FB440
:1001C00000F0B7F80FBC00F0FDFB00F047F801B5F8
:1001D000AFF3008000F09FF8BDE8014000F002F8A6
:1001E0006FF0000000F02CF8754600F033F8AE46D2
:1001F00005006946534620F00700854618B020B533
:10020000FFF7B2FFBDE820404FF000064FF00007B7
:100210004FF000084FF0000B21F00701AC46ACE8AE
:10022000C009ACE8C009ACE8C009ACE8C0098D461B
:100230007047000001487047704700001C00002014
:1002400003494FF01800ABBE70470000EF000000FC
:1002500026000200004870470C0000200446AFF35F
:1002600000802046FFF7B3FF2DE9FE4304460D460C
:1002700000F0D8FB0020CDE90045AFF300800290EC
:100280006846FFF76DFF04460D46DDE9000117469D
:100290001E46AFF30080AFF30080AFF30080002173
:1002A0000846AFF30080804600F048F80021814600
:1002B000C0F800800846AFF30080411CC9F8041064
:1002C00000210846AFF300800021C9F80800084665
:1002D000AFF300800021C9F80C000846AFF300809E
:1002E000C9F81000AFF30080AFF30080AFF30080D7
:1002F000AFF30080AFF30080AFF30080AFF3008076
:10030000AFF30080AFF3008003B0204629463A46A1
:100310003346BDE8F08310B50020AFF30080AFF3A3
:100320000080AFF3008010BD6FF000006FF002019D
:10033000704710B5AFF3008010BD7047014870479B
:10034000704700002C0000207047000001487047F3
:1003500070470000100000207047704770477047DA
:1003600070477047704770477047704770477047D5
:1003700070477047704770477047704710B54FF42B
:10038000007000F02BF8002806D00022BDE81040D5
:100390008021024800F019B910BD00000010014092
:1003A0000149086070470000140401401CB5092190
:1003B000012000F09FF84FF400742046FFF7F0FF93
:1003C00000208DF804000C208DF8050001208DF828
:1003D00006000094684600F00FF81CBD054B01466E
:1003E0001A6800205B690A400B4202D0002A00D044
:1003F000012070470004014010B58379204902684C
:10040000A3B3D1F800349343C1F80034D1F80424E5
:1004100003689A43C1F80424027904680A44D2F8B4
:1004200000342343C2F80034D1F8082403689A4307
:10043000C1F80824D1F80C2403689A43C1F80C24AD
:100440004279102A0AD101F581610A6803681A43CA
:100450000A604A68006802434A6010BD1144D1F83E
:10046000002400680243C1F8002410BDFFE70079B2
:100470000844D0F800149143C0F80014F5E70000D8
:10048000000001407047000004490A6822F0100291
:100490000A600A6802430A607047000000200240B8
:1004A00004490A6802F038020A600A6802430A60D6
:1004B000704700000020024008B5C020ADF80000E1
:1004C00003208DF8020010208DF8030069460748CC
:1004D00000F024F84FF40070ADF8000004208DF80F
:1004E00003006946024800F019F808BD00100140F9
:1004F000000C014010B58A0721F003040649120FD1
:1005000021440F238C6893409C438C608B689040FF
:1005100003438B6010BD000000000140F0B5CB78B4
:100520000022DC0603F00F0301D58C7823430C88EE
:100530000F2714F0FF0F4FF0010C1CD0D0F8005023
:100540000E880CFA02F42640A64210D1960007FA53
:1005500006FE25EA0E0E03FA06F5CE7845EA0E05EC
:10056000282E00D14461CE78482E00D10461521C5F
:10057000082AE5D305600A88FF2A1ED945680022AB
:1005800002F108060CFA06F40E882640A64210D1A5
:10059000960007FA06FE25EA0E0E03FA06F5CE7857
:1005A00045EA0E05282E00D14461CE78482E00D1B0
:1005B0000461521C082AE3D34560F0BD0246D268AC
:1005C00000200A4200D0012070470AB10161704743
:1005D000416170477047704770477047704700002F
:1005E00002494CF6CC4008607047000000300040E3
:1005F00002494AF6AA200860704700000030004017
:10060000014948607047000000300040014988609F
:10061000704700000030004001490860704700004A
:10062000003000407047704708B54FF4A06000F0FC
:1006300051F817208DF8000000208DF801008DF88A
:10064000020001208DF80300684600F009F800223E
:100650000121024800F048F808BD00009AC30200DA
:10066000F0B50F23C27801784FF0E024012742B3A0
:10067000D4F80C2D467802F4E062C2F5E062120A6A
:10068000C2F10405D3408278AE401A4032431501CE
:100690008A07D20E954021F003010B19D3F80064AC
:1006A000FF2191408E430D402E43C3F80064007833
:1006B000410900F01F0004EB81018740C1F800717F
:1006C000F0BD01F01F008740480904EB8000C0F82E
:1006D0008071F0BD0249084302490860704700007C
:1006E0000000FA050CED00E070B54FF0E026D6F8FA
:1006F0000C3DFF2403F4E063C3F5E0631B0ADC4018
:10070000C3F10405A94022400A43110100F0C002D0
:100710009209C0F30120C0008140FF23834006EB13
:10072000820000F6185002689A43026002680A4389
:10073000026070BD70477047044A0029916901D07A
:10074000014300E0814391617047000000100240C6
:100750000248416A41F080714162704700100240D6
:1007600010B500F029F84FF4803000F06DF800F07B
:10077000A5F810490870C0B2012815D1002000F07A
:1007800059F8002000F086F8002000F079F80020E9
:10079000FFF786FE1020FFF777FE012000F084F8B7
:1007A00000F040F80428FBD10121BDE810401920D9
:1007B000FFF7C2BF000000200B48016841F00101B3
:1007C00001604168094A114041600168084A1140CE
:1007D0000160016821F4802101604268002122F457
:1007E000FE02426081607047001002400000FFF886
:1007F000FFFFF6FE034600205909094A012901D1ED
:10080000116804E0022901D1116A00E0516A03F085
:100810001F02012393400B4200D0012070470000CB
:10082000001002400248406800F00C0070470000D1
:1008300000100240034A516821F0F0010143516069
:1008400070470000001002400B490A6822F4803211
:100850000A600A68B0F5803F22F480220A6007D05F
:10086000B0F5802F03D1086840F4A02008607047DD
:10087000086840F48030F9E700100240704700003B
:10088000034A516821F4E061014351607047000060
:1008900000100240034A516821F4605141EAC0004F
:1008A0005060704700100240034A516821F0030174
:1008B00001435160704700000010024030B50B4CFE
:1008C00040F2FF153120FFF795FF20706068401C53
:1008D0006060207810B96068A842F3D13120FFF73A
:1008E00089FF002800D0012030BD00000400002056
:1008F00070477047704770477047000010B5FFF7AA
:1009000077FE074C80212046FFF758FEC0F101001A
:10091000C2B22046BDE810408021FFF756BE00005D
:10092000001001404FF0E0210428086902D140F096
:10093000040001E020F004000861704710B56FF07A
:100940000400FFF7EFFF054800F028F8012000F051
:1009500007F8BDE81040012000F014B890D0030063
:100960004FF0E021012803D1086940F0010004E0C4
:10097000801C04D1086920F0010008617047002044
:10098000886170474FF0E0210028086902D040F0EC
:10099000020001E020F00200086170474FF0E02102
:1009A000486170477047704770477047704770479D
:1009B000704770477047704770477047704770477F
:1009C0007047704710B5FFF7CBFEFFF775FD7D2030
:1009D000FFF710FF124B38B1012240211846FFF7F4
:1009E000F4FDFFF7B5FE04E0002240211846FFF7B2
:1009F000ECFDFFF7DBFCFFF717FEFFF79FFF45F26B
:100A00005550FFF709FE0320FFF7FAFD40F25D1095
:100A1000FFF7FCFDFFF7ECFDFFF7E2FDFEE700004E
:100A20000010014010B5FFF791FC4FF0000101608C
:100A300010BD0000540A0008000000200C00000057
:100A400028010008600A00080C0000206402000071
:100A50004401000800000000000000000000000049
:00000001FF
