:0400000508000000EF
:020000040800F2
:100000004003002085060008A5060008A706000892
:10001000A9060008AB060008AD06000800000000B5
:10002000000000000000000000000000B106000811
:10003000AF06000800000000B3060008B50600087F
:10004000B7060008B9060008BB060008BD06000890
:100050000507000807070008090700080B07000844
:100060000D0700080F070008110700081307000814
:100070001507000817070008190700081B070008E4
:100080001D0700081F0700082107000823070008B4
:100090002507000827070008290700082B07000884
:1000A0002D0700082F070008310700083307000854
:1000B0003507000837070008390700083B07000824
:1000C0003D0700083F0700084107000843070008F4
:1000D0004507000847070008490700084B070008C4
:1000E0004D0700084F0700085107000800F002F80C
:1000F00000F039FD0AA090E8000C82448344AAF184
:100100000107DA4501D100F02EFDAFF2090EBAE881
:100110000F0013F0010F18BFFB1A43F0010318473B
:100120007813000098130000103A24BF78C878C1F3
:10013000FAD8520724BF30C830C144BF04680C60ED
:10014000704700000023002400250026103A28BF35
:1001500078C1FBD8520728BF30C148BF0B60704739
:1001600000F066BE2DE9F041044600250026002778
:100170004FF46160B4FBF0F5B4FBF0F100FB11400B
:100180003C21B0FBF1F64FF46160B4FBF0F100FBF1
:1001900011403C21B0FBF1F201FB12073B46324615
:1001A0002946D9A000F0B2FCBDE8F08110B5DDA071
:1001B00000F0ACFC0BE0DC480068012807D101F03E
:1001C00067F80446FFF7CEFF0020D7490860F2E742
:1001D0007CB505460024684600210A4606C01EE09C
:1001E00000BF2021D14801F0C8F80028F9D0CF483D
:1001F00001F00EF92146641C6A4642F82100601E97
:10020000694651F82000302805D3601E694651F830
:100210002000392803D9C6A000F078FC641E022C07
:10022000DED3019830380099303901EB810100EBC1
:100230004104AC4205D92946C8A000F067FCFF2064
:100240007CBDE0B2FCE770B5FF24FF25FF26CF4858
:1002500000F05CFCCEA000F059FC03E01720FFF793
:10026000B7FF0446FF2CF9D02146CFA000F04EFC8A
:10027000CFA000F04BFC03E03B20FFF7A9FF0546B1
:10028000FF2DF9D02946C8A000F040FCCEA000F018
:100290003DFC03E03B20FFF79BFF0646FF2EF9D015
:1002A0003146C1A000F032FC4FF461606043C5EB01
:1002B000051100EB8100304470BD10B501F02AF843
:1002C000FFF7C1FF044601F007F801F023F810BD65
:1002D00010B501214FF0C05000F08AFE012000F05F
:1002E00081FE00F0ADFD012000F054FF00BF412071
:1002F00000F00CFF0028FAD04FF4807000F084FF6B
:10030000012000F07BFF01F00FF801F003F801215C
:10031000084600F0D3FF00F0FDFF47F6FF7000F045
:10032000E9FF00F0F7FF10BD00B589B00020ADF87F
:100330000400ADF806004FF40070ADF8080000208E
:10034000ADF80A0001A9794800F0FEFF4FF4E13052
:1003500003900020ADF81000ADF81200ADF81400C5
:10036000ADF818000C20ADF8160003A96F4801F095
:100370000BF801216D4800F0F6FF09B000BD08B58B
:100380004020ADF8000003208DF8020010208DF809
:1003900003006946924800F085FD4FF40070ADF807
:1003A000000018208DF8030069468E4800F07AFDA1
:1003B0004FF48060ADF8000004208DF8030069461A
:1003C000884800F06FFD08BD08B54FF4C06000F02C
:1003D000FFFD03208DF8000001208DF801000020B2
:1003E0008DF8020001208DF80300684600F0B6FD8C
:1003F00008BD10B500F022FE4FF4803000F0B0FED2
:1004000000F014FF7849087008460078012826D1CA
:10041000002000F09BFE002000F0D6FE4FF480602C
:1004200000F0C8FE022000F031FD102000F022FD97
:100430004FF4E0114FF4803000F0D6FE012000F0C0
:10044000CDFE00BF392000F061FE0028FAD0022066
:1004500000F0E2FE00BF00F071FE0828FBD1012190
:1004600044F2140000F0D0FD10BD10B5FFF7C1FF3D
:10047000FFF7AAFFFFF783FFFFF756FF042000F006
:10048000E9FCA0F52541A5390FD058A000F03EFBAE
:10049000FFF71EFF5DA000F039FBFFF70EFF4AF2E9
:1004A000A551042000F0DEFC19E07B2000F02EFEB8
:1004B00018B15CA000F02AFB06E07A2000F026FECE
:1004C00010B160A000F022FB66A000F01FFB00F05E
:1004D0002BFF0121084600F0F1FE00F01BFF00F0A9
:1004E000A5FDFFF763FE002010BD70B504460D4664
:1004F000E1B20E4800F090FF00BF0C48008810F0F9
:10050000800FFAD0204670BD54696D653A202530C1
:100510002E32643A25302E32643A25302E32640D64
:10052000000000000A0D000000000020003801401B
:100530000A0D506C6561736520656E746572207676
:10054000616C6964206E756D626572206265747796
:1005500065656E203020616E642039000A0D506C94
:100560006561736520656E7465722076616C69647F
:10057000206E756D626572206265747765656E20A8
:100580003020616E642025640000000030140008F3
:100590000D0A2020506C65617365205365742048F6
:1005A0006F757273000000003A202025640000007F
:1005B0000D0A2020506C6561736520536574204DD1
:1005C000696E7574657300000D0A2020506C6561BA
:1005D000736520536574205365636F6E6473000008
:1005E0000010014000080140040000200D0A0A200C
:1005F000525443206E6F742079657420636F6E6669
:100600006967757265642E2E2E2E00000D0A205229
:10061000544320636F6E666967757265642E2E2E73
:100620002E0000000D0A0A20506F776572204F6E71
:10063000205265736574206F636375727265642EF2
:100640002E2E2E000D0A0A2045787465726E616C9C
:10065000205265736574206F636375727265642ED2
:100660002E2E2E000D0A204E6F206E6565642074BC
:100670006F20636F6E666967757265205254432EF2
:100680002E2E2E000348004703480449024A044B1B
:1006900070470000ED0000084001002040030020EA
:1006A000400100207047704770477047704770479F
:1006B00070477047704770477047704710B501200A
:1006C00000F0EEFDE8B1012000F0CAFD4021214814
:1006D00000F038FCC0F10100C4B2224640211D48A0
:1006E00000F037FC01201C49086000F013FE00F008
:1006F000CFFD1A49884204D1002000F0EDFD00F042
:1007000009FE10BD704770477047704770477047CB
:100710007047704770477047704770477047704721
:100720007047704770477047704770477047704711
:100730007047704770477047704770477047704701
:1007400070477047704770477047704770477047F1
:10075000704700000010014000000020805101009F
:100760002DE9FF5F4FF0000904460D464FF0010AE6
:100770004FF0800BC0F83C90E06A0768B84604E090
:10078000E06AE16B0768491CE163A16A88470600DB
:1007900001D0252EF4D1B84504D03A464146204632
:1007A000236A9847002E70D0A64F00267F44D4E9D4
:1007B0000A108847202807DB312805D2391811F89C
:1007C000201C09B10E43F2E7C4F838900027C4F8A2
:1007D00034902A280ED101CD04EB87014863D4E977
:1007E0000A108847012F26D1A16B00292DDA26F0A7
:1007F00020062AE0A0F130010A291AD2BAF1000F2E
:1008000017D004EB8708C8F8341008E0D8F8341083
:1008100001EB810100EB41003038C8F83400D4E925
:100820000A108847A0F130010A2902D2BAF1000F5C
:10083000ECD1012F09D02E2807D1D4E90A1088471E
:100840007F1C022F46F02006C3DB616B002903DA10
:10085000494246F001066163F10701D026F0100617
:10086000B10701D526F004066C2801D0682813D101
:100870000746D4E90A108847B84207D158466C2F7A
:1008800001D04FF48060064316E08CE040216C2FCD
:1008900000D089000E4312E04C2805D06A2803D00E
:1008A000742801D07A280AD149464C2803D05946E9
:1008B0006A2800D000210E43D4E90A108847652831
:1008C000A6616FD014DC4728FBD008DC00286AD072
:1008D000412869D04528F4D04628F2D01CE0582899
:1008E00057D06128F5D063281DD0642874D013E058
:1008F0006F2861D008DC6628E3D067287FD069289C
:100900006AD06E2839D007E0702842D073281BD0F7
:10091000752861D078283CD0E269616A9047E06B25
:10092000401CE06328E70122700606D5ADF806906A
:1009300001CD01A9ADF804000BE08DF801906946E6
:1009400001CD8DF800000EE002CD4FF0FF327006B1
:1009500009D5206B0028204602D0AFF300800BE7BA
:10096000AFF3008008E7206B0028204602D0AFF3E9
:10097000008001E7AFF30080FEE6700504D4F005C7
:1009800002D4300600D47006204602CDAFF30080BA
:10099000F2E6310609D5ED1D25F00705D5E900235E
:1009A000083504E02BE046E037E004CD4B46014635
:1009B0002046AFF30080DFE6300606D5ED1D25F0BA
:1009C0000705D5E90023083501E004CD4B46204654
:1009D000AFF30080D0E6FFE731060AD50146204696
:1009E000ED1D25F00705D5E900230835AFF300809C
:1009F000C2E604CD0146204600F04CF8BCE6ED1DF1
:100A000025F00705D5E900120835CDE902120146A7
:100A1000204602AAAFF30080AEE6ED1D25F00705E3
:100A2000D5E900120835CDE902120146204602AA96
:100A3000AFF30080A0E6E06B04B0BDE8F09F704724
:100A400070477047D70C000070B50446456B80694D
:100A50003026C10600D42026C00709D106E0E2698D
:100A60003046616A9047E06B401CE0636D1EF6D52E
:100A700070BD70B50446456B8069C00709D006E0BB
:100A8000E269616A20209047E06B401CE0636D1EC4
:100A9000F6D570BD2DE9F0410746104600267529B0
:100AA00039468AB015A510D0AFF30080002802DACD
:100AB000404213A507E0B9698A0701D511A502E0F4
:100AC000490704D510A5012601E0AFF300800024FA
:100AD0000DF1080805E000F00CF9303108F80410B9
:100AE000641C0028F7D12B462246384602A90096FE
:100AF00000F084F80AB0BDE8F081000000000000BA
:100B00002D0000002B000000200000000FB40A4A56
:100B10000A4910B503AB7944029800F0C1F80446C5
:100B2000054800F0D7F820B14FF0FF3010BC5DF859
:100B300014FB2046FAE7000054000020D1F9FFFF23
:100B40007047744600F02EF8A6460DB500F050F838
:100B50000400BDE80D4011007047020010B50020F0
:100B6000AFF3008010BDAFF30080FFF7EAFF03B4DE
:100B700000F04EF903BC00F0EBF80FB400F04DF9B3
:100B80000FBCFFF772FC00F0DDF801B5AFF3008099
:100B900000F035F9BDE8014000F002F86FF0000008
:100BA00000F0B0F8754600F0B7F8AE4605006946AB
:100BB000534620F00700854618B020B5FFF764FDC6
:100BC000BDE820404FF000064FF000074FF000084E
:100BD0004FF0000B21F00701AC46ACE8C009ACE8CF
:100BE000C009ACE8C009ACE8C0098D4670470000F8
:100BF0000148704770470000EC0000202DE9F047E5
:100C00008946044615469A468169DDF820808806A3
:100C100004D5A06B21F01001A16100E001200027A4
:100C2000A84200DD471B606B79194144401A60639C
:100C3000A069C00602D42046FFF706FF002608E0A0
:100C4000E2691AF80600616A9047E06B401C761C66
:100C5000E0634645F4DBA069C0060AD52046FFF7ED
:100C6000F3FE06E0E269616A30209047E06B401CC9
:100C7000E063381EA7F10107F4DC07E0E26919F828
:100C80000500616A9047E06B401CE063281EA5F1F7
:100C90000105F3DC2046FFF7ECFEBDE8F08700001D
:100CA0000FB50846194691B0079008480992784454
:100CB000089000200C90064878440A9011A80B90E8
:100CC0006846FFF74DFD15B000BD00006F00000045
:100CD0007F00000070B5044600F13C052846AFF3E4
:100CE0000080E06800F080042846AFF300802046D2
:100CF00070BD4FF00A01B0FBF1F202FB110110468A
:100D00007047000003494FF01800ABBE7047000069
:100D1000130100002600020000487047DC0000209C
:100D200070B505460C46164604E0EB6914F8010B55
:100D3000696A9847B442F8D370BD01684A1C0260E2
:100D4000087870470446AFF300802046FFF71DFF88
:100D50002DE9FE4304460D4600F062FB0020CDE97C
:100D60000045102000BF02906846FFF7F9F90446DD
:100D70000D46DDE9000117461E46AFF30080AFF3D4
:100D80000080AFF3008000210846AFF3008080466A
:100D900000F048F800218146C0F800800846AFF313
:100DA0000080411CC9F8041000210846AFF3008000
:100DB0000021C9F808000846AFF300800021C9F8F7
:100DC0000C000846AFF30080C9F81000AFF30080B4
:100DD000AFF30080AFF30080AFF30080AFF300808B
:100DE000AFF30080AFF30080AFF30080AFF300807B
:100DF00003B0204629463A463346BDE8F08310B595
:100E00000020AFF30080AFF30080AFF3008010BD8F
:100E10006FF000006FF00201704710B5AFF3008073
:100E200010BD70470148704770470000FC0000206B
:100E3000704700000148704770470000E000002044
:100E400010B5012000F0ECF8BDE81040002000F0E3
:100E5000E7B8000002490844B0F8000C70470000F1
:100E600000600040024A1044A0F8001C70470000D7
:100E70000060004004490A6822F010020A600A6813
:100E800002430A60704700000020024004490A68DB
:100E900002F038020A600A6802430A6070470000E4
:100EA00000200240F0B5CB780022DC0603F00F03EF
:100EB00001D58C7823430C880F2714F0FF0F4FF0D7
:100EC000010C1CD0D0F800500E880CFA02F4264019
:100ED000A64210D1960007FA06FE25EA0E0E03FA86
:100EE00006F5CE7845EA0E05282E00D14461CE786D
:100EF000482E00D10461521C082AE5D305600A88F7
:100F0000FF2A1ED94568002202F108060CFA06F4F1
:100F10000E882640A64210D1960007FA06FE25EA62
:100F20000E0E03FA06F5CE7845EA0E05282E00D1FE
:100F30004461CE78482E00D10461521C082AE3D3C4
:100F40004560F0BD0246D26800200A4200D0012070
:100F500070470AB10161704741617047F0B50F23D6
:100F6000C27801784FF0E024012742B3D4F80C2D69
:100F7000467802F4E062C2F5E062120AC2F10405AA
:100F8000D3408278AE401A40324315018A07D20E10
:100F9000954021F003010B19D3F80064FF21914023
:100FA0008E430D402E43C3F800640078410900F0E1
:100FB0001F0004EB81018740C1F80071F0BD01F012
:100FC0001F008740480904EB8000C0F88071F0BD25
:100FD0000249084302490860704700000000FA0512
:100FE0000CED00E0014908627047000000000E426D
:100FF000044A0029D16901D0014300E08143D16155
:101000007047000000100240044A0029916901D095
:10101000014300E0814391617047000000100240ED
:101020000149086070470000400442420248416A9A
:1010300041F0807141627047001002400B48016826
:1010400041F0010101604168094A114041600168B5
:10105000084A11400160016821F480210160426862
:10106000002122F4FE0242608160704700100240BD
:101070000000FFF8FFFFF6FE30B5204A5168204B14
:1010800011F00C0103D0042901D0082901D003601C
:1010900011E05168022401F4701104EB914154688D
:1010A000184D14F4803F02D05468A40301D569435D
:1010B00000E0594301605168134B01F0F001090948
:1010C0005C5C0168E1404160546804F4E064240A17
:1010D0001C5D21FA04F48460546804F46054E40A4A
:1010E0001B5DD940C1605268074B02F44042920B2D
:1010F0001B1F9A5CB1FBF2F1016130BD0010024090
:1011000000127A0000093D00771400080346002011
:101110005909094A012901D1116804E0022901D1C4
:10112000116A00E0516A03F01F02012393400B4251
:1011300000D00120704700000010024002484068C3
:1011400000F00C007047000000100240034A516894
:1011500021F0F0010143516070470000001002408F
:101160000B490A6822F480320A600A68B0F5803FB1
:1011700022F480220A6007D0B0F5802F03D10868DE
:1011800040F4A02008607047086840F48030F9E718
:1011900000100240064900220A7001F820290128A7
:1011A00002D0042802D1052081F8200070470000F9
:1011B00020100240034A516821F4E061014351606C
:1011C0007047000000100240034A516821F460514A
:1011D00041EAC000506070470010024001490866B3
:1011E0007047000000004242034B5A68084322F453
:1011F0007C1210435860704700100240014908609B
:10120000704700003C04424202490A6A02430A62F3
:101210007047000000100240034A516821F00301AA
:1012200001435160704700000010024030B50B4C84
:1012300040F2FF153120FFF769FF20706068401C05
:101240006060207810B96068A842F3D13120FFF7C0
:101250005DFF002800D0012030BD00000800002004
:10126000024A118881431180704700000428004021
:101270000248018841F010010180704704280040B5
:101280000248018821F010010180704704280040C5
:1012900002498888098840EA0140704718280040C0
:1012A000054A918812880140C9B2024202D009B1B0
:1012B000012070470020704700280040054A00299F
:1012C000B2F8001801D0014300E08143A2F80018F1
:1012D000704700000020004000B50246FFF7C8FF3D
:1012E0000348110C018082805DF804EBFFF7C8BF52
:1012F0001828004000B50246FFF7BAFF0448C2F3C1
:101300000341018082805DF804EBFFF7B9BF000064
:1013100008280040034800BFB0F804188906FBD530
:1013200070470000002000400648B0F8041821F083
:101330000801A0F8041800BFB0F804180907FBD58D
:10134000704700000020004030B5028A4FF2FF03D2
:101350001A400B884D888C88C9882B430C43234343
:101360001343038230BD0029818902D041F400512A
:1013700001E021F40051818170470246128800206B
:101380000A4200D00120704730B50446008A85B07B
:101390000D464CF6FF710840E98801432182A0897F
:1013A0004EF6F3110840A9882A8911436A8902433D
:1013B0001143A181A08A4FF6FF410840A98901434A
:1013C000A1826846FFF758FE1048844201D1039875
:1013D00000E0029819214843296864228900B0FB83
:1013E000F1F0B0FBF2F109010B096FF018056B4346
:1013F000322500EB830005EB0010B0FBF2F000F0AB
:101400000F000843208105B030BD000000380140C6
:101410008088C0F308007047C1F3080181807047DD
:1014200010B5FFF707FD4FF00001016010BD00008F
:101430000D0A3D3D3D3D3D3D3D3D3D3D3D3D3D3D3F
:1014400054696D652053657474696E67733D3D3DE5
:101450003D3D3D3D3D3D3D3D3D3D3D3D3D3D3D3DBC
:101460003D3D3D3D3D3D3D3D3D3D3D3D3D3D3D3DAC
:101470003D3D0002040608000000000102030401D3
:101480000203040607080904000008000000000029
:101490000000020001000010B81400080000002045
:1014A0001000000028010008C814000810000020E7
:1014B00030030000440100080000000000000000AC
:0814C000000000000000000024
:00000001FF
