:0400000508000000EF
:020000040800F2
:100000008003002065010008610C0008550C000801
:100010005F0C0008DD0900088710000800000000E0
:100020000000000000000000000000004D0F00086C
:100030001F0B000800000000830C00084F0F000891
:1000400089100008810C0008510F0008470F0008B4
:100050002F0B0008B10E0008210B0008250B00082B
:10006000270B0008290B00082B0B0008E3090008E8
:10007000E5090008E7090008E9090008EB0900089C
:10008000ED090008EF090008F708000883100008D0
:1000900085100008DF090008E10900082D0B0008A1
:1000A000530F0008590F0008570F0008550F00089C
:1000B0005B0F00085D0F00085F0F0008590C000877
:1000C000570C00085D0C00085B0C0008490F000885
:1000D0004B0F0008610F0008630F0008650F000850
:1000E000230B0008450F00088110000800F002F8FB
:1000F00000F077FA0AA090E8000C82448344AAF149
:100100000107DA4501D100F06CFAAFF2090EBAE846
:100110000F0013F0010F18BFFB1A43F0010318473B
:100120004811000068110000103A24BF78C878C157
:10013000FAD8520724BF30C830C144BF04680C60ED
:10014000704700000023002400250026103A28BF35
:1001500078C1FBD8520728BF30C148BF0B60704739
:1001600000F09CBB0348004703480449024A044B83
:1001700070470000ED00000880010020800300208F
:10018000800100202DE9FF5F4FF0000904460D4675
:100190004FF0010A4FF0800BC0F83C90E06A07680E
:1001A000B84604E0E06AE16B0768491CE163A16AB4
:1001B0008847060001D0252EF4D1B84504D03A4630
:1001C00041462046236A9847002E70D0A64F00264D
:1001D0007F44D4E90A108847202807DB312805D25C
:1001E000391811F8201C09B10E43F2E7C4F8389011
:1001F0000027C4F834902A280ED101CD04EB8701E2
:100200004863D4E90A108847012F26D1A16B002941
:100210002DDA26F020062AE0A0F130010A291AD2B0
:10022000BAF1000F17D004EB8708C8F8341008E0C3
:10023000D8F8341001EB810100EB41003038C8F8E8
:100240003400D4E90A108847A0F130010A2902D20B
:10025000BAF1000FECD1012F09D02E2807D1D4E933
:100260000A1088477F1C022F46F02006C3DB616B13
:10027000002903DA494246F001066163F10701D023
:1002800026F01006B10701D526F004066C2801D02F
:10029000682813D10746D4E90A108847B84207D125
:1002A00058466C2F01D04FF48060064316E08CE076
:1002B00040216C2F00D089000E4312E04C2805D05D
:1002C0006A2803D0742801D07A280AD149464C28DC
:1002D00003D059466A2800D000210E43D4E90A1001
:1002E00088476528A6616FD014DC4728FBD008DC5E
:1002F00000286AD0412869D04528F4D04628F2D099
:100300001CE0582857D06128F5D063281DD06428F8
:1003100074D013E06F2861D008DC6628E3D067282A
:100320007FD069286AD06E2839D007E0702842D083
:1003300073281BD0752861D078283CD0E269616AA7
:100340009047E06B401CE06328E70122700606D569
:10035000ADF8069001CD01A9ADF804000BE08DF8D1
:100360000190694601CD8DF800000EE002CD4FF0FE
:10037000FF32700609D5206B0028204602D0AFF36B
:1003800000800BE7AFF3008008E7206B00282046D1
:1003900002D0AFF3008001E7AFF30080FEE6700506
:1003A00004D4F00502D4300600D47006204602CDF5
:1003B000AFF30080F2E6310609D5ED1D25F0070503
:1003C000D5E90023083504E02BE046E037E004CD12
:1003D0004B460146204600F06FF8DFE6300606D5B2
:1003E000ED1D25F00705D5E90023083501E004CD12
:1003F0004B462046AFF30080D0E6FFE731060AD532
:1004000001462046ED1D25F00705D5E900230835F6
:10041000AFF30080C2E604CD01462046AFF3008072
:10042000BCE6ED1D25F00705D5E900120835CDE93C
:1004300002120146204602AAAFF30080AEE6ED1D8F
:1004400025F00705D5E900120835CDE9021201466D
:10045000204602AAAFF30080A0E6E06B04B0BDE83E
:10046000F09F7047704770475E10000070B50446FB
:10047000456B80693026C10600D42026C00709D10B
:1004800006E0E2693046616A9047E06B401CE06339
:100490006D1EF6D570BD70B50446456B8069C0070A
:1004A00009D006E0E269616A20209047E06B401CB9
:1004B000E0636D1EF6D570BD2DE9F04F07460D4681
:1004C000104689B0DFF8AC80F844582901D0A8F173
:1004D0001108B969090602D504461E4604E03946EA
:1004E000AFF30080002604460FF28C09B8694FF084
:1004F000000A010716D5702D04D10FF280094FF0C4
:10050000010A11E0002386EA030184EA030008439C
:100510000FD00FF26C09782D01D00FF268094FF05F
:10052000020A06E0702D04D140F02000B8610820D6
:10053000B86300250DF1040B0AE004F00F00240954
:1005400018F8000044EA06740BF805006D1C360923
:10055000002386EA030184EA03000843EDD14B46F9
:100560002A46384601A9CDF800A000F085F809B068
:10057000BDE8F08F880D0000000000004000000082
:1005800030780000305800000FB40A4A0A4910B50C
:1005900003AB7944029800F0C1F80446054800F026
:1005A000D7F820B14FF0FF3010BC5DF814FB2046A7
:1005B000FAE7000098000020F70A00007047744630
:1005C00000F02EF8A6460DB500F050F80400BDE886
:1005D0000D4011007047020010B50020AFF30080FD
:1005E00010BDAFF30080FFF7EAFF03B400F046F957
:1005F00003BC00F0E3F80FB400F045F90FBC00F0C5
:1006000057FD00F0D5F801B5AFF3008000F02DF9EB
:10061000BDE8014000F002F86FF0000000F0A8F81B
:10062000754600F0AFF8AE4605006946534620F027
:100630000700854618B020B5FFF796FDBDE82040BD
:100640004FF000064FF000074FF000084FF0000B8E
:1006500021F00701AC46ACE8C009ACE8C009ACE841
:10066000C009ACE8C0098D467047000001487047DA
:1006700070470000300100202DE9F047894604460C
:1006800015469A468169DDF82080880604D5A06B5E
:1006900021F01001A16100E001200027A84200DD47
:1006A000471B606B79194144401A6063A069C0061A
:1006B00002D42046FFF7DAFE002608E0E2691AF8C5
:1006C0000600616A9047E06B401C761CE06346457B
:1006D000F4DBA069C0060AD52046FFF7C7FE06E096
:1006E000E269616A30209047E06B401CE063381E8D
:1006F000A7F10107F4DC07E0E26919F80500616A77
:100700009047E06B401CE063281EA5F10105F3DC77
:100710002046FFF7C0FEBDE8F08700000FB5084691
:10072000194691B007900848099278440890002033
:100730000C90064878440A9011A80B906846FFF781
:1007400021FD15B000BD00005F0000006F0000003B
:1007500070B5044600F13C052846AFF30080E06820
:1007600000F080042846AFF30080204670BD0000F2
:1007700003494FF01800ABBE7047000013010000A2
:1007800026000200004870472001002070B5054691
:100790000C46164604E0EB6914F8010B696A9847A9
:1007A000B442F8D370BD01684A1C026008787047F3
:1007B0000446AFF300802046FFF725FF2DE9FE43F6
:1007C00004460D4600F024FD0020CDE90045102030
:1007D00000BF02906846FFF7C3FC04460D46DDE902
:1007E000000117461E46AFF30080AFF30080AFF361
:1007F000008000210846AFF30080804600F048F8F2
:1008000000218146C0F800800846AFF30080411CFB
:10081000C9F8041000210846AFF300800021C9F890
:1008200008000846AFF300800021C9F80C00084614
:10083000AFF30080C9F81000AFF30080AFF3008081
:10084000AFF30080AFF30080AFF30080AFF3008020
:10085000AFF30080AFF30080AFF3008003B0204619
:1008600029463A463346BDE8F08310B50020AFF381
:100870000080AFF30080AFF3008010BD6FF0000088
:100880006FF00201704710B5AFF3008010BD7047E4
:100890000148704770470000400100207047000089
:1008A000014870477047000024010020002981683A
:1008B00002D041F0010101E021F0010181607047A7
:1008C0000029816802D041F4807101E021F4807137
:1008D00081607047014689680020490700D50120E2
:1008E0007047C06C80B270470146896800200907D4
:1008F00000D501207047704730B542680E4B0C7927
:100900001A400B6842EA04221343436082680B4B8F
:100910004D791A40D1E9024342EA45022343134389
:100920008360C26A097C22F47002491EC9B242EA9D
:100930000151C16230BD0000FFFEF0FFFDF7F1FF85
:1009400070B5072609290AD9C568A1F10A0404EB84
:100950004404A640B543A3401D43C56007E00569B4
:1009600001EB4104A640B543A3401D4305611F238D
:10097000072A09D2446B521E02EB820293409C4329
:1009800091400C43446370BD0D2A09D2046BD21F01
:1009900002EB820293409C4391400C43046370BD80
:1009A000C46A0D3A02EB820293409C4391400C438F
:1009B000C46270BD816841F0080181607047002900
:1009C000816802D041F4A00101E021F4A00181601E
:1009D0007047816841F0040181607047704770473B
:1009E000704770477047704770477047704770474F
:1009F0000029016802D041F0010101E021F001016C
:100A0000016070470268002122F00102026001606B
:100A100041608160C160304B2F49C21A80399842D1
:100A200045D018DC2D4BA0EB0302984237D00ADCEE
:100A30002B4A80182BD014282DD0282826D148687E
:100A400040F4706036E0142A2DD0282A1ED1486860
:100A500040F470002EE0B2F56C7F32D00ADCB2F5C3
:100A6000627F29D0B2F5677F10D1D1F8040440F03D
:100A7000F00009E0B2F5717F28D0B2F5767F05D19C
:100A8000D1F8040440F47020C1F8040470474868A9
:100A900040F00F000EE0486840F0F0000AE04868BF
:100AA00040F4704006E0486840F4702002E0486876
:100AB00040F0706048607047D1F8040440F00F00C7
:100AC000E2E7D1F8040440F47060DDE7D1F80404F3
:100AD00040F47040D8E7000080000240440002402B
:100AE000F8FFFDBF70B5026847F6F0739A430E6ACF
:100AF0008B680C693343D1E905562C432343CC69F9
:100B000033432343D1E909542B4323431343036065
:100B1000CA6842600A6882604968C16070BD7047F7
:100B2000704770477047704770477047704770470D
:100B300004490A6822F010020A600A6802430A6047
:100B4000704700000020024004490A6802F03802A1
:100B50000A600A6802430A607047000000200240F1
:100B600038B51020ADF8000000208DF8030069466C
:100B70000E4800F01FF84FF40070ADF80000182088
:100B80008DF8030003200A4C8DF8020069462046C8
:100B900000F010F82015ADF8000004208DF80300D7
:100BA0006946204600F006F838BD000000100140FC
:100BB00000080140F0B5CB780022DC0603F00F03FB
:100BC00001D58C7823430C880F2714F0FF0F4FF0CA
:100BD000010C1CD0D0F800500E880CFA02F426400C
:100BE000A64210D1960007FA06FE25EA0E0E03FA79
:100BF00006F5CE7845EA0E05282E00D14461CE7860
:100C0000482E00D10461521C082AE5D305600A88E9
:100C1000FF2A1ED94568002202F108060CFA06F4E4
:100C20000E882640A64210D1960007FA06FE25EA55
:100C30000E0E03FA06F5CE7845EA0E05282E00D1F1
:100C40004461CE78482E00D10461521C082AE3D3B7
:100C50004560F0BD704770477047704770477047F8
:100C6000704700214FF00060AFF30080024A11404E
:100C7000014302480160704780FFFF1F08ED00E05C
:100C800070477047034A516821F440410143516065
:100C90007047000000100240044A0029516901D049
:100CA000014300E0814351617047000000100240A1
:100CB000044A0029916901D0014300E08143916118
:100CC000704700000010024010B500F045F84FF4E6
:100CD0008034204600F0D2F800F01AF91D4948701F
:100CE000C0B2012826D1002000F0BEF8002000F09C
:100CF000EBF8A01100F0DEF8A010FFF7C3FF022010
:100D0000FFF722FF1020FFF713FF4FF4E0112046FA
:100D100000F0EAF8012000F0E1F8392000F084F852
:100D20000028FAD0022000F0E9F800BF00F094F8A3
:100D30000828FBD101210846FFF7AEFF01214FF43F
:100D40000470FFF7B5FFBDE81040012144F2040034
:100D5000FFF7AEBF000000200B48016841F0010121
:100D600001604168094A114041600168084A114028
:100D70000160016821F4802101604268002122F4B1
:100D8000FE02426081607047001002400000FFF8E0
:100D9000FFFFF6FE30B5204A5168204B11F00C01E0
:100DA00003D0042901D0082901D0036011E0516863
:100DB000022401F4701104EB91415468184D14F4AD
:100DC000803F02D05468A40301D5694300E0594331
:100DD00001605168134B01F0F00109095C5C016886
:100DE000E1404160546804F4E064240A1C5D21FA87
:100DF00004F48460546804F46054E40A1B5DD94030
:100E0000C1605268074B02F44042920B1B1F9A5C70
:100E1000B1FBF2F1016130BD0010024000127A0016
:100E200000093D0022120008034600205909094A22
:100E3000012901D1116804E0022901D1116A00E001
:100E4000516A03F01F02012393400B4200D001209E
:100E500070470000001002400248406800F00C009B
:100E60007047000000100240034A516821F0F00171
:100E70000143516070470000001002400B490A68AE
:100E800022F480320A600A68B0F5803F22F48022A2
:100E90000A6007D0B0F5802F03D1086840F4A02085
:100EA00008607047086840F48030F9E7001002409D
:100EB00070470000034A516821F4E061014351602A
:100EC0007047000000100240034A516821F460514D
:100ED00041EAC000506070470010024001490866B6
:100EE0007047000000004242034B5A68084322F456
:100EF0007C1210435860704700100240034A51684A
:100F000021F00301014351607047000000100240CE
:100F100030B50B4C40F2FF153120FFF785FF2070F4
:100F20006068401C6060207810B96068A842F3D106
:100F30003120FFF779FF002800D0012030BD0000EC
:100F40000C0000207047704770477047704770472B
:100F500070477047704770477047704770477047D9
:100F600070477047704730B5028A4FF2FF031A404E
:100F70000B884D888C88C9882B430C43234313432B
:100F8000038230BD0029818902D041F4005101E083
:100F900021F400518181704730B589B000244FF4AD
:100FA0000070ADF80800114DADF80440ADF80640F2
:100FB000ADF80A4001A92846FFF7D5FF4FF4E1300C
:100FC0000390ADF814400C20ADF81040ADF81600B9
:100FD000ADF81240ADF8184003A9284600F008F813
:100FE00001212846FFF7CEFF09B030BD003801408F
:100FF00030B50446008A85B00D464CF6FF710840B6
:10100000E98801432182A0894EF6F3110840A9889E
:101010002A8911436A8902431143A181A08A4FF6AC
:10102000FF410840A9890143A1826846FFF7B2FE4B
:101030001048844201D1039800E0029819214843E6
:10104000296864228900B0FBF1F0B0FBF2F10901DC
:101050000B096FF018056B43322500EB830005EB9D
:101060000010B0FBF2F000F00F000843208105B043
:1010700030BD000000380140C1F308018180704795
:1010800070477047704770477047000010B50446BE
:10109000C1B20548FFF7F0FF044800BFB0F80018E0
:1010A0000906FBD5204610BD003801400030014044
:1010B0002DE9F041FFF708FEFFF7D3FDFFF750FDE4
:1010C000FFF76AFF36A0FFF75FFA434C2046FFF7B1
:1010D00099FC434841490160424900250126021D0F
:1010E00062C20561A115C0E905518900C1612021D5
:1010F00001620902C0E9091501462046FFF7F2FC2A
:1011000001212046FFF774FC35484FF46021143864
:10111000056006714671C0E90215DFF8C0800674EB
:101120000146A8F14C084046FFF7E6FB05230122E3
:101130000E214046FFF704FC01214046FFF7C0FBAB
:1011400001214046FFF7B2FB4046FFF733FC404623
:10115000FFF7CAFB0028FAD14046FFF73AFC4046A9
:10116000FFF7B8FB0028FAD101214046FFF727FC22
:101170001C4C1D4FA41E4046FFF7B3FB6060A268E5
:10118000511CA160BA4202D3A560267002E021780A
:101190000029F0D00146257014A0FFF7F5F9EAE721
:1011A0000D0A20555341525431207072696E7420DB
:1011B00041445F76616C7565202D2D2D2D2D2D2DD3
:1011C0002D2D2D2D2D2D2D2D2D2D2D2D2D2D2D2D4F
:1011D0002D2D2D200D0A0000080002404C24014056
:1011E0002800002002000020A0BB0D0054686520EC
:1011F00063757272656E742041442076616C75650A
:10120000203D20307825303458200D0A00000000A1
:1012100010B5FFF745FB4FF00001016010BD02045F
:10122000060800000000010203040102030406078F
:10123000080904000008000000000000000200018E
:10124000000010303132333435363738396162635B
:1012500064656600303132333435363738394142CF
:1012600043444546000000008812000800000020AA
:1012700014000000280100089C120008140000203F
:101280006C030000440100080000000000000000A2
:0C12900000000000000000000000000052
:00000001FF
