:0400000508000000EF
:020000040800F2
:10000000A002002065010008AD040008A10400085A
:10001000AB0400085B030008AD0900080000000005
:10002000000000000000000000000000F9060008C9
:100030006F03000800000000D3040008FB0600085E
:10004000AF090008D1040008FD060008F306000807
:100050007F0300085D0600087103000875030008AF
:1000600077030008790300087B0300086103000898
:1000700063030008650300086703000869030008BC
:100080006B0300086D03000859030008A909000864
:10009000AB0900085D0300085F0300087D0300084A
:1000A000FF0600080507000803070008010700080D
:1000B00007070008090700080B070008A504000847
:1000C000A3040008A9040008A7040008F506000816
:1000D000F7060008A1090008A3090008A5090008FF
:1000E00073030008F1060008A709000800F002F8F1
:1000F00000F05BF80AA090E8000C82448344AAF167
:100100000107DA4501D100F050F8AFF2090EBAE864
:100110000F0013F0010F18BFFB1A43F0010318473B
:100120006C0900008C090000103A24BF78C878C11F
:10013000FAD8520724BF30C830C144BF04680C60ED
:10014000704700000023002400250026103A28BF35
:1001500078C1FBD8520728BF30C148BF0B60704739
:1001600000F0F2B80348004703480449024A044B30
:1001700070470000ED000008A0000020A002002051
:10018000A00000207047744600F02EF8A6460DB57A
:1001900000F050F80400BDE80D4011007047020067
:1001A00010B50020AFF3008010BDAFF30080FFF763
:1001B000EAFF03B400F0B8F803BC00F055F80FB440
:1001C00000F0B7F80FBC00F0F3FB00F047F801B502
:1001D000AFF3008000F09FF8BDE8014000F002F8A6
:1001E0006FF0000000F02CF8754600F033F8AE46D2
:1001F00005006946534620F00700854618B020B533
:10020000FFF7B2FFBDE820404FF000064FF00007B7
:100210004FF000084FF0000B21F00701AC46ACE8AE
:10022000C009ACE8C009ACE8C009ACE8C0098D461B
:100230007047000001487047704700004C000020E4
:1002400003494FF01800ABBE70470000EF000000FC
:1002500026000200004870473C0000200446AFF32F
:1002600000802046FFF7B3FF2DE9FE4304460D460C
:1002700000F004FC0020CDE90045AFF300800290BF
:100280006846FFF76DFF04460D46DDE9000117469D
:100290001E46AFF30080AFF30080AFF30080002173
:1002A0000846AFF30080804600F048F80021814600
:1002B000C0F800800846AFF30080411CC9F8041064
:1002C00000210846AFF300800021C9F80800084665
:1002D000AFF300800021C9F80C000846AFF300809E
:1002E000C9F81000AFF30080AFF30080AFF30080D7
:1002F000AFF30080AFF30080AFF30080AFF3008076
:10030000AFF30080AFF3008003B0204629463A46A1
:100310003346BDE8F08310B50020AFF30080AFF3A3
:100320000080AFF3008010BD6FF000006FF002019D
:10033000704710B5AFF3008010BD7047014870479B
:10034000704700005C0000207047000001487047C3
:1003500070470000400000207047704770477047AA
:1003600070477047704770477047704770477047D5
:1003700070477047704770477047704770477047C5
:1003800004490A6822F010020A600A6802430A60FF
:10039000704700000020024004490A6802F0380259
:1003A0000A600A6802430A607047000000200240A9
:1003B00008B54FF47060ADF8000018208DF8030008
:1003C00003208DF8020069460B4800F019F84FF43D
:1003D0006040ADF800006946084800F011F84FF49D
:1003E0008050ADF8000004208DF8030069460348F2
:1003F00000F006F808BD000000080140000C0140B4
:10040000F0B5CB780022DC0603F00F0301D58C7821
:1004100023430C880F2714F0FF0F4FF0010C1CD062
:10042000D0F800500E880CFA02F42640A64210D1F3
:10043000960007FA06FE25EA0E0E03FA06F5CE78B8
:1004400045EA0E05282E00D14461CE78482E00D111
:100450000461521C082AE5D305600A88FF2A1ED9C8
:100460004568002202F108060CFA06F40E882640C0
:10047000A64210D1960007FA06FE25EA0E0E03FAF0
:1004800006F5CE7845EA0E05282E00D14461CE78D7
:10049000482E00D10461521C082AE3D34560F0BD08
:1004A000704770477047704770477047704710B586
:1004B00000214FF0006000F001F810BD024A114029
:1004C000014302480160704780FFFF1F08ED00E014
:1004D00070477047044A0029116901D0014300E0C8
:1004E000814311617047000000100240044A002956
:1004F000916901D0014300E08143916170470000A0
:1005000000100240044A0029D16801D0014300E0F4
:100510008143D160704700000010024010B500F028
:100520003BF84FF4803000F07FF800F0C7F819492D
:10053000087008460078012826D1002000F06AF8EB
:10054000002000F097F84FF4806000F089F8022056
:10055000FFF722FF1020FFF713FF4FF4E0114FF4D5
:10056000803000F097F8012000F08EF800BF3920AD
:1005700000F030F80028FAD0022000F095F800BF13
:1005800000F040F80828FBD1012140F60C00FFF7ED
:10059000ADFF10BD080000200B48016841F00101CB
:1005A00001604168094A114041600168084A1140F0
:1005B0000160016821F4802101604268002122F479
:1005C000FE02426081607047001002400000FFF8A8
:1005D000FFFFF6FE034600205909094A012901D10F
:1005E000116804E0022901D1116A00E0516A03F0A8
:1005F0001F02012393400B4200D0012070470000EE
:10060000001002400248406800F00C0070470000F3
:1006100000100240034A516821F0F001014351608B
:1006200070470000001002400B490A6822F4803233
:100630000A600A68B0F5803F22F480220A6007D081
:10064000B0F5802F03D1086840F4A02008607047FF
:10065000086840F48030F9E700100240704700005D
:10066000034A516821F4E061014351607047000082
:1006700000100240034A516821F4605141EAC00071
:100680005060704700100240014908667047000042
:1006900000004242034B5A68084322F47C12104384
:1006A0005860704700100240034A516821F003016E
:1006B00001435160704700000010024030B50B4C00
:1006C00040F2FF153120FFF785FF20706068401C65
:1006D0006060207810B96068A842F3D13120FFF73C
:1006E00079FF002800D0012030BD00000C00002060
:1006F0007047704770477047704770477047704742
:1007000070477047704770477047704730B50A8828
:100710004D888B88CC882A4323431A430D894B8903
:100720002A4389891A430A43A0F8442030BD00298E
:10073000018802D041F0010102E040F2FE32114096
:1007400001807047002930F8441F02D041F4004175
:1007500001E0C1F30E010180704700002A4A10B584
:10076000811A1315D41490423BD010DCB0F1804FA5
:1007700022D02649401826D098422BD0A04241D101
:1007800001210820FFF7A6FE0021082036E099424B
:100790002ED0B1F58E3F0DD0B1F5923F32D101216F
:1007A0004C032046FFF7AEFE2046BDE81040002176
:1007B000FFF7A8BE0121F4E701210846FFF78AFEF2
:1007C000002101201AE001210220FFF783FE002111
:1007D000022013E001210420FFF77CFE0021042009
:1007E0000CE001211020FFF775FE0021102005E02C
:1007F00001212020FFF76EFE00212020BDE81040DF
:10080000FFF768BE10BD00000010004000FCFFBFF5
:10081000F0B5028C22F001020284058C8288038BE1
:100820000C8823F070030E8925F002051C434B88C9
:100830002E43CF880C4D33438786A84202D00B4D00
:10084000A8420DD14D8923F008031D4325F004066D
:100850008B8822F4034533438E89CA892E43324361
:10086000828004830384F0BD002C014000340140E9
:1008700070B5028C22F010020284028C8388048BF3
:1008800022F0200224F4E0450C88164E240645EAA6
:1008900014440D892D0542EA15454A88120545EA9A
:1008A0001242CD88B042058702D00F4DA84215D123
:1008B0004D8922F080022D0542EA15458A8825F0EF
:1008C0004005120545EA12428D89C989AD0423F419
:1008D0000C4343EA1545890445EA114383800483A8
:1008E000028470BD002C01400034014070B5028CC0
:1008F00022F480720284058C8388828B0C8822F01B
:1009000070020E89144325F40075320645EA12463A
:100910004A88CD88120646EA1242104E8587B042B8
:1009200002D00F4DA84215D122F400654A8923F464
:100930003043120645EA124222F480658A88120684
:1009400045EA12428D89C9892D0543EA15450905F5
:1009500045EA114383808483028470BD002C0140EA
:100960000034014010B5028802F08F020280CA886C
:100970004B8804881A43224302808A88064C01234C
:1009800082850A88A0420285838202D0034A90426F
:1009900001D1097A018610BD002C014000340140CC
:1009A000704770477047704770477047704770478F
:1009B00010B5FFF7B3FDFFF7FBFCFFF778FD284804
:1009C000FFF7CCFE00202749088048804FF6FF70D3
:1009D00088800020C88008722148FFF7C3FF70207C
:1009E0002149088001204880042088801F48008811
:1009F000C8800220088108204881400188810020A9
:100A0000C8811748FFF704FF194800881649C880B5
:100A10001348FFF72DFF174800881349C880104876
:100A2000FFF764FF4FF400601349088040104880CE
:100A3000801088807520C8804FF480500881400065
:100A40004881400088810648FFF760FE0121044884
:100A5000FFF76DFE01210248FFF774FE00BFFEE7BD
:100A6000002C0140140000201E0000200200002085
:100A700004000020060000202E00002010B5FFF723
:100A800065FC4FF00001016010BD0000AC0A0008D9
:100A9000000000201400000028010008C00A00081F
:100AA000140000208C020000440100080000FF7FB9
:100AB000FF3FFF1F000000000000000000000000DA
:00000001FF
