:020000040800F2
:1000000010020020010100086D02000861020008D2
:100010006B0200082F0100087306000800000000B2
:100020000000000000000000000000001D050008A6
:100030004301000800000000930200081F050008AB
:100040007506000891020008210500081705000840
:100050005301000881040008450100084901000817
:100060004B0100084D0100084F0100083501000850
:1000700037010008390100083B0100083D01000874
:100080003F010008410100082D0100086F0600082B
:100090007106000831010008330100085101000811
:1000A0002305000829050008270500082505000884
:1000B0002B0500082D0500082F0500086502000823
:1000C00063020008690200086702000819050008B9
:1000D0001B05000831050008330500083505000838
:1000E00047010008150500086D060008DFF80CD070
:1000F00000F00AF800480047A50700081002002099
:1001000000480047ED000008064C074D06E0E06897
:1001100040F0010394E8070098471034AC42F6D34E
:10012000FFF7E8FF60080008800800087047704784
:100130007047704770477047704770477047704707
:1001400070477047704770477047704770477047F7
:100150007047704704490A6822F010020A600A6872
:1001600002430A60704700000020024004490A6808
:1001700002F038020A600A6802430A607047000011
:100180000020024008B54FF40070ADF800001820C0
:100190008DF8030003208DF802006946074800F03F
:1001A0000FF84FF48060ADF8000004208DF80300D4
:1001B0006946024800F004F808BD0000000801404C
:1001C000F0B5CB780022DC0603F00F0301D58C7864
:1001D00023430C880F2714F0FF0F4FF0010C1CD0A5
:1001E000D0F800500E880CFA02F42640A64210D136
:1001F000960007FA06FE25EA0E0E03FA06F5CE78FB
:1002000045EA0E05282E00D14461CE78482E00D153
:100210000461521C082AE5D305600A88FF2A1ED90A
:100220004568002202F108060CFA06F40E88264002
:10023000A64210D1960007FA06FE25EA0E0E03FA32
:1002400006F5CE7845EA0E05282E00D14461CE7819
:10025000482E00D10461521C082AE3D34560F0BD4A
:10026000704770477047704770477047704710B5C8
:1002700000214FF0006000F001F810BD024A11406B
:10028000014302480160704780FFFF1F08ED00E056
:1002900070477047044A0029916901D0014300E08A
:1002A00081439161704700000010024010B500F0DA
:1002B0003BF84FF4803000F0C9F800F011F919490B
:1002C000087008460078012826D1002000F0B4F814
:1002D000002000F0E1F84FF4806000F0D3F8022035
:1002E000FFF744FF1020FFF735FF4FF4E0114FF404
:1002F000803000F0E1F8012000F0D8F800BF39208C
:1003000000F07AF80028FAD0022000F0DFF800BFF1
:1003100000F08AF80828FBD1012144F20400FFF71D
:10032000B9FF10BD000000200B48016841F0010139
:1003300001604168094A114041600168084A114062
:100340000160016821F4802101604268002122F4EB
:10035000FE02426081607047001002400000FFF81A
:10036000FFFFF6FE30B5204A5168204B11F00C011A
:1003700003D0042901D0082901D0036011E051689D
:10038000022401F4701104EB91415468184D14F4E7
:10039000803F02D05468A40301D5694300E059436B
:1003A00001605168134B01F0F00109095C5C0168C0
:1003B000E1404160546804F4E064240A1C5D21FAC1
:1003C00004F48460546804F46054E40A1B5DD9406A
:1003D000C1605268074B02F44042920B1B1F9A5CAB
:1003E000B1FBF2F1016130BD0010024000127A0051
:1003F00000093D0050080008034600205909094A39
:10040000012901D1116804E0022901D1116A00E03B
:10041000516A03F01F02012393400B4200D00120D8
:1004200070470000001002400248406800F00C00D5
:100430007047000000100240034A516821F0F001AB
:100440000143516070470000001002400B490A68E8
:1004500022F480320A600A68B0F5803F22F48022DC
:100460000A6007D0B0F5802F03D1086840F4A020BF
:1004700008607047086840F48030F9E700100240D7
:1004800070470000034A516821F4E0610143516064
:100490007047000000100240034A516821F4605187
:1004A00041EAC000506070470010024001490866F0
:1004B0007047000000004242034B5A68084322F490
:1004C0007C1210435860704700100240034A516884
:1004D00021F0030101435160704700000010024009
:1004E00030B50B4C40F2FF153120FFF785FF20702F
:1004F0006068401C6060207810B96068A842F3D141
:100500003120FFF779FF002800D0012030BD000026
:10051000040000207047704770477047704770476D
:100520007047704770477047704770477047704713
:1005300070477047704730B5028A4FF2FF031A4088
:100540000B884D888C88C9882B430C432343134365
:10055000038230BD0029818902D041F4005101E0BD
:1005600021F400518181704700B587B00020ADF8BB
:100570000400ADF806004FF40070ADF8080000204C
:10058000ADF80A0001A90E48FFF7D5FF4FF4E1309E
:1005900003900020ADF81000ADF81200ADF8140083
:1005A000ADF818000C20ADF8160003A9044800F0BF
:1005B00011F801210248FFF7CDFF07B000BD000090
:1005C000003801400246128800200A4200D0012073
:1005D0007047000030B50446008A85B00D464CF6E1
:1005E000FF710840E98801432182A0894EF6F3118A
:1005F0000840A9882A8911436A8902431143A181CD
:10060000A08A4FF6FF410840A9890143A1826846AC
:10061000FFF7A8FE1048844201D1039800E0029839
:1006200019214843296864228900B0FBF1F0B0FB2E
:10063000F2F109010B096FF018056B43322500EB4D
:10064000830005EB0010B0FBF2F000F00F00084350
:10065000208105B030BD0000003801408088C0F323
:1006600008007047C1F308018180704770477047E8
:1006700070477047704700000FB410B503A9044BD2
:10068000044A029800F017F810BC5DF814FB000053
:10069000810700080C00002002E008C8121F08C1F2
:1006A000002AFAD170477047002001E001C1121FF3
:1006B000002AFBD170472DE9F84F0546924699462E
:1006C0008846002751E0252855D1002215F8010F52
:1006D00011462E2816D115F8010F04222A280AD116
:1006E00058F8041B6D1C0DE001EB810103EB410187
:1006F00001446D1C01E06FF02F032878A0F1300455
:10070000092CF1D9287898B363280AD0732832D1FC
:1007100058F8046B4FF0FF3052074FF0000413D528
:100720000AE058F8043B8DF8003000208DF80100F5
:100730006E460120F0E7641C8C420CDA8442FADB3E
:10074000325D002AF7D106E000E0641C8442FCDB45
:10075000315D0029F9D1274404E016F8010B514618
:100760004A469047641EF8D26D1C28780028AAD10A
:100770003846BDE8F88F51464A4690477F1CF3E75C
:1007800070B504460D46E1B20548FFF76BFF00BFA8
:1007900040210348FFF716FF0028F9D0204670BD1E
:1007A0000038014010B50024FFF780FDFFF75FFD22
:1007B000FFF7E8FCFFF7D8FE0BA0FFF75DFF15A0E1
:1007C000FFF75AFF0EE040F225511D48FFF7FAFEF1
:1007D000012807D11A48FFF741FF0446E1B219A0EA
:1007E000FFF74AFFEFE700000D0A2057656C636FC3
:1007F0006D6520746F20575548414E205226442085
:1008000043656E7465722C456D6265737420200DAE
:100810000A0000000D0A20506C6561736520496E66
:1008200070757420436861726163746572204672EA
:100830006F6D204B6579626F617264200D0A000054
:100840000038014020202563000000000204060853
:100850000000000001020304010203040607080966
:100860008008000800000020100000009806000822
:10087000900800081000002000020000A8060008F0
:100880000000000000000000000000000000000068
:04000005080000ED02
:00000001FF
