:0400000508000000EF
:020000040800F2
:100000003803002065010008F9090008ED0900081F
:10001000F7090008BB080008F30D00080000000005
:10002000000000000000000000000000A10C00081B
:10003000CF080008000000001B0A0008A30C0008FD
:10004000F50D0008190A0008A50C00089B0C000813
:10005000DF080008050C0008D1080008D5080008D2
:10006000D7080008D9080008DB080008C108000804
:10007000C3080008C5080008C7080008C908000828
:10008000CB080008CD080008B9080008EF0D0008EB
:10009000F10D0008BD080008BF080008DD080008D1
:1000A000A70C0008AD0C0008AB0C0008A90C000858
:1000B000AF0C0008B10C0008B30C0008F1090008EF
:1000C000EF090008F5090008F30900089D0C000875
:1000D0009F0C0008B50C0008B70C0008B90C00080C
:1000E000D3080008990C0008ED0D000800F002F894
:1000F00000F07DFA0AA090E8000C82448344AAF143
:100100000107DA4501D100F072FAAFF2090EBAE840
:100110000F0013F0010F18BFFB1A43F0010318473B
:10012000A4110000C4110000103A24BF78C878C19F
:10013000FAD8520724BF30C830C144BF04680C60ED
:10014000704700000023002400250026103A28BF35
:1001500078C1FBD8520728BF30C148BF0B60704739
:1001600000F0A2BB0348004703480449024A044B7D
:1001700070470000ED00000838010020380300201F
:10018000380100202DE9FF5F4FF0000904460D46BD
:100190004FF0010A4FF0800BC0F83C90E06A07680E
:1001A000B84604E0E06AE16B0768491CE163A16AB4
:1001B0008847060001D0252EF4D1B84504D03A4630
:1001C00041462046236A9847002E70D0A64F00264D
:1001D0007F44D4E90A108847202807DB312805D25C
:1001E000391811F8201C09B10E43F2E7C4F8389011
:1001F0000027C4F834902A280ED101CD04EB8701E2
:100200004863D4E90A108847012F26D1A16B002941
:100210002DDA26F020062AE0A0F130010A291AD2B0
:10022000BAF1000F17D004EB8708C8F8341008E0C3
:10023000D8F8341001EB810100EB41003038C8F8E8
:100240003400D4E90A108847A0F130010A2902D20B
:10025000BAF1000FECD1012F09D02E2807D1D4E933
:100260000A1088477F1C022F46F02006C3DB616B13
:10027000002903DA494246F001066163F10701D023
:1002800026F01006B10701D526F004066C2801D02F
:10029000682813D10746D4E90A108847B84207D125
:1002A00058466C2F01D04FF48060064316E08CE076
:1002B00040216C2F00D089000E4312E04C2805D05D
:1002C0006A2803D0742801D07A280AD149464C28DC
:1002D00003D059466A2800D000210E43D4E90A1001
:1002E00088476528A6616FD014DC4728FBD008DC5E
:1002F00000286AD0412869D04528F4D04628F2D099
:100300001CE0582857D06128F5D063281DD06428F8
:1003100074D013E06F2861D008DC6628E3D067282A
:100320007FD069286AD06E2839D007E0702842D083
:1003300073281BD0752861D078283CD0E269616AA7
:100340009047E06B401CE06328E70122700606D569
:10035000ADF8069001CD01A9ADF804000BE08DF8D1
:100360000190694601CD8DF800000EE002CD4FF0FE
:10037000FF32700609D5206B0028204602D0AFF36B
:1003800000800BE7AFF3008008E7206B00282046D1
:1003900002D0AFF3008001E700F068F8FEE67005D8
:1003A00004D4F00502D4300600D47006204602CDF5
:1003B000AFF30080F2E6310609D5ED1D25F0070503
:1003C000D5E90023083504E02BE046E037E004CD12
:1003D0004B460146204600F075F8DFE6300606D5AC
:1003E000ED1D25F00705D5E90023083501E004CD12
:1003F0004B462046AFF30080D0E6FFE731060AD532
:1004000001462046ED1D25F00705D5E900230835F6
:10041000AFF30080C2E604CD01462046AFF3008072
:10042000BCE6ED1D25F00705D5E900120835CDE93C
:1004300002120146204602AAAFF30080AEE6ED1D8F
:1004400025F00705D5E900120835CDE9021201466D
:10045000204602AAAFF30080A0E6E06B04B0BDE83E
:10046000F09F704770477047BC10000070B505469C
:100470000E464FF00004806980060AD5A86B00E0A4
:10048000641CA0420CDD9442FADB315D0029F7D1F7
:1004900006E000E0641C9442FCDB305D0028F9D1EA
:1004A000686B001B68632846AFF300802B6A3146F7
:1004B000284632199847E86B2044E8632846AFF392
:1004C000008070BD2DE9F04F07460D46104689B0FB
:1004D000DFF8AC80F844582901D0A8F11108B969B7
:1004E000090602D504461E4604E03946AFF30080F3
:1004F000002604460FF28C09B8694FF0000A010784
:1005000016D5702D04D10FF280094FF0010A11E0C9
:10051000002386EA030184EA030008430FD00FF2A8
:100520006C09782D01D00FF268094FF0020A06E03D
:10053000702D04D140F02000B8610820B863002578
:100540000DF1040B0AE004F00F00240918F8000074
:1005500044EA06740BF805006D1C3609002386EA90
:10056000030184EA03000843EDD14B462A4638468E
:1005700001A9CDF800A000F085F809B0BDE8F08F22
:10058000DA0D00000000000040000000307800009C
:10059000305800000FB40A4A0A4910B503AB794439
:1005A000029800F0C1F80446054800F0D7F820B1E1
:1005B0004FF0FF3010BC5DF814FB2046FAE7000056
:1005C00050000020D70800007047744600F02EF855
:1005D000A6460DB500F050F80400BDE80D4011002E
:1005E0007047020010B50020AFF3008010BDAFF3DC
:1005F0000080FFF7EAFF03B400F046F903BC00F007
:10060000E3F80FB400F045F90FBC00F047FC00F030
:10061000D5F801B5AFF3008000F02DF9BDE8014039
:1006200000F002F86FF0000000F0A8F8754600F046
:10063000AFF8AE4605006946534620F007008546F0
:1006400018B020B5FFF790FDBDE820404FF0000640
:100650004FF000074FF000084FF0000B21F00701AA
:10066000AC46ACE8C009ACE8C009ACE8C009ACE8ED
:10067000C0098D4670470000014870477047000070
:10068000E80000202DE9F0478946044615469A46C1
:100690008169DDF82080880604D5A06B21F0100167
:1006A000A16100E001200027A84200DD471B606B2C
:1006B00079194144401A6063A069C00602D42046FB
:1006C000AFF30080002608E0E2691AF80600616ACC
:1006D0009047E06B401C761CE0634645F4DBA06964
:1006E000C0060AD52046AFF3008006E0E269616AE1
:1006F00030209047E06B401CE063381EA7F10107F3
:10070000F4DC07E0E26919F80500616A9047E06BE4
:10071000401CE063281EA5F10105F3DC2046AFF381
:100720000080BDE8F08700000FB50846194691B07B
:100730000790084809927844089000200C900648D9
:1007400078440A9011A80B906846FFF71BFD15B07E
:1007500000BD00005F0000006F00000070B504469F
:1007600000F13C052846AFF30080E06800F080040B
:100770002846AFF30080204670BD000003494FF0CB
:100780001800ABBE704700001301000026000200F5
:1007900000487047D800002070B505460C46164644
:1007A00004E0EB6914F8010B696A9847B442F8D386
:1007B00070BD01684A1C0260087870470446AFF3B8
:1007C00000802046FFF725FF2DE9FE4304460D4635
:1007D00000F024FD0020CDE90045102000BF02906C
:1007E0006846FFF7BDFC04460D46DDE900011746EB
:1007F0001E46AFF30080AFF30080AFF3008000210E
:100800000846AFF30080804600F048F8002181469A
:10081000C0F800800846AFF30080411CC9F80410FE
:1008200000210846AFF300800021C9F808000846FF
:10083000AFF300800021C9F80C000846AFF3008038
:10084000C9F81000AFF30080AFF30080AFF3008071
:10085000AFF30080AFF30080AFF30080AFF3008010
:10086000AFF30080AFF3008003B0204629463A463C
:100870003346BDE8F08310B50020AFF30080AFF33E
:100880000080AFF3008010BD6FF000006FF0020138
:10089000704710B5AFF3008010BD70470148704736
:1008A00070470000F80000207047000001487047C2
:1008B00070470000DC0000207047704770477047A9
:1008C0007047704770477047704770477047704770
:1008D0007047704770477047704770477047704760
:1008E00004490A6822F010020A600A6802430A609A
:1008F000704700000020024004490A6802F03802F4
:100900000A600A6802430A60704700000020024043
:1009100038B54FF40070ADF8000018208DF80300D2
:100920000320094C8DF802006946204600F00EF8BD
:100930002015ADF8000004208DF80300694620461C
:1009400000F004F838BD000000080140F0B5CB7895
:100950000022DC0603F00F0301D58C7823430C88BA
:100960000F2714F0FF0F4FF0010C1CD0D0F80050EF
:100970000E880CFA02F42640A64210D1960007FA1F
:1009800006FE25EA0E0E03FA06F5CE7845EA0E05B8
:10099000282E00D14461CE78482E00D10461521C2B
:1009A000082AE5D305600A88FF2A1ED94568002277
:1009B00002F108060CFA06F40E882640A64210D171
:1009C000960007FA06FE25EA0E0E03FA06F5CE7823
:1009D00045EA0E05282E00D14461CE78482E00D17C
:1009E0000461521C082AE3D34560F0BD704770478C
:1009F0007047704770477047704700214FF00060A4
:100A0000AFF30080024A1140014302480160704781
:100A100080FFFF1F08ED00E070477047044A00297F
:100A2000916901D0014300E081439161704700006A
:100A30000010024010B500F039F84FF48034204621
:100A400000F0C6F800F00EF917490870C0B201288E
:100A500022D1002000F0B2F8002000F0DFF8A01151
:100A600000F0D2F80220FFF747FF1020FFF738FF11
:100A70004FF4E011204600F0E1F8012000F0D8F832
:100A8000392000F07BF80028FAD0022000F0E0F8CE
:100A900000F08CF80828FBD1BDE81040012144F299
:100AA0000400FFF7BBBF0000000000200B480168F6
:100AB00041F0010101604168094A1140416001684B
:100AC000084A11400160016821F4802101604268F8
:100AD000002122F4FE024260816070470010024053
:100AE0000000FFF8FFFFF6FE30B5204A5168204BAA
:100AF00011F00C0103D0042901D0082901D00360B2
:100B000011E05168022401F4701104EB9141546822
:100B1000184D14F4803F02D05468A40301D56943F2
:100B200000E0594301605168134B01F0F0010909DD
:100B30005C5C0168E1404160546804F4E064240AAC
:100B40001C5D21FA04F48460546804F46054E40ADF
:100B50001B5DD940C1605268074B02F44042920BC2
:100B60001B1F9A5CB1FBF2F1016130BD0010024025
:100B700000127A0000093D008012000803460020A0
:100B80005909094A012901D1116804E0022901D15A
:100B9000116A00E0516A03F01F02012393400B42E7
:100BA00000D0012070470000001002400248406859
:100BB00000F00C007047000000100240034A51682A
:100BC00021F0F00101435160704700000010024025
:100BD0000B490A6822F480320A600A68B0F5803F47
:100BE00022F480220A6007D0B0F5802F03D1086874
:100BF00040F4A02008607047086840F48030F9E7AE
:100C00000010024070470000034A516821F4E0617F
:100C1000014351607047000000100240034A5168D0
:100C200021F4605141EAC00050607047001002405A
:100C3000014908667047000000004242034B5A68B1
:100C4000084322F47C1210435860704700100240A1
:100C5000034A516821F003010143516070470000CD
:100C60000010024030B50B4C40F2FF153120FFF769
:100C700085FF20706068401C6060207810B9606853
:100C8000A842F3D13120FFF779FF002800D00120DE
:100C900030BD000004000020704770477047704767
:100CA000704770477047704770477047704770478C
:100CB0007047704770477047704730B5028A4FF2EF
:100CC000FF031A400B884D888C88C9882B430C433E
:100CD00023431343038230BD0029818902D041F4AC
:100CE000005101E021F400518181704730B589B095
:100CF00000244FF40070ADF80800114DADF8044029
:100D0000ADF80640ADF80A4001A92846FFF7D5FF27
:100D10004FF4E1300390ADF814400C20ADF81040D2
:100D2000ADF81600ADF81240ADF8184003A92846FA
:100D300000F010F801212846FFF7CEFF09B030BDC2
:100D4000003801400246128800200A4200D00120EB
:100D50007047000030B50446008A85B00D464CF659
:100D6000FF710840E98801432182A0894EF6F31102
:100D70000840A9882A8911436A8902431143A18145
:100D8000A08A4FF6FF410840A9890143A182684625
:100D9000FFF7AAFE1048844201D1039800E00298B0
:100DA00019214843296864228900B0FBF1F0B0FBA7
:100DB000F2F109010B096FF018056B43322500EBC6
:100DC000830005EB0010B0FBF2F000F00F000843C9
:100DD000208105B030BD0000003801408088C0F39C
:100DE00008007047C1F30801818070477047704761
:100DF000704770477047000030B40578012404FA4A
:100E000001F31D43E9B20170156825B199430170E2
:100E10001168012901D10CA012E01460017803B11E
:100E200000242142F7D1002111600178012B01D16A
:100E3000012000E00020014201D007A000E009A04D
:100E400030BCFFF7A7BB00000A20746573742066EE
:100E500061696C210A000000746573742066616921
:100E60006C210A000A2074657374207375636365CE
:100E7000737366756C210A0070B5074D0446C1B2E4
:100E80002846FFF7AFFF40212846FFF75BFF002809
:100E9000F9D0204670BD0000003801402DE9F04136
:100EA000FFF7C8FDFFF7A9FDFFF732FDFFF71EFFB3
:100EB00032A0FFF76FFB32A0FFF76CFB35A0FFF706
:100EC00069FB41A0FFF766FB4CA0FFF763FB584F9F
:100ED00040F2255657A0FFF75DFB31463846FFF735
:100EE00031FF0028F9D03846FFF778FFC4B2214619
:100EF00059A0FFF74FFB302C07D0312C36D0322CC5
:100F00003AD156A0FFF746FB35E05848FFF742FBC1
:100F100000F01AF905464FF4801408E054A0FFF7DA
:100F200039FB5248FFF736FB00F00EF90546A5F1F4
:100F30000050A042F2D257A0FFF72CFB00F004F9BA
:100F40000446072803D94AA0FFF724FBF3E768010A
:100F500000EB840808F1085841465DA0FFF71AFB32
:100F6000424621462846FFF747FFB3E75EA000BF91
:100F7000FFF710FBAEE7FEE76AA0F9E70A00000002
:100F80000A20626F6F742073756363657373212029
:100F90000A0000000A202F2A2A2030206D61656E89
:100FA000732074657374206269742D62616E646964
:100FB0006E67206F66205352414D20202020202054
:100FC0002020202A2A2F0A000A202F2A2A20312016
:100FD0006D61656E732074657374206269742D622F
:100FE000616E64696E67206F662050657269706813
:100FF0006572616C7320202A2A2F0A000A202F2A8A
:101000002A2032206D61656E7320746F20657869C7
:10101000742120202020202020202020202020207B
:1010200020202020202020202020202A2A2F0A00D3
:10103000003801400A20506C6561736520696E704C
:10104000757420796F75722063686F6963652030ED
:101050002F312F323A00000025630A000A20544540
:101060005354204F56455221200A00002C120008EC
:101070000A20496E707574204552524F5221506CAF
:101080006561736520696E70757420616761696E52
:10109000210A00000A20506C6561736520696E703A
:1010A00075742074686520626974206F66206269B7
:1010B000742D62616E64696E6720726567696F6E18
:1010C000285352414D2928302D2D37293A307800A8
:1010D00020616C69615F61646472657373203D2097
:1010E000307825580A000000596F75206D757374AB
:1010F000206769766520636C6F636B20746F20795D
:101100006F7572207465737420706572697068659C
:1011100072616C20617265612066697273746C79AA
:10112000210A00000A20496E707572204552524F04
:101130005221506C6561736520696E707574206111
:101140006761696E210A00002DE9F04389B000242F
:10115000DFF89C80264640F225596F4649464046B6
:10116000FFF7F0FD0128F9D14046FFF737FE0546AD
:10117000C1B220A0FFF70EFA0D2D27D1761E002256
:101180001EE00120002101E00001491CB142FBDB0F
:1011900057F82210A1F13003092B02D803FB0044B9
:1011A0000CE0A1F16103052B01D8573904E0A1F14E
:1011B0004103052B02D8373901FB0044761E521C2F
:1011C000002EDEDA204609B0BDE8F083A5F130003C
:1011D000092805D93138052802D92030052803D837
:1011E00047F82650761CB9E703A0FFF7D3F9B5E717
:1011F00000380140256300000A20496E7075742094
:101200004552524F5221506C6561736520696E7072
:10121000757420616761696E0A00000010B5FFF700
:1012200045FB4FF00001016010BD00000A20506C2A
:101230006561736520696E707574207468652061DE
:10124000646472657373206F66206269742D6261D5
:101250006E64696E6720726567696F6E28535241CC
:101260004D292832303030303030302D2D32303072
:101270004646464646293A307800000002040608F1
:10128000000000000102030401020304060708092C
:10129000040000080000000000000002000100003F
:1012A0001030313233343536373839616263646532
:1012B00066003031323334353637383941424344B1
:1012C00045460000E4120008000000200C00000069
:1012D00028010008F01200080C0000202C03000078
:1012E00044010008000000000000000000000000B1
:00000001FF
