:0400000508000000EF
:020000040800F2
:100000007002002065010008D9060008CD0600082E
:10001000D7060008E5030008590D0008000000009D
:10002000000000000000000000000000610C00085B
:10003000F90300080000000069080008A90C000886
:100040005B0D0008090800083D0D0008CD0B0008F5
:1000500069050008E1090008290400082D040008CA
:100060002F0400083104000833040008EB030008E3
:10007000ED030008EF030008F1030008F303000894
:10008000F5030008F7030008D1030008550D000828
:10009000570D0008E7030008E903000835040008CD
:1000A0003F0D0008450D0008430D0008410D0008F4
:1000B000470D0008490D00084B0D0008D106000847
:1000C000CF060008D5060008D30600085D0C00081E
:1000D0005F0C00084D0D00084F0D0008510D000881
:1000E0002B040008B10A0008530D000800F002F8C4
:1000F00000F098F80AA090E8000C82448344AAF12A
:100100000107DA4501D100F08DF8AFF2090EBAE827
:100110000F0013F0010F18BFFB1A43F0010318473B
:10012000E40C0000040D0000103A24BF78C878C128
:10013000FAD8520724BF30C830C144BF04680C60ED
:10014000704700000023002400250026103A28BF35
:1001500078C1FBD8520728BF30C148BF0B60704739
:1001600000F02EB90348004703480449024A044BF3
:1001700070470000ED0000087000002070020020B1
:100180007000002030BF704720BF704740BF7047ED
:10019000BFF36F8F7047BFF34F8F7047BFF35F8F11
:1001A000704701DF7047EFF31480704780F31488C5
:1001B000BFF36F8F7047EFF30980704780F30988B2
:1001C0007047EFF30880704780F30888704762B685
:1001D000704772B67047EFF31080704771B6704782
:1001E00061B67047EFF31380704780F31188704752
:1001F000EFF31280704740BA704700BA70477047FB
:10020000744600F02EF8A6460DB500F04FF8040035
:10021000BDE80D4011007047020010B50020AFF39B
:10022000008010BDAFF30080FFF7EAFF03B400F0D9
:10023000B7F803BC00F054F80FB400F0B6F80FBCE8
:1002400000F08CFD00F046F801B5AFF3008000F03F
:100250009EF8BDE8014000F002F86FF0000000F0E9
:100260002BF8754600F032F8AE4605006946534655
:1002700020F00700854618B020B5FFF775FFBDE8F0
:1002800020404FF000064FF000074FF000084FF0FD
:10029000000B21F00701AC46ACE8C009ACE8C0098E
:1002A000ACE8C009ACE8C0098D467047014870470A
:1002B000704700002000002003494FF01800ABBE3B
:1002C00070470000EF000000260002000048704761
:1002D000100000200446AFF300802046FFF7B4FF73
:1002E0002DE9FE4304460D4600F084FD0020CDE9D3
:1002F0000045AFF3008002906846FFF731FF0446E7
:100300000D46DDE9000117461E46AFF30080AFF34E
:100310000080AFF3008000210846AFF300808046E4
:1003200000F048F800218146C0F800800846AFF38D
:100330000080411CC9F8041000210846AFF300807A
:100340000021C9F808000846AFF300800021C9F871
:100350000C000846AFF30080C9F81000AFF300802E
:10036000AFF30080AFF30080AFF30080AFF3008005
:10037000AFF30080AFF30080AFF30080AFF30080F5
:1003800003B0204629463A463346BDE8F08310B50F
:100390000020AFF30080AFF30080AFF3008010BD0A
:1003A0006FF000006FF00201704710B5AFF30080EE
:1003B00010BD7047014870477047000030000020B2
:1003C000704700000148704770470000140000208B
:1003D000704710B5012000F061FABDE81040002020
:1003E00000F05CBA704770477047704770477047BD
:1003F00070477047704770477047000010B504465B
:10040000012000F079FC0748046000BF054800683F
:100410000028FBD16FF0010000F06EFC002000F01E
:100420006BFC10BD04000020704770477047704798
:100430007047704710B54FF4007000F041F878B184
:100440008021084800F032F9C0F10100C4B2224610
:100450008021044800F035F94FF4007000F004F8F2
:1004600010BD000000100140014908607047000005
:10047000140401401CB50921012000F0B3F84FF429
:100480000070FFF7F1FF4FF40070009000208DF82E
:1004900004000C208DF8050001208DF80600684648
:1004A00000F01CF84FF40030FFF7DEFF4FF400308F
:1004B000009008208DF80500684600F00FF81CBD7C
:1004C000054B01461A6800205B690A400B4202D0C6
:1004D000002A00D0012070470004014010B5837944
:1004E00020490268A3B3D1F800349343C1F8003423
:1004F000D1F8042403689A43C1F8042402790468FB
:100500000A44D2F800342343C2F80034D1F8082456
:1005100003689A43C1F80824D1F80C2403689A436D
:10052000C1F80C244279102A0AD101F581610A68C8
:1005300003681A430A604A68006802434A6010BDB3
:100540001144D1F8002400680243C1F8002410BD12
:10055000FFE700790844D0F800149143C0F8001474
:10056000F5E70000000001407047000004490A68F8
:1005700022F010020A600A6802430A607047000015
:100580000020024004490A6802F038020A600A6842
:1005900002430A60704700000020024008B50121B4
:1005A000192000F06FF94FF47070ADF800000320CF
:1005B0008DF8020010208DF803006946074800F00E
:1005C00025F84FF40070ADF8000004208DF803000A
:1005D0006946034800F01AF808BD00000010014009
:1005E000000C014010B58A0721F003040649120FE0
:1005F00021440F238C6893409C438C608B6890400F
:1006000003438B6010BD000000000140F0B5CB78C3
:100610000022DC0603F00F0301D58C7823430C88FD
:100620000F2714F0FF0F4FF0010C1CD0D0F8005032
:100630000E880CFA02F42640A64210D1960007FA62
:1006400006FE25EA0E0E03FA06F5CE7845EA0E05FB
:10065000282E00D14461CE78482E00D10461521C6E
:10066000082AE5D305600A88FF2A1ED945680022BA
:1006700002F108060CFA06F40E882640A64210D1B4
:10068000960007FA06FE25EA0E0E03FA06F5CE7866
:1006900045EA0E05282E00D14461CE78482E00D1BF
:1006A0000461521C082AE3D34560F0BD0246D268BB
:1006B00000200A4200D0012070474161704701616B
:1006C00070470AB1016170474161704770477047D8
:1006D0007047704770477047704708B500214FF06A
:1006E000006000F061F84FF4A06000F053F829209A
:1006F0008DF8000000208DF801008DF80200012027
:100700008DF80300684600F00AF817208DF8000005
:1007100001208DF80100684600F001F808BDF0B531
:100720000F23C27801784FF0E024012742B3D4F8B8
:100730000C2D467802F4E062C2F5E062120AC2F1C2
:100740000405D3408278AE401A40324315018A072F
:10075000D20E954021F003010B19D3F80064FF215C
:1007600091408E430D402E43C3F800640078410948
:1007700000F01F0004EB81018740C1F80071F0BD5B
:1007800001F01F008740480904EB8000C0F8807129
:10079000F0BD0000024908430249086070470000AC
:1007A0000000FA050CED00E0024A11400143024846
:1007B0000160704780FFFF1F08ED00E070B54FF04B
:1007C000E026D6F80C3DFF2403F4E063C3F5E063B4
:1007D0001B0ADC40C3F10405A94022400A43110171
:1007E00000F0C0029209C0F30120C0008140FF2345
:1007F000834006EB820000F6185002689A430260BC
:1008000002680A43026070BD704700000149086237
:100810007047000000000E4202490A6842EA800068
:100820000860704700700040084B1A6822F003020D
:1008300002431A6006480268012942F0040101607F
:1008400001D1FFF79FBCFFF79FBC00000070004084
:1008500010ED00E00349024649680020114200D033
:10086000012070470070004070470000044A0029D2
:10087000D16901D0014300E08143D161704700009C
:1008800000100240044A0029916901D0014300E0B0
:1008900081439161704700000010024001490860E7
:1008A000704700004004424210B500F037F84FF4A2
:1008B000803000F07BF800F0E1F817490870084636
:1008C0000078012826D1002000F066F8002000F012
:1008D000A3F84FF4806000F095F80220FFF752FE75
:1008E0001020FFF743FE4FF4E0114FF4803000F08A
:1008F000A3F8012000F09AF800BF392000F02CF88E
:100900000028FAD0022000F0AFF800BF00F03CF859
:100910000828FBD110BD0000000000200B48016832
:1009200041F0010101604168094A114041600168DC
:10093000084A11400160016821F480210160426889
:10094000002122F4FE0242608160704700100240E4
:100950000000FFF8FFFFF6FE034600205909094A90
:10096000012901D1116804E0022901D1116A00E0D6
:10097000516A03F01F02012393400B4200D0012073
:1009800070470000001002400248406800F00C0070
:100990007047000000100240034A516821F0F00146
:1009A0000143516070470000001002400B490A6883
:1009B00022F480320A600A68B0F5803F22F4802277
:1009C0000A6007D0B0F5802F03D1086840F4A0205A
:1009D00008607047086840F48030F9E70010024072
:1009E00070470000064900220A7001F820290128FA
:1009F00002D0042802D1052081F8200070470000B1
:100A000020100240034A516821F4E0610143516023
:100A10007047000000100240034A516821F4605101
:100A200041EAC0005060704700100240014908666A
:100A30007047000000004242034B5A68084322F40A
:100A40007C12104358607047001002400149086052
:100A5000704700003C04424202490A6A02430A62AB
:100A60007047000000100240034A516821F0030162
:100A700001435160704700000010024030B50B4C3C
:100A800040F2FF153120FFF767FF20706068401CBF
:100A90006060207810B96068A842F3D13120FFF778
:100AA0005BFF002800D0012030BD000008000020BE
:100AB00010B5022000F07CF8F8B14FF480710F48B7
:100AC000FFF7F4FDC0F10100C4B222464FF480717B
:100AD0000A48FFF7F6FD4FF40030FFF7C5FC012090
:100AE000FFF7B8FE10B10120FFF796FE00F09CF86A
:100AF000022000F00DF800F097F810BD0010014042
:100B0000024A118881431180704700000428004088
:100B1000024A118881431180704700000428004078
:100B200010B50120FFF772FEFFF753FC0120FFF71D
:100B300059FF00BF4120FFF70FFF0028FAD04FF404
:100B40008070FFF789FF0120FFF780FF00F076F843
:100B500047F6FF7000F058F800F066F80121022017
:100B600000F036F800F060F810BD0000024801887F
:100B700041F01001018070470428004002480188BC
:100B800021F0100101807047042800400249888844
:100B9000098840EA0140704718280040034902468E
:100BA00009880020114200D001207047042800402D
:100BB000054A918812880140C9B2024202D009B1A7
:100BC0000120704700207047002800407047000057
:100BD000054A0029B2F8001801D0014300E0814322
:100BE000A2F80018704700000020004000B502463F
:100BF000FFF7BCFF0348110C018082805DF804EB15
:100C0000FFF7BCBF2028004000B50246FFF7AEFF4B
:100C10000448C2F30341018082805DF804EBFFF7D2
:100C2000ADBF000008280040034800BFB0F804181A
:100C30008906FBD570470000002000400648B0F848
:100C4000041821F00801A0F8041800BFB0F8041837
:100C50000907FBD57047000000200040704770472F
:100C60007047000010B54FF48030FFF79FFEFFF78C
:100C700005FF0C49087008460078012810D10120B2
:100C8000FFF7D4FE00BF3920FFF766FE0028FAD038
:100C90000220FFF7E9FE00BFFFF776FE0828FBD130
:100CA00010BD00000000002002480068401E0149FD
:100CB00008607047040000204FF0E0210428086914
:100CC00002D140F0040001E020F004000861704708
:100CD00010B50420FFF7F0FF002203210448FFF7BE
:100CE0006DFD044800F026F8012000F017F810BD53
:100CF0009AC30200401901004FF0E021012803D1FE
:100D0000086940F0010004E0801C04D1086920F06B
:100D10000100086170470020886170474FF0E021B2
:100D20000028086902D040F0020001E020F0020033
:100D3000086170474FF0E021486170477047704785
:100D400070477047704770477047704770477047EB
:100D500070477047704770477047704710B5FFF78E
:100D6000A3FD01214FF0C050FFF780FDFFF716FCF7
:100D7000FFF780FBFFF7D4FEFFF7AFFCFFF7A8FFFC
:100D800040211B48FFF79BFC4FF400711848FFF708
:100D900094FC2CE04FF4FA60FFF730FB0120FFF7E2
:100DA000AFFE00BF0120FFF7F9FE0028FAD0FFF7E1
:100DB000EDFEC41C2046FFF719FFFFF735FF4FF487
:100DC00000710B48FFF77BFC40210948FFF775FCD9
:100DD00001210020FFF728FD40210548FFF76FFCA7
:100DE000FFF740FF4FF400710148FFF766FCD1E7C1
:100DF0000010014010B5FFF7E5FA4FF00001016067
:100E000010BD0000240E00080000002010000000AB
:100E100028010008340E00081000002060020000C5
:100E20004401000800000000000000000000000075
:040E300000000000BE
:00000001FF
