:020000040800F2
:10000000F042002001010008050100080701000876
:10001000090100080B0100080D01000800000000A4
:1000200000000000000000000000000011010008B6
:100030000F010008000000008F190008E503000808
:100040000304000805040008070400080904000868
:1000500061040008630400086504000867040008E0
:10006000690400086B0400086D040008B10400086E
:10007000B3040008B5040008B7040008B904000878
:10008000BB040008BD040008BF040008C104000848
:10009000C3040008C5040008C7040008C904000818
:1000A000CB040008CD040008CF040008D1040008E8
:1000B000D3040008D5040008D7040008D9040008B8
:1000C000DB040008DD040008DF040008E104000888
:1000D000E3040008E5040008E7040008E904000858
:1000E000EB040008ED040008EF0400080000000025
:1000F0000000000000000000000000000000000000
:1001000004480047FEE7FEE7FEE7FEE7FEE7FEE7FE
:10011000FEE700001901000800F002F800F05EF8A8
:100120000AA090E8000C82448344AAF10107DA4552
:1001300001D100F053F8AFF2090EBAE80F0013F046
:10014000010F18BFFB1A43F001031847C8FD010057
:10015000E8FD01000A444FF0000C10F8013B13F0D9
:10016000070408BF10F8014B1D1108BF10F8015B10
:10017000641E05D010F8016B641E01F8016BF9D103
:1001800013F0080F1EBF10F8014BAD1C0C1B09D15A
:100190006D1E58BF01F801CBFAD505E014F8016BCC
:1001A00001F8016B6D1EF9D59142D6D3704700005E
:1001B0000023002400250026103A28BF78C1FBD870
:1001C000520728BF30C148BF0B6070471FB511F000
:1001D0009BFC11F0FFF91FBD10B510BD11F0E8FB3D
:1001E0001146FFF7F3FF00F084F811F006FC03B4AA
:1001F000FFF7F2FF03BC11F00DFC000030BF7047A9
:1002000020BF704740BF7047BFF36F8F7047BFF389
:100210004F8F7047BFF35F8F704701DF7047EFF379
:100220001480704780F31488BFF36F8F7047EFF32B
:100230000980704780F309887047EFF308807047A2
:1002400080F30888704762B6704772B67047EFF364
:100250001080704771B6704761B67047EFF3138036
:10026000704780F311887047EFF31280704740BAEF
:10027000704700BA7047000002480349034A044B24
:1002800070470000F03E0020F0420020F0400020C7
:10029000F040002070B53F4D00240022641CE4B201
:1002A0000A231146104603F0F5FC08F084F9E00635
:1002B0004FF00401284606D500F0A7FB0821284688
:1002C00000F0A5FBE9E700F0A2FB0821284600F0BA
:1002D0009CFBE2E710B506F051FEFCE710B500F01C
:1002E00089F901F087FD00F026F8FF2003F02DFCCE
:1002F000FBE700B587B000214FF0006000F0A3FCE1
:1003000001F052FC03230022CDE90323224880217F
:10031000CDE9003000F5FE72029100211F4803F084
:10032000FEF906AA1EA1032003F053FB01F04FFDC6
:10033000002007B000BD10B586B000224FF48074D5
:10034000CDE902420323194804930190052300F5E7
:100350007F7200211648009303F0E1F905AA15A168
:10036000052003F036FB0022CDE9024203231448A6
:1003700004930190042300F57F720021114800933B
:1003800003F0CDF905AA10A1042003F022FB06B06A
:1003900010BD00000008014018030020DD02000825
:1003A0005374617274205461736B0000180500204F
:1003B000D50200085573657220492F4600000000E1
:1003C00018090020950200084B6579626F6172641C
:1003D000000000007047FEE7FEE7FEE7FEE770471B
:1003E0007047704710B501F0B1FA4A4A1178491CBC
:1003F000117001F0AFFA01F031FDBDE8104001F0DD
:1004000070BC70477047704710B500F0E8FF424974
:100410004FF461640844A0421DD200F0E0FFB0FB3D
:10042000F4F104FB1100A0F6D4503C2813D200F0E4
:10043000D6FFB0FBF4F104FB11003C21B0FBF1F25C
:1004400001FB12003B2806D100F0F9FF002000F06C
:10045000CCFF00F0F4FFBDE81040012001F01CB813
:1004600070477047704770477047704710B501F08C
:100470006DFA284A1178491C117001F06BFA27496E
:100480000888401C0880C20725484FF4005102D05C
:1004900000F0BBFA01E000F0BAFA102000F0DAF93F
:1004A00010B1102000F0E3F9BDE8104001F019BCD4
:1004B0007047704770477047704770477047704784
:1004C0007047704770477047704770477047704774
:1004D0007047704770477047704770477047704764
:1004E0007047704770477047704770477047704754
:1004F0007047704770477047704770477047704744
:100500007047704770477047704770477047704733
:10051000704700001200002090BCFEFF0000002089
:100520000010014070B5012186B0080300F054FDB1
:10053000E020ADF8140003248DF8164018208D4EED
:100540008DF8170005A9304600F0F5F91020ADF838
:1005500014008DF816408DF8170005A9304600F0FC
:10056000EAF94020ADF814008DF8164048258DF8C2
:10057000175005A9304600F0DEF90120ADF814004F
:100580008DF816408DF8175005A97B4800F0D3F977
:100590000020ADF800004FF48271ADF80210ADF804
:1005A00008007115ADF80A102821ADF80C10ADF84F
:1005B0000400ADF80600ADF80E0007206F4CADF852
:1005C00010006946204600F083FD0121204600F01E
:1005D000FCFD06B070BD08B50C20ADF80000102081
:1005E0008DF8030003208DF802006946614800F091
:1005F000A2F908BD10B586B000F0E4FB4FF48034DA
:10060000204600F0F7FB00F022FC5D4908700878F6
:10061000012822D1102000F065FF022000F050FFD9
:10062000002000F04DFC002000F058FCA01100F06C
:100630004EFC4FF4E011204600F02BFC012000F0AE
:1006400030FC392000F0EEFB0028FAD0022000F048
:100650002BFC00F030FC0828FBD1012140F2FD10FA
:1006600000F0BAFC03F07AFFFFF7B5FFFFF75AFF7F
:1006700001A800F066FC02984FF47A71B0FBF1F02B
:1006800000F060FE042000F051FE012000F05EFE4C
:10069000012000F06DFE06B010BD704710B54FF49C
:1006A000A06000F040FA0022BDE810401146354835
:1006B00000F0F5BA70B5314C05460221204600F035
:1006C000F0FD0028F9D02946204600F0A6FD0121C2
:1006D000204600F0E6FD0028F9D0204600F09FFDFE
:1006E000C0B270BD002100E0491C8142FCD37047BC
:1006F00070B5204D1021284600F089F90A20FFF737
:10070000F1FF9020FFF7D6FF0A20FFF7EBFF002054
:10071000FFF7D0FF04020020FFF7CCFF204484B293
:100720000A20FFF7DFFF1021284600F06EF9E008ED
:1007300070BD70B50F4D1021284600F068F90A20F1
:10074000FFF7D0FFD020FFF7B5FF0A20FFF7CAFF61
:100750000020FFF7AFFF04020020FFF7ABFF2044AB
:1007600084B20A20FFF7BEFF1021284600F04DF9A1
:10077000E00870BD00080140000C0140003001405D
:10078000020000209AC302003A4800210160416043
:100790008160C16038494161704710B5837937493C
:1007A0000268B3B3D1F800349343C1F80034D1F8F0
:1007B000042403689A43C1F8042402790A44D2F855
:1007C000003404682343C2F80034D1F808240368D5
:1007D0009A43C1F80824D1F80C2403689A43C1F85D
:1007E0000C244279102A0CD101F581610A68036852
:1007F00042EA03020A604A68006842EA00024A606C
:1008000010BD1144D1F8002400680243C1F800244F
:1008100010BDFFE700790844D0F800149143C0F8F8
:100820000014F5E70021016001710C224271817111
:100830007047134A116841EA00011160704711497D
:10084000024609680020114200D0012070470D497E
:1008500008607047074B01461A6800205B6902EA8E
:1008600001020B4202D0002A00D001207047054946
:100870000860704700040140FFFF070000000140CE
:100880001004014014040140894A10B5811A13155F
:10089000D41490422ED00DDC864940181CD09842CA
:1008A00021D0A0423BD10121102000F0A7FB002164
:1008B00010200DE0994224D0A14229D0B1F5406F1B
:1008C0002DD101210C02204600F098FB002120468A
:1008D000BDE8104000F092BB0121042000F08EFB27
:1008E00000210420F4E70121082000F087FB00210B
:1008F0000820EDE70121202000F080FB00212020CE
:10090000E6E70121402000F079FB00214020DFE7ED
:100910000121802000F072FB00218020D8E710BD6B
:1009200010B50121084600F069FB0021BDE8104028
:10093000012000F063BBF0B5CC78002204F00F0377
:10094000E40601D58C7823430C884FF00F0C14F08B
:10095000FF0F4FF0010E1AD006680D880EFA02F450
:100960002540A5420FD195000CFA05F726EA0707A6
:1009700003FA05F6CD783E43282D00D14461CD78A9
:10098000482D00D10461521C082AE6D306600A886B
:10099000FF2A1DD94668002202F108050EFA05F467
:1009A0000D882540A5420FD195000CFA05F726EADF
:1009B000070703FA05F6CD783E43282D00D14461A0
:1009C000CD78482D00D10461521C082AE4D346603A
:1009D000F0BD4FF6FF710180022181700421C170CA
:1009E00070470246926800200A4200D001207047FA
:1009F000806880B270470246D26800200A4200D068
:100A000001207047C06880B2704701617047416142
:100A100070470AB10161704741617047C16070471A
:100A200041F48032826181618261816980697047AD
:100A300010B5214B1A684FF68074224042EA00102C
:100A40000843186010BD1D49C8617047F0B51A4DC4
:100A50006B68440D260184B2C0F30157B440C0F363
:100A60000342032F06D1686823F0706220F07060A3
:100A7000686008E0C00203D503209040834300E093
:100A8000A34343F0706201B122436A60F0BD10B528
:100A90008A0721F003040849120F21440F238C68B0
:100AA00093409C438C608B68904003438B6010BDE7
:100AB0000014014000F8FEBF000001400000204289
:100AC0000020411E4FF0E022C2F880110B09C2F84D
:100AD0008431C2F88012C2F88432014602EB8003EE
:100AE000C3F80014401C0F28F8D37047AD4A4FF0EC
:100AF00020610020116001465060AB4B9360D060D4
:100B00001061A2F6045202EB8003C3F8181D401CCA
:100B10000328F8D302F6245211604FF0FF305060E2
:100B20009060D0607047A0490843A04908607047B2
:100B3000F0B50F24C37802784FF0E021012743B3CA
:100B4000D1F80C3D03F4E063C3F5E0631B0AC3F185
:100B50000405DC404378AB408578254094071D436D
:100B60002B0122F00302E50E0A44D2F80044AB4008
:100B7000FF26AE40B44333401C43C2F80044007823
:100B800000F01F029740400901EB8000C0F800719F
:100B9000F0BD02F01F008740500901EB8000C0F853
:100BA0008071F0BD0021017041708170C17070478B
:100BB000FFF74BBBFFF747BBFFF74CBBFFF74CBB47
:100BC0000001FFF74EBBFFF74FBB76480068C0F34C
:100BD00009307047014601F01F0301229A400020AE
:100BE00049094FF0E02303EB8101D1F800128A4359
:100BF00000D1012070476E490860704700F01F0265
:100C00000121914040094FF0E02202EB8000C0F842
:100C10008012704763480068C0F3090070470146BE
:100C200001F01F0301229A40002049094FF0E02300
:100C300003EB8101D1F800138A4300D101207047F2
:100C40005C48006870475C4A114001435B480160A2
:100C5000704755485549001D086070475248534930
:100C6000401C086070474FF0E0220029D2F8101DA8
:100C700001D0014300E08143C2F8101D704700F02D
:100C80001F02012090404FF0E0220029D2F8241DDD
:100C900001D0014300E08143C2F8241D704770B5C4
:100CA0004FF0E025D5F80C3DFF2403F4E063C3F5D5
:100CB000E0631B0ADC40C3F10406B14022400A4352
:100CC000110100F0C0029209C0F30120C000814070
:100CD000FF23834005EB820000F61850026822EAE9
:100CE00003020260026842EA0102026070BD01462E
:100CF000C1F38322002001219140314A126802EAA7
:100D000001028A4200D101207047264900F01F00ED
:100D10000B684FF0010202FA00F243EA02030B6093
:100D20007047204B00F01F001968A0F101004FF040
:100D3000010202FA00F241EA02011960704701461D
:100D4000C1F383320020012191401D4A126802EA5A
:100D500001028A4200D101207047C0F38141C0F3F3
:100D600001504FF0E02211B9D2F82C0D7047012943
:100D70000AD1D2F8281DC200D140022802D001F0C9
:100D80000F007047C8B27047D2F8300D7047C0F3FB
:100D900080504FF0E02110B9D1F8340D7047D1F8F0
:100DA000380D704704ED00E00000FA050CED00E09E
:100DB00000EF00E000ED00E080FFFF1F08ED00E025
:100DC00024ED00E0A348016841F0010101604168A1
:100DD000A14A114041600168A04A114001600168C8
:100DE00021F480210160416821F4FE01416000216D
:100DF0008160704797490A6822F480320A600A6865
:100E000022F480220A60B0F5803F07D0B0F5802F31
:100E100003D1086840F4A02008607047086840F4D7
:100E20008030F9E70346002059098A4A012901D197
:100E3000116804E0022901D1116A00E0516A03F04F
:100E40001F02012393400B4200D00120704730B5B0
:100E5000834C40F2FF153120FFF7E4FF20706068FB
:100E6000401C6060207810B96068A842F3D131203E
:100E7000FFF7D8FF002800D0012030BD754A116867
:100E800021F0F80141EAC000106070477549086020
:100E90007047704B5A68084322F47C121043586024
:100EA00070477049086670476A4A516821F003012B
:100EB0000143516070476748406800F00C0070477C
:100EC000644A516821F0F001014351607047614A62
:100ED000516821F4E0610143516070475D4A5168F7
:100EE00021F4605141EAC00050607047594A00291E
:100EF000517A01D0014300E08143517270475A4951
:100F000008607047534A516821F4404101435160E1
:100F10007047564900220A7001F82029012802D0A2
:100F2000042802D1052081F820007047504908604C
:100F30007047484A116A0143116270474D49086081
:100F4000704710B5434A51684B4B11F00C0103D068
:100F5000042901D0082901D0036011E0516802235F
:100F600001F4701103EB9141536813F4803F02D0F8
:100F700053689B0301D5414B00E03F4B594301604F
:100F800051683F4B01F0F00109095C5C0168E140E8
:100F90004160546804F4E064240A1C5D21FA04F4FE
:100FA0008460546804F46054E40A1B5DD940C16055
:100FB0005268334B02F44042920B1B1F9A5CB1FB08
:100FC000F2F1016110BD234A0029516901D00143AA
:100FD00000E08143516170471E4A0029916901D0A8
:100FE000014300E08143916170471A4A0029D169A9
:100FF00001D0014300E08143D1617047154A0029C7
:10100000D16801D0014300E08143D1607047114AAB
:101010000029116901D0014300E08143116170474B
:101020001849086070470F49C86470470949C8717A
:1010300070470848416A41F0807141627047054934
:10104000024689680020114200D001207047014902
:1010500088727047001002400000FFF8FFFFF6FEA4
:101060000400002000004242D8004242201002400A
:10107000800442423C04424200127A0000093D00D2
:101080001A1B010840044242A74910B5401810D06D
:10109000B0F5806F10D0B0F5784F18D101210C0356
:1010A0002046FFF7ABFF2046BDE810400021FFF7C8
:1010B000A5BF01218C0301E00121CC032046FFF7ED
:1010C000A6FF2046BDE810400021FFF7A0BF10BDDD
:1010D00030B502884C8802F441530A88CD882243F7
:1010E0008C882C4322430C8922434C8922438C89CF
:1010F0002243CC8922431A430280828B22F400626D
:101100008283098A018230BDF0B505460C46022073
:101110000021AA8B85B001264FF240031A40AA8312
:101120002884AF8B2289022A24D0A08800B102260D
:101130006846FFF706FFE088B0F5007F06D100980B
:10114000218900EB80004000090206E0208971013E
:101150004143009800EB80004000B0FBF1F0401DDF
:1011600080B20A21B0FBF1F000F00101401AC0F397
:101170004F000902821EFE2A01D302200021E288CC
:10118000084302432A842088618862890843A18831
:1011900011430843384340F40060A88305B0F0BD14
:1011A0000021018041808180C18001814181818154
:1011B000C181072101827047002101804180818027
:1011C000C18002220281418170470029018802D03A
:1011D00041F0400101E021F0400101807047002909
:1011E000818B02D041F4806101E021F48061818330
:1011F0007047090901238B40002A828899B201D0E7
:101200000A4300E08A4382807047002A828801D026
:101210000A4300E08A438280704781817047808959
:101220007047A1F57E420188FF3A02D041F48071F7
:1012300001E021F48071018070470029818802D08B
:1012400041F0040101E021F004018180704702882F
:1012500022F40062028002880A43028070470188FB
:1012600041F48051018070470029018802D041F487
:10127000005101E021F4005101807047012901D0A3
:10128000008B7047808A7047008A7047B1F5804FA5
:10129000018802D141F4804101E021F480410180C4
:1012A00070470246128900200A4200D00120704790
:1012B000202905D10189018841F040010180704752
:1012C000402901D0082901D100897047C943018113
:1012D000704710B501F00F03012404FA03F302462E
:1012E000002009098C4091889BB2A4B21289214048
:1012F0001A4202D0002900D0012010BD552905D185
:101300000189018841F0400101807047562901D0D0
:10131000532901D10089704701F00F02012191404A
:10132000C94301817047000000C8FFBF4FF0E021B2
:101330000428086902D140F0040001E020F0040014
:10134000086170474FF0E021486170474FF0E0219D
:10135000012803D1086940F0010004E0801C04D199
:10136000086920F00100086170470020886170471B
:101370004FF0E0210028086902D040F0020001E0AF
:1013800020F00200086170474FF0E020806970474C
:1013900002460020D1084FF0E023022901D119694B
:1013A00000E0D969012393400B4200D0012070472F
:1013B0003C4A0029B2F8001801D0014300E0814303
:1013C000A2F8001870473848018841F010010180E8
:1013D00070473548018821F010010180704733497A
:1013E0008888098840EA0140704700B50246FFF747
:1013F000EAFF2E48110C018082805DF804EBE8E7DB
:1014000000B50246FFF7DFFF2948C2F30341018020
:1014100082805DF804EBDCE700B50246FFF7D3FFFE
:101420002448110C018082805DF804EBD1E722484A
:10143000018880884FEA017140EA113070471948ED
:10144000B0F804188906FBD570471648B0F80418A0
:1014500021F00801A0F80418B0F804180907FBD51A
:1014600070471149024609880020114200D001202E
:1014700070470D4A118821EA0001118070470F4A18
:101480009188128801EA0001C9B2024202D009B172
:101490000120704700207047034A118821EA0001AB
:1014A00011807047002000400428004018280040A8
:1014B0000828004020280040102800400028004054
:1014C000F3490A6802F038020A600A6802430A60B7
:1014D0007047EF490A6822F008020A600A6802436E
:1014E0000A607047EA490A6822F010020A600A6836
:1014F00002430A607047E648E6494160E6494160B8
:101500007047E348016941F0800101617047E0499B
:101510000420CA68D20701D001207047CA68520768
:1015200001D502207047C968C906FBD50320704762
:1015300000B50346FFF7EBFF05E0FF20401EFDD19D
:10154000FFF7E5FF5B1E012802D1002BF5D101E07A
:10155000002B00D1052000BD70B5054640F6FF7692
:101560003046FFF7E5FF042813D1C94C206940F04D
:10157000020020616561206940F040002061304632
:10158000FFF7D6FF012804D0216941F6FD72114012
:10159000216170BD30B540F6FF752846FFF7C8FFE2
:1015A000042812D1BA4C206940F00400206120695F
:1015B00040F0400020612846FFF7BAFF012804D020
:1015C000216941F6FB721140216130BD30B540F612
:1015D000FF752846FFF7ACFF042828D1AC4CAD4876
:1015E000A060AD48A060206940F020002061206923
:1015F00040F0400020612846FFF79AFF41F6EF7562
:1016000004280FD1206941F6DF710840206120696C
:1016100040F010002061A149A52008804FF00F0084
:10162000FFF786FF012802D021692940216130BDE2
:10163000F0B505460E460F20FFF77AFF042816D1B5
:10164000934C206940F0010020612E800F20FFF7AD
:101650006FFF41F6FE77042804D1300C68800F201C
:10166000FFF766FF012802D0216939402161F0BDF2
:1016700070B504460D460F20FFF75AFF04280FD11E
:10168000834E306940F00100306125800F20FFF764
:101690004FFF012804D0316941F6FE7211403161DB
:1016A00070BD70B505460E460F20FFF741FF0428B8
:1016B00013D1774C7748A0607748A060206940F04C
:1016C000100020612E800F20FFF732FF012804D088
:1016D000216941F6EF721140216170BD2DE9F041A1
:1016E000C043C4B2C0F30725C0F30746070E0F205E
:1016F000FFF71EFF04283AD1DFF89481654AC8F845
:101700000820654AC8F80820D8F8102042F01002D6
:10171000C8F81020DFF888C1FF2C06D0ACF80848C4
:101720000F20FFF705FF042818D1FF2D06D0ACF8D5
:101730000A580F20FFF7FCFE04280FD1FF2E06D019
:10174000ACF80C680F20FFF7F3FE042806D1FF2F3A
:1017500006D0ACF80E780F20FFF7EAFE012806D07D
:10176000D8F8101041F6EF731940C8F81010BDE812
:10177000F08170B5064640F6FF752846FFF7D8FEA3
:1017800004282BD1424C4348A0604348A060206904
:1017900040F020002061206940F040002061284690
:1017A000FFF7C6FE41F6DF71042818D12069084012
:1017B0002061206940F01000206139480EB10021FD
:1017C00000E0A521A0F800182846FFF7B1FE012887
:1017D00004D0216941F6EF721140216170BD0128EA
:1017E000FCD022690A40226170BDF0B50546284C44
:1017F00028480E461746A0602748A0600F20FFF734
:1018000097FE042814D1206940F010002061354370
:101810003D43244945F0F80008804FF00F00FFF7E2
:1018200087FE012804D0216941F6EF721140216141
:10183000F0BD1748C069800870471548006A7047B6
:1018400013490020C969890700D501207047104954
:1018500000200968890600D5012070470C4A00293C
:10186000116901D0014300E08143116170470146D5
:101870000020074A012904D1D169C90700D00120FD
:101880007047D2680A42FAD170470149C860704770
:101890000020024023016745AB89EFCD00F8FF1F10
:1018A00000F0FF1F02F8FF1F274900200880704743
:1018B000704770477047704770474FF0807342F829
:1018C000043942F804096FF00103104613604FF029
:1018D000123240F8042D4FF0033240F8042D4FF03F
:1018E000023240F8042D521040F8042D40F8041D37
:1018F0004FF0113140F8041D110140F8041D4FF064
:10190000093140F8041DD10040F8041D4FF00731A3
:1019100040F8041D4FF0063140F8041D4FF005312A
:1019200040F8041D910040F8041D7047704770474F
:1019300005490888401C80B20880642803D3002031
:10194000088002F055BC70470C000020EFF31080B7
:1019500072B6704780F31088704724484FF0FF013B
:101960000170002080F309881D4801210170204882
:101970004FF08051016062B6FEE71D484FF0805184
:10198000016070471A484FF0805101607047EFF3D3
:10199000098028B1203880E8F00F124909680860F2
:1019A00000B50A4880475DF804EB0B480B490A78FC
:1019B00002700C480C490A680260106890E8F00F49
:1019C000203080F309884EF0040E70472D1900086E
:1019D000E31C000812000020140000201500002065
:1019E00017000020300000203800002022ED00E029
:1019F00004ED00E0002204E0491C521C00F8013B09
:101A0000D2B20B78002BF7D100210170104670473D
:101A10002DE9F04105460E46140002D10020BDE834
:101A2000F0810DB9042011E00EB90C200EE0FD4844
:101A3000807808B1112009E02878012808D0022810
:101A400006D0032804D0042802D001202070E5E746
:101A5000FFF77CFF074605F113013046FFF7CAFF89
:101A600005463846FFF776FF002020702846D6E767
:101A7000002102E0401C491CC9B20278002AF9D1B9
:101A8000084670472DE9F04105460E461400C6D0C1
:101A90000DB9042028E00EB90C2025E0E14880783B
:101AA00008B1122020E02978012907D0022905D0A9
:101AB000032903D0042901D0012015E0FFF746FFD8
:101AC00007463046FFF7D4FF0F2804D93846FFF702
:101AD00041FF0B2008E0314605F11300FFF78AFFB4
:101AE0003846FFF737FF0020207098E77CB5CE4DD1
:101AF00000246946204601F0EEFF58B955F824004D
:101B000040B1012806D0D0E9021201EB8201016444
:101B100001994164641CE4B23F2CEAD97CBD2DE9F3
:101B2000F041C04D02E0C82002F090F8687800282B
:101B3000F9D0642069690026B1FBF0F48046FFF714
:101B400005FFE969A961EF69EE61FFF703FF54B191
:101B5000B7FBF4F0C0F1640040B2002801DB28704C
:101B600005E02E7003E02E706969B1FBF8F4FFF711
:101B7000A3FEFFF7BBFF642002F068F8DFE710B5B3
:101B8000A84CFFF7E3FEE169491CE161FFF7E2FEC3
:101B9000FFF791FEF5E7002203E0491E00F8012B54
:101BA00089B20029F9D1704730B587B0FFF77CFEC4
:101BB0009C4D00232B63AB70EB702B72EB71EB60D1
:101BC000EB61AB616B616B70AB7105F13401184671
:101BD000401CC0B201F8013B0828F9D32B716B718E
:101BE000AB624FF4C66191482B62FFF7D4FF4FF40C
:101BF00080718D48FFF7CFFF8C48002100F158021B
:101C00003F24426180F8484080F84930491C5830F0
:101C10005832C9B21129F4D3436180F8484080F8A2
:101C200049308248EB6268624FF4B471A0F5CD6030
:101C3000FFF7B1FF7E48002100F1240203704260EB
:101C4000C4740375491C2430243289B20929F5D3A0
:101C500003704360C47403757548286100F051FD3A
:101C600001F019F801F0C7FA72480323002280211D
:101C700001AC0FC44FF6FF7300933F2300F5FE72D3
:101C80000021AFF2051001F04AFD06AA6AA13F202B
:101C900001F09FFE6C4803230022802101AC0FC499
:101CA0004FF6FE7300933E2300F5FE720021AFF263
:101CB000911001F034FD06AA64A13E2001F089FED6
:101CC00002F0DEFA07B0BDE83040FFF7F1BD55493C
:101CD000C879012804D18878FF2801D2401C887077
:101CE000704770B54F4CE079012822D1FFF72EFEE6
:101CF0000546A07820B1401E10F0FF00A07013D15F
:101D0000E07888B900F006FA6079217988420BD032
:101D1000454951F82010A162486B401C4863E068B7
:101D2000401CE060FFF72EFE2846BDE87040FFF73C
:101D300011BE70BD10B53B4CE07901280CD1FFF706
:101D400005FEA17821B9E178FF2901D2491CE17093
:101D5000BDE81040FFF7FEBD10BD70B5FFF7F6FD02
:101D6000304C0546A07898B9E07888B900F0D2F9EF
:101D70006079217988420BD02B4951F82010A1625B
:101D8000486B401C4863E068401CE060FFF7F5FDCD
:101D90002846BDE87040FFF7DDBD10B5214CE07965
:101DA000012813D1FFF7D2FDE17859B1491E11F096
:101DB000FF01E17006D1A17821B9FFF7CBFDBDE8A5
:101DC0001040CAE7BDE81040FFF7C4BD10BD10B514
:101DD000144CE07900280CD100F09CF9607912498C
:101DE000207151F82000A0622062BDE81040FFF78A
:101DF000B4BD10BD10B5022001F028FFFFF7A6FD0D
:101E0000084C0021E161FFF7A5FD642001F01EFFF1
:101E1000FFF79CFDE169616101216170BDE810403F
:101E2000FFF798BD100000208012002080130020D2
:101E3000180D00208010002075432F4F532D494965
:101E40002049646C65000000800E002075432F4F10
:101E5000532D494920537461740000002DE9F0416D
:101E6000FFF766FDFFF772FDB04E316B491C316321
:101E7000FFF770FDF079012843D1707A01254FF00A
:101E8000000838B101283CD0022801D1757201E068
:101E900086F80980F46A30E0FFF758FD618D49B398
:101EA000A1F101010904090C618523D194F82C10DA
:101EB00011F0370F06D021F0370184F82C1084F888
:101EC0002D5001E084F82D8094F82C10090711D4CE
:101ED00004F13004A178B27941EA0201B171934A68
:101EE000217802F13402535C6778A4F1300443EAAC
:101EF000070353546469FFF72DFD94F82E003F2823
:101F0000CAD18CE540F21D1070477047F0B5847A55
:101F1000874D4FF0010E2C5D0EFA04F6071997F865
:101F20000BC0F6B215F80C500EFA05FE0EF0FF0EBF
:101F30002CEA0E0C05EBC40587F80BC0EDB20CF0D3
:101F4000FF0717B9877AB74387727A48002750F896
:101F5000250000F11C00C781C0E900714374017CB9
:101F600021EA02010174C8B248B970498879304346
:101F7000887101F13400015D41EA0E0101552846E6
:101F8000F0BD70B5694C216A04F13403C86191F861
:101F9000302091F831609D5CB5439D549A5C22B924
:101FA00091F83230A2799A43A27111F8303F00F1D2
:101FB0000B029D5C49780D439D54226A817A92F808
:101FC00032201143817270BD10B5584B1A6A12F855
:101FD000301F52780144CC7A9443CC72E1B229B9D3
:101FE0001A6A817A92F8322091438172186A00212C
:101FF00000F11C0041740174016010BD0022827266
:102000000B301146491CC9B200F8012B0829F9D33D
:10201000704705E011F8013B521E00F8013B92B2F7
:10202000002AF7D170472DE9FF5FDDE90F9B0646D7
:102030000D469246DDF83880FFF788FC3B4F7C6AFE
:10204000002C63D054F8141F7962FFF783FC44F826
:10205000145CA676002525766576A4F11004E58447
:10206000C4E9009AC4F80880A4F80CB004F1100484
:10207000039824F8020CE5774FEAD6002077C0B227
:102080004FF0010101FA00F0A07706F00700E076BA
:1020900001FA00F16177A5602561E5602562A5621E
:1020A0006562E5624FF03F00256384F8340084F8F0
:1020B0003550A4F114042046FFF739FC2046FFF701
:1020C000F8FBFFF743FC1B4941F82640F96AC4E9D5
:1020D000051501B18C61FC6204F13004A178BA7974
:1020E000124B41EA0201B971217803F134035A5CC1
:1020F000647842EA04025A54397A01F101013972D2
:10210000FFF728FC002004B0BDE8F09FFFF722FC99
:102110004220F8E7054A0649907902F13403085C49
:102120001B5CC95C01EBC0005071704710000020BF
:102130002A1B0108801200202DE9F04105460F46B8
:1021400014461E0002D10020BDE8F0810DB96E20BA
:1021500003E02878052802D001203070F3E714F05E
:10216000800002D024F080040120804600203070DE
:10217000FFF7ECFB7022BCB1012C1BD0022C0AD063
:10218000032C23D1298911EA07041DD0B8F1010FCE
:1021900007D1A14316E0298901EA0704BC42F5D022
:1021A00012E0FFF7D7FB16E0298927EA0104BC42B9
:1021B0000AD103E0298937EA010405D0B8F1010FFB
:1021C000EFD121432981ECE73270EAE7FFF7C2FB48
:1021D00000246F2030702046B6E770B506460D002B
:1021E00001D1002070BDF848007810B1102028708F
:1021F000F7E7FFF7ABFBF5490C686CB162680A6062
:1022000005212170268100263F216660A172E672B9
:10221000FFF7A0FB2E7003E0FFF79CFB72202870F5
:10222000204670BDD0E90012002322B9C268516077
:1022300021B14B6002E0116001B14A6080684362E5
:10224000704710B58268002302F128025380118084
:10225000117921F0200111715371C9B2A2F1280244
:1022600089B9DB4B02F1300291781C7841EA040114
:1022700019701178D74C5278635C43EA02036354B7
:102280004FF0010400E00024FFF7CCFF204610BD12
:102290002DE9F05F04468946150002D12046BDE8CD
:1022A000F09F0CB96E2034E0C748007808B10F20C9
:1022B0002FE02078052801D001202AE0FFF746FB17
:1022C000666880460EB1012700E000275FEA09003A
:1022D000DFF8F8B24FF03F0A4FF0000902D00128B2
:1022E00038D11DE08FB984F80AA084F80B9084F8E7
:1022F0000090DBF800106160A4F808904E4640465C
:10230000CBF80040FFF726FB21E04046FFF722FB19
:1023100049202870C2E700213046FFF792FF366857
:10232000002EF8D184F80AA084F80B9084F800906D
:10233000DBF800106160A4F808904E464046CBF8E8
:102340000040FFF707FB012F01D1FFF706FD2E70BC
:102350000020A4E74046FFF7FDFA0720D9E72DE962
:10236000F04105460F46140001D10020ECE60DB9FE
:102370006E2011E00FB90C200EE09348007808B1F0
:10238000112009E0FFF7E2FA06462878052805D073
:102390003046FFF7DFFA01202070E6E705F10A0179
:1023A0003846FFF727FB05463046FFF7D3FA0020F3
:1023B00020702846C8E62DE9F04105460F46140076
:1023C00029D00DB96E2025E00FB90C2022E07E48FF
:1023D000007808B112201DE0FFF7B8FA0646287809
:1023E000052804D03046FFF7B5FA012012E0384640
:1023F000FFF73EFB0F2804D93046FFF7ABFA7320F6
:1024000008E0394605F10A00FFF7F4FA3046FFF715
:10241000A1FA0020207097E6F0B56F4E059F346852
:1024200004F12404257A45F0200525724FF00005BB
:102430006572E78044F824190A828B748C604268C4
:10244000C1E90025C860426802B15160416031684D
:10245000604A91F8300091F83140135CA343135463
:10246000105C002805D15A4891F832200178914338
:102470000170F0BD2DE9FF4F87B0149D04460F4653
:1024800091461DB900200BB0BDE8F08F0CB96E204D
:10249000B4E04D48007808B10220AFE04F48007822
:1024A00008B10D20AAE02078052801D00120A5E080
:1024B00019F0800F03D029F08009012600E00026E2
:1024C000FFF744FA0190DFF810B15FEA09004FF01E
:1024D000000A19D001282CD002280AD003285AD18A
:1024E000208910EA07082ED0012E08D120EA080022
:1024F00027E0208900EA0708B845F5D023E0DBF89B
:102500000000A0F828800DE0208927EA0008B845DF
:1025100019D1012E02D140EA08002081DBF8001019
:10252000A1F828800198FFF715FA85F800A0404629
:10253000A9E7208937EA000805D0012EDFD140EA5B
:1025400008002081DBE70A9B00934B463A4602A92C
:102550002046FFF761FF0198FFF7FCF9FFF7FDFB4D
:10256000FFF7F4F98446DBF80000D84690F82D70A8
:10257000D7B180F82DA0544602A8FFF753FED8F833
:10258000000080F82C406046FFF7E4F90020022F9D
:1025900007D00A2106E00198FFF7DCF900206F213F
:1025A00000E00E2129706EE7078D012E1BD15FEA36
:1025B000090015D0012813D0022801D0032819D111
:1025C0002089B8430EE00000120000204C000020DB
:1025D00016000020440000203000002013000020DE
:1025E0002089384320816046FFF7B4F985F800A0C0
:1025F000384648E76046FFF7ADF96F20287041E79D
:1026000010B5FFF7A3F94D4909680C8DFFF7A2F942
:10261000204610BD2DE9F04105460E4614461F0028
:1026200001D1002090E50DB96E2050E028780528F2
:1026300001D001204BE0FFF789F980463CB1012C25
:1026400008D128893043288100266C6829E0288930
:10265000B043F8E74046FFF77DF9712037E0A07CF2
:1026600068B1012812D0022805D003282BD129896E
:10267000208A01400DE02989208A014003E0208A58
:10268000298920EA010188420AD103E0218A2889A8
:10269000814329B12046FFF7D4FD012800D101264E
:1026A0002468002CDBD14046FFF754F9012E01D1FC
:1026B000FFF753FBFFF74AF92C89FFF74BF900208E
:1026C0003870204640E54046FFF744F96F203870E7
:1026D000A7E770B505460C0001D1002070BD0DB90B
:1026E0006E2003E02878052802D001202070F4E74E
:1026F000FFF72CF92D89FFF72DF9002020702846CF
:1027000070BD10B58C210E48FFF745FA0C4800212A
:1027100000F11C020B463F24037042608472C372B6
:10272000491C1C301C3289B20429F5D30370436064
:102730008472C37203490248086010BD3000002053
:10274000B01900204C00002070B5040002D02078A1
:10275000012801D0002070BDFFF7F8F8002165685E
:102760006160FFF7F7F8284670BD70B50546D6489A
:10277000007808B1002070BDFFF7E8F8D3490C6875
:102780000CB162680A60FFF7E5F854B101202070CF
:10279000002020813F216560E17420752046FFF70D
:1027A0002DFC204670BD2DE9F047044688461500F3
:1027B00002D12046BDE8F0870CB9042035E020782E
:1027C000012801D0012030E0BF48007808B10F2077
:1027D0002BE0FFF7BBF80746A07A08B1012600E01E
:1027E00000265FEA0800DFF8E4A24FF03F094FF04F
:1027F000000802D001283BD11FE096B984F813905D
:1028000084F8148084F80080DAF800106160A4F87D
:10281000088046463846CAF80040FFF79BF82E70FD
:1028200024E03846FFF796F849202870C1E70023D6
:10283000022219462046FFF769FBA07A0028F6D14C
:1028400084F8139084F8148084F80080DAF800206B
:102850006260A4F808803846CAF80040FFF77AF8AA
:10286000012E01D1FFF779FA85F800800020A1E759
:102870003846FFF76FF80720D7E72DE9F047054600
:102880008946140007D00DB9042003E028780128F8
:1028900003D00120207000208CE78B48007808B11D
:1028A0000220F7E78A48007808B10D20F2E7FFF729
:1028B0004DF86F6806464FF0000847B13046C5F83E
:1028C0000480FFF747F884F80080384672E7814FAC
:1028D000386800F12A00817841F00201817080F8A7
:1028E0000380A0F800902846FFF74BFB3046FFF727
:1028F00031F8FFF732FAFFF729F80646386890F802
:102900002D705FB12846FFF75FFB3046FFF722F8D6
:10291000022F01D00A20BDE70E20BBE7056AC0F8F0
:10292000208080F82C80C0F81C803046FFF712F819
:1029300084F8008028463DE72DE9F04105460F4622
:10294000160002D10020BDE8F0810DB9042003E09B
:1029500029780120012901D03070F3E7FEF7F6FF56
:102960008046A87AF0B10024012F0BD102231A4629
:1029700000212846FFF7CAFA641CA87AE4B20028AE
:10298000F4D106E002231A4600212846FFF7BEFADA
:1029900001244046FEF7DEFFFFF7DFF90E2030701E
:1029A0002046D0E74046FEF7D5FF0020D4E770B5BB
:1029B00004000E4601D1042070BD0EB9032070BD85
:1029C0002078012801D0012070BDFEF7BFFF054629
:1029D000A07A58B10023022231462046FFF796FA2A
:1029E0002846FEF7B7FFFFF7B8F90AE0606820B1A4
:1029F0002846FEF7AFFF142070BD28466660FEF73C
:102A0000A9FF002070BD2DE9F04104000D461646D7
:102A100001D1042097E70DB9032094E7207801281D
:102A200001D001208FE7FEF791FF0746A07AD0B1D1
:102A3000F00709D00023022229462046FFF766FA54
:102A4000A07A0028F6D105E000230222294620467C
:102A5000FFF75CFA3846FEF77DFF700701D4FFF7F9
:102A60007CF900206FE7606820B13846FEF772FFFE
:102A7000142068E738466560FEF76CFFF1E72DE942
:102A8000F04106000F4601D104205CE70FB9092090
:102A900059E73078012801D0012054E7FEF756FFAE
:102AA000B17A39733D1D06F10B040021491C14F85D
:102AB000012BC9B205F8012B0829F7D371683960D9
:102AC000FEF748FF00203EE7120000202000002013
:102AD00013000020300000202DE9F0410646884612
:102AE00017461C0002D10020BDE8F0816220AEB183
:102AF000B10713D1B8F1020F01D25B200EE0042F11
:102B000001D25C200AE0FEF721FF71490D680DB18A
:102B10006A680A60FEF71EFF15B95A202070E2E7C6
:102B2000F01932460021A8F1010303E010600246CB
:102B30003844491C9942F9D3002010602E60C5F832
:102B40001080C5E902786E6020702846CCE770B529
:102B500004460D0001D1002070BD0CB9602011E0C9
:102B6000FEF7F4FE216951B16668491E3268626061
:102B70002161FEF7EFFE00202870304670BDFEF7A1
:102B8000E9FE5D202870E6E72DE9F04105460E4696
:102B9000140001D10020A7E70DB9602006E00EB9AE
:102BA0000C2003E04B48007810B111202070F1E7B1
:102BB000FEF7CCFE074605F114013046FEF71AFF7A
:102BC00005463846FEF7C6FE0020207028468BE7F3
:102BD0002DE9F04105460E46140085D00DB9602060
:102BE0001DE00EB90C201AE03A48007808B1122016
:102BF00015E0FEF7ABFE07463046FEF739FF0F281B
:102C000004D93846FEF7A6FE632008E0314605F1F8
:102C10001400FEF7EFFE3846FEF79CFE0020207001
:102C200062E770B504000D4601D1602070BD0DB99A
:102C30005F2070BDFEF78AFED4E90321914203D3E1
:102C4000FEF788FE5E2070BD6168296065602169BD
:102C5000491C2161FEF77EFE002070BD70B50500A5
:102C60000C4601D1602070BD0CB9612070BDFEF72B
:102C70006DFE2968216069686160A968A160E968E2
:102C8000E16029692161FEF765FED4E90301401A7C
:102C90006061002070BD70B5B4210F48FEF77BFF66
:102CA0000D48002102460B463F2401EBC10502EB13
:102CB00085052435456004754375491C243089B267
:102CC0000429F2D34360047543750148026070BD66
:102CD00050000020120000203C1A002070B505466C
:102CE0000C0001D1002070BD0DB9042003E028784C
:102CF000022802D001202070F4E7FEF727FE696861
:102D0000CA8A72B10B691A1D0A611D68CB8A5B1EE3
:102D1000CB828B689A4201D14A680A6100212170F6
:102D200002E01F2121700025FEF714FE284670BD29
:102D30002DE9F0410646F9488846007810B1002098
:102D4000BDE8F081FEF702FEF54F3C680CB161680A
:102D50003960FEF7FFFD1CB3FEF7F8FDF1490D6881
:102D6000C5B12A680A60FEF7F5FD06EB8800C5E9E3
:102D70000160EE602E61A5F814800020E882022137
:102D8000217020813F216560E17420752046FFF7A6
:102D900035F905E0396861603C60FEF7DBFD002431
:102DA0002046CDE72DE9F05F04468846150002D1A4
:102DB0002046BDE8F09F0CB904203DE020780228B1
:102DC00001D0012038E0D548007808B10F2033E069
:102DD000FEF7BCFD0746A07A08B1012600E00026F8
:102DE0005FEA0800DFF83CA3DFF834B34FF03F0997
:102DF0004FF0000802D0012847D125E0C6B984F879
:102E0000139084F814806068DAF800200260CAF831
:102E1000000084F80080DBF800106160A4F80880EE
:102E200046463846CBF80040FEF794FD2E702AE067
:102E30003846FEF78FFD49202870B9E700230422A9
:102E400019462046FFF762F8A07A0028F6D184F8E8
:102E5000139084F814806068DAF800200260CAF8E1
:102E6000000084F80080DBF800206260A4F808808D
:102E70003846CBF80040FEF76DFD012E01D1FEF77C
:102E80006CFF85F80080002093E73846FEF762FD6E
:102E90000720D1E710B5040001D1042010BD20782F
:102EA000022801D0012010BDFEF750FD61684A687C
:102EB000CA600A610022CA82FEF74CFD002010BDE4
:102EC0002DE9F04705468946140007D00DB90420C6
:102ED00003E02878022804D0012020700020BDE8FB
:102EE000F0878E48007808B10220F6E78E48007817
:102EF00008B10D20F1E7FEF729FD064668680027B6
:102F0000C18A89B10269111D01611568C28A521E08
:102F1000C2828268914201D1416801613046FEF768
:102F200019FD27702846DAE7DFF80082D8F800009C
:102F300000F12A00817841F004018170C770A0F887
:102F400000902846FFF71DF83046FEF703FDFEF718
:102F500004FFFEF7FBFC0646D8F8000090F82D8031
:102F6000B8F1000F0CD02846FFF72EF83046FEF7D8
:102F7000F1FCB8F1020F01D00A20AEE70E20ACE759
:102F8000056A076280F82C70C761C7E72DE9F04138
:102F900005460F46160001D10020D1E60DB90420E8
:102FA00003E029780120022901D03070F4E7FEF710
:102FB000CDFC8046A87AF0B10024012F0BD102236A
:102FC000042200212846FEF7A1FF641CA87AE4B27F
:102FD0000028F4D106E00223042200212846FEF74F
:102FE00095FF01244046FEF7B5FCFEF7B6FE0E2025
:102FF00030702046A4E64046FEF7ACFC0020D4E743
:1030000070B504000E4601D1042070BD207802285E
:1030100001D0012070BDFEF799FC0546A07A58B199
:103020000023042231462046FEF770FF2846FEF7B3
:1030300091FCFEF792FE19E06168C88A8A8A904284
:1030400004D32846FEF786FC1E2070BDC868021D0A
:10305000CA600660C88A401CC882D1E9022090423A
:1030600001D14868C8602846FEF774FC002070BD96
:1030700070B504000E4601D1042070BD20780228EE
:1030800001D0012070BDFEF761FC0546A07A58B161
:103090000023042231462046FEF738FF2846FEF77B
:1030A00059FCFEF75AFE18E06168C88A8A8A904285
:1030B00004D32846FEF74EFC1E2070BD4A680869FE
:1030C000904201D188680861001F08610660C88AC3
:1030D000401CC8822846FEF73DFC002070BD2DE94B
:1030E000F04107000D46144601D1042028E6387847
:1030F000022801D0012023E6FEF728FC0646B87A14
:1031000028B3E00714D00023042229463846FEF7EE
:10311000FDFEB87A0028F6D110E000001200002071
:103120002000002054000020130000203000002068
:103130000023042229463846FEF7E8FE3046FEF713
:1031400009FC600701D4FEF708FE0020F8E5796865
:10315000C88A8A8A904204D33046FEF7FBFB1E20C1
:10316000EEE5A00709D54A680869904201D1886850
:103170000861001F0861056009E0C868021DCA6097
:103180000560D1E90220904201D14868C860C88A30
:10319000401CC8823046FEF7DDFBD6E770B506005E
:1031A0000C4601D1042070BD0CB9092070BD3078E7
:1031B000022801D0012070BDFEF7C8FBB17A21744E
:1031C00006F10B0504F108010022521C15F8013B21
:1031D000D2B201F8013B082AF7D37168CA8A0AB152
:1031E0000A6912682260CA8AA280898AE180FEF791
:1031F000B1FB002070BD10B560210A48FEF7CBFC82
:103200000848002100F1180240F8182B491C183218
:1032100089B20329F8D300210160034901480860FD
:1032200010BD0000F01A00205400002070B504000A
:1032300002D02078032801D0002070BDFEF786FB65
:1032400025890DB1691E2181FEF784FB284670BDDA
:1032500070B50546C248007808B1002070BDFEF781
:1032600075FBC0490C680CB162680A60FEF772FB1E
:1032700054B103202070258100203F216060E1745B
:1032800020752046FEF7BAFE204670BD2DE9F047B6
:1032900004468846150002D12046BDE8F0870CB9E7
:1032A000042035E02078032801D0012030E0AC482C
:1032B000007808B10F202BE0FEF748FB0746A07A04
:1032C00008B1012600E000265FEA0800DFF894A2BA
:1032D0004FF03F094FF0000802D001283BD11FE01A
:1032E00096B984F8139084F8148084F80080DAF892
:1032F00000106160A4F8088046463846CAF80040CD
:10330000FEF728FB2E7024E03846FEF723FB492009
:103310002870C1E70023012219462046FEF7F6FD7A
:10332000A07A0028F6D184F8139084F8148084F8E9
:103330000080DAF800206260A4F808803846CAF8F5
:103340000040FEF707FB012E01D1FEF706FD85F8D0
:1033500000800020A1E73846FEF7FCFA0720D7E7F7
:103360002DE9F04705468946140096D00DB9042092
:1033700042E02878032801D001203DE07848007819
:1033800008B1022038E07848007808B10D2033E019
:10339000FEF7DCFA064628894FF0000830B1401EDF
:1033A00028813046FEF7D6FA404625E06F4F386850
:1033B00000F12A00817841F00101817080F80380DA
:1033C000A0F800902846FEF7DCFD3046FEF7C2FA72
:1033D000FEF7C3FCFEF7BAFA0646386890F82D707F
:1033E00067B12846FEF7F0FD3046FEF7B3FA022F2C
:1033F00001D00A2000E00E2020704EE7C0F81C80AB
:1034000045463046FEF7A6FA257046E72DE9F0411D
:1034100005460F46160002D10020BDE8F0810DB927
:10342000042003E029780120032901D03070F3E75C
:10343000FEF78CFA8046A87AF0B10024012F0BD158
:103440000223012200212846FEF760FD641CA87AB1
:10345000E4B20028F4D106E002230122002128462C
:10346000FEF754FD01244046FEF774FAFEF775FCA2
:103470000E2030702046D0E74046FEF76BFA002061
:10348000D4E770B5040001D1042070BD2078032872
:1034900001D0012070BDFEF759FA0546A07A58B157
:1034A0000023012219462046FEF730FD2846FEF78C
:1034B00051FAFEF752FC09E021894FF6FF70814274
:1034C00006D2491C21812846FEF744FA002070BD2F
:1034D0002846FEF73FFA322070BD2DE9F041060084
:1034E0000F4601D1042098E70FB9092095E73078FD
:1034F000032801D0012090E7FEF728FAB17AB972CB
:10350000BD1C06F10B040021491C14F8012BC9B2A3
:1035100005F8012B0829F7D331893980FEF71AFA0B
:1035200000207AE770B504460E46150007D00CB9A6
:10353000042003E02078032802D00120287070BD09
:10354000FEF704FA00212970218909B9A17A09B985
:10355000268101E049212970BDE87040FEF7FAB9E3
:103560001200002020000020130000203000002066
:103570002DE9F04705460C463F2801D3FF2D01D128
:103580003F2C02D32A20BDE8F087FEF7DFF9FF4F7A
:1035900057F8241019B1FEF7DDF92820F3E7FF2DC5
:1035A00003D1FB49096891F82E5057F8251019B935
:1035B000FEF7D0F92920E6E7012903D1FEF7CAF981
:1035C0004320E0E7E308012202FA03F604F0070AC9
:1035D00006F0FF0902FA0AF2D6B2002247F82520C7
:1035E00047F8241091F83050DFF8A88391F8312083
:1035F00018F80570174219D0974308F8057018F8A5
:103600000520DFF894C332B991F832209CF800709D
:1036100097438CF800709CF8002042EA09028CF86D
:10362000002018F80320324308F80320CA69BAB111
:1036300002EB050C9CF80B5091F83170BD438CF8EF
:103640000B50EDB225B9957A91F83270BD43957261
:10365000957A45EA090595721A44D57A3543D572AB
:1036600001F82E4F8B7081F801A081F80490CE7084
:10367000FEF770F9C9480078012801D1FEF76DFB0B
:10368000002080E72DE9FE4306460F4690461C4683
:103690003F2B02D92A20BDE8FE83FEF757F9C04927
:1036A000097819B1FEF756F93C20F4E7B74D55F803
:1036B000241029BB012145F82410FEF74BF9002303
:1036C000424639463046FEF7F8F80023014600939B
:1036D00001931A4620460293FEF7A5FC060006D188
:1036E000AE480078012809D1FEF737FB06E0FEF767
:1036F0002DF9002145F82410FEF72CF93046CAE7D1
:10370000FEF728F92820C6E7D30707D0920705D58A
:10371000002201E004C0491E0029FBD170472DE9B9
:10372000FE4FDDE90DABDDF8309006460F469046C2
:103730001C463F2B02D92A20BDE8FE8FFEF706F972
:103740009749097819B1FEF705F93C20F4E78F4D48
:1037500055F8241061BB012145F82410FEF7FAF852
:1037600059465046109AFFF7CFFF42463946304639
:10377000109BFEF7A2F8DDE90F23CDE900B202931A
:1037800001464B4652462046FEF74DFC060006D148
:1037900082480078012809D1FEF7DFFA06E0FEF73B
:1037A000D5F8002145F82410FEF7D4F83046C3E7D9
:1037B000FEF7D0F82820BFE72DE9F0470546784806
:1037C000007808B14020DEE63F2D02D14FF03E00E8
:1037D000D9E603D3FF2D01D02A20D4E6FEF7B6F8B0
:1037E0000646FF2D03D16A48006890F82E50DFF896
:1037F0009C9159F8254024B93046FEF7ABF8432098
:10380000C1E6012C04D13046FEF7A4F83D20BAE60B
:1038100094F830005F4994F831300A5C9A430A54B6
:10382000095C29B95C4A94F83230117899431170D7
:10383000E16961B10844C27A94F831309A43C272A6
:10384000D0B220B9887A94F8322090438872606AA6
:1038500008B1FEF7E7FC4FF00008A4F82A8084F8CE
:103860002C80504F84F82D803878FF2801D2401CDE
:1038700038703046FEF76EF8FEF747FBFEF766F845
:103880000646387808B1401E38702046FEF712F818
:1038900045490878401E087049F82580A0694146CE
:1038A00028B96069414A81616069106004E0626919
:1038B0004261D4E9052090613D480268626104607C
:1038C0003F2004F8480F61703046FEF743F8334854
:1038D0000078012801D1FEF740FA002053E610B528
:1038E00004463F2802D14FF03E0010BD0DD3FF2CFF
:1038F00001D02A2010BDFEF729F82549096891F862
:103900003340FEF727F8204610BDFEF71FF81F4989
:1039100051F8241019B9FEF71DF8432010BD0129F4
:1039200003D1FEF717F83D2010BD3F2281F8332068
:10393000FEF710F8002010BD2DE9F04105460F46B6
:10394000140022D03F2D03D9FF2D01D02A2001E001
:1039500017B90C20207018E01148007808B1112028
:10396000F8E7FDF7F3FF0646FF2D03D1084800688E
:1039700090F82E50054850F82510432509B101292B
:103980001BD13046FDF7E6FF257013E080120020C2
:103990003000002044000020160000201700002006
:1039A0001200002013000020180000203C0000201E
:1039B000340000200020BDE8F08148313846FEF791
:1039C00019F805463046FDF7C5FF0020207028464F
:1039D000F1E72DE9F041054688461400EBD03F2D74
:1039E00003D9FF2D01D02A2031E0B8F1000F01D119
:1039F0000C202CE08F48007808B1122027E0FDF75A
:103A0000A5FF0646FF2D03D18B48006890F82E5085
:103A10008A48432750F825500DB1012D04D1304676
:103A2000FDF798FF2770C6E74046FEF721F80F28FC
:103A300004D93046FDF78EFF412008E0414605F1EC
:103A40004800FDF7D7FF3046FDF784FF00202070C7
:103A5000B1E710B504463F2801D32A2010BDFDF779
:103A600075FF764951F8241019B9FDF773FF462008
:103A700010BD012903D1FDF76DFF432010BD91F862
:103A80002C20130723D522F0080281F82C20D2B273
:103A9000CAB94A8DBAB96A4B01F130018A781C78EB
:103AA00042EA04021A700A78664B49789C5C44EA40
:103AB00001049C54FDF74EFF63480078012804D1AF
:103AC000FEF74BF901E0FDF745FF002010BDFDF7C3
:103AD00041FF442010BD2DE9F04104460E463F2829
:103AE00003D9FF2C01D02A2065E70EB9092062E72F
:103AF000002030607060FDF729FFFF2C03D14E4994
:103B0000096891F82E404D4951F8241009B1012956
:103B100003D1FDF71FFF43204DE70A8AD20703D1E7
:103B2000FDF718FF452046E7D1E902470025FDF7DC
:103B300011FF00E06D1C01CC0028FBD0A800306014
:103B4000781B80007060002035E770B504463F2880
:103B500002D14FF0470070BD03D3FF2C01D02A20C3
:103B600070BDFDF7F3FE3449FF2C096802D191F8CE
:103B70002E4003E091F82E10A14201D1012500E072
:103B800000252E4951F8241019B9FDF7E3FE48200D
:103B900070BD012903D1FDF7DDFE432070BD91F812
:103BA0003020284B91F831609C5CB4439C549A5C63
:103BB0002AB9234B91F832401A78A2431A7011F8AF
:103BC0002C2F42F008020A70FDF7C4FE012D01D12E
:103BD000FEF7C3F8002070BD70B504460E463F28BE
:103BE00003D9FF2C01D02A2070BD0EB9092070BD69
:103BF000FDF7ACFE0546FF2C03D10F48006890F896
:103C00002E400E4850F8241021B92846FDF7A2FE98
:103C1000292070BD012904D12846FDF79BFE4320D1
:103C200070BD58223046FEF7F4F92846FDF792FEA3
:103C3000002070BD12000020300000208012002003
:103C400016000020440000201700002070B5044634
:103C50005C48007800281CD1002C1AD0FDF776FEB5
:103C600059495A4B0A6892F8301092F831605D5CFD
:103C7000B5435D54595C29B9554992F832500B78D7
:103C8000AB430B705485FDF765FEBDE87040FEF751
:103C900064B870BD70B54B4C24780CB1552070BD24
:103CA00020B919B932B94BB9542070BD3B2901D99B
:103CB000512070BD3B2A01D9522070BD4FF47A7457
:103CC000A34201D3532070BD4FF47A756B43B3FB0D
:103CD000F4F34FF461646043C1EB011100EB810028
:103CE000104400EB4001C1EBC01003EBC000040C1A
:103CF00080B2FFF7ABFF4FF4004507E02846FFF71F
:103D0000A5FF2846FFF7A2FF641EA4B2002CF5D140
:103D1000002070BD10B504463F2801D32A2010BDF5
:103D2000FDF714FE2B4951F8241009B1012903D1E4
:103D3000FDF710FE432010BD4A8D1AB9FDF70AFEAB
:103D4000502010BD00234B8591F82C2012F0370F26
:103D500007D022F0370281F82C20012281F82D2093
:103D600001E081F82D3091F82C20120713D4184B64
:103D700001F130018A781C7842EA04021A700A784C
:103D8000124C4978A35C43EA0103A354FDF7E2FD1A
:103D9000FDF7E3FF01E0FDF7DDFD002010BD10B5EC
:103DA000FDF7D4FD0C490C68FDF7D4FD204610BD8D
:103DB00010B50446FDF7CAFD07490C60BDE8104088
:103DC000FDF7C8BD12000020300000204400002094
:103DD0001600002080120020400000202DE9F05F36
:103DE000DDF828B00C9D0746884691469A4615B9DD
:103DF0000020BDE8F09F4846B9F1010F06D0022827
:103E000007D1B8F1000F06D1832021E01FB982202D
:103E10001EE084201CE0F848007808B18B2017E0F1
:103E200000F08FFAF548002604680CB934460BE020
:103E3000E1680160E660F24926610888401C08805C
:103E4000F0490888401E088024B900F076FA8620E0
:103E50002870CDE7012084F83100C4E9067884F8A1
:103E60003090C4E901AB0B9840B1FDF701FE10287A
:103E700008D204F120000B99FDF7BCFD00F05DFABB
:103E80002E7008E0232084F8200084F821608C2024
:103E9000287000F052FA2046ABE7002180F831107C
:103EA00080F83010C161416141603F22816080F83B
:103EB000202080F821100161D0490A68C2600860A2
:103EC000CF480188491E0180CE480188491C0180E5
:103ED000704710B54169CC4A01F0070102EBC101FE
:103EE0000B680024C268834203D10A602AB11461BE
:103EF00003E00369DA6002B11361012280F8312026
:103F0000C46004618888401E888010BD70B5054675
:103F10000C0001D1002070BD0DB98A2023E0287863
:103F2000642801D089201EE0B348007808B18B20B6
:103F300019E000F006FA95F8310088B10026012852
:103F400006D0022804D003280FD12846FFF7C1FF6E
:103F50002846FFF7A2FF00F0F0F92670012070BD9F
:103F600000F0EBF987202070D4E700F0E6F98D200F
:103F7000F9E770B505460E46140001D1002070BD6A
:103F80000EB9882026E00DB98A2023E0287864281D
:103F900001D089201EE09848007808B1112019E06E
:103FA00000F0CFF995F8310088B1012803D002283C
:103FB00001D0032810D105F120013046FDF71AFD8C
:103FC000054600F0BAF900202070284670BD00F0C8
:103FD000B4F987202070D1E700F0AFF98D20F9E720
:103FE0002DE9F04105460C0033D00DB98A2003E0DD
:103FF0002878642802D0892020702AE07E48007842
:1040000008B18B20F8E700F09CF995F8310010B367
:10401000002601280DD0022818D003281FD17B4983
:1040200068690968451A00F088F926702846BDE8D5
:10403000F08195F83000AF69022806D107B9EF6921
:1040400000F07BF926703846F1E7F9E700F075F9E2
:1040500026700020EBE700F070F98720CCE700F035
:104060006CF98D20C8E770B505460C0001D1002021
:1040700070BD0DB98A2008E02878642801D0892015
:1040800003E05D48007810B18B202070EFE700F06E
:1040900058F995F831502DB1012D03D0022D01D0E2
:1040A000032D05D10020207000F047F9284670BD8F
:1040B0008D20F8E7032280F83120544A0129126844
:1040C00001D0816901B9C1690023114441614E4A9F
:1040D00001F0070102EBC1010A68086012B9012270
:1040E000C36003E0C26010618A88521C8A80036149
:1040F000704770B505460C0001D1002070BD0DB9A8
:104100008A2024E02878642801D089201FE03A48DA
:10411000007808B18B201AE000F013F995F831000F
:1041200090B10026012806D0022804D0032810D11F
:104130002846FFF7CEFE00212846FFF7BBFF00F020
:10414000FCF82670012070BD00F0F7F88720207081
:10415000D3E700F0F2F88D20F9E72DE9F0410546AC
:104160000E4617461C0001D1002060E70DB98A20D9
:1041700038E02878642801D0892033E01E48007890
:1041800008B18B202EE000F0DCF895F8310030B358
:1041900001281FD002281DD0032825D12846FFF76B
:1041A00098FE002020707EB18F20032E07D0042EB1
:1041B0000ED16A683AB139462846904704E06A68E9
:1041C0000AB1A968F8E7207000F0B7F801202EE7DF
:1041D0008420F8E700F0B1F88E202070F6E700F0B8
:1041E000ACF887202070BFE700F0A7F88D20F9E732
:1041F00007480068FFF745B912000020680000205A
:104200005A00002058000020902000205C00002070
:10421000640000202DE9F843DFF83881DFF8389199
:104220004E4E6A460021D8F80000FFF799F800F0DA
:1042300088F83068401C306000F0070059F83040C2
:10424000022718E060693168E568884212D1626827
:1042500012B12046A16890472046FFF73AFE94F835
:104260003000022804D101212046FFF723FF01E09E
:1042700084F831702C46002CE4D100F05EF8D0E7D1
:1042800030B587B04FF450713548FDF784FC4021BC
:104290003148FDF780FC32480021642400F13402EB
:1042A0000B463F25047080F83130C26080F8205002
:1042B00080F82130491C3430343289B20F29F1D3CF
:1042C000047080F83130C36080F8205080F82130CD
:1042D0002248254903602348038010200880234991
:1042E0001F4808600120FEF7B3FF214D2860002021
:1042F000FEF7AEFF174C06AA20601EA12868FDF746
:10430000C1FB06AA1EA12068FDF7BCFB1F480323C2
:104310000022802101AC0FC44FF6FD73009300F51D
:10432000FE723D2300211A48FFF7F9F905AA19A1E9
:104330003D20FFF74EFB07B030BD0D480068FFF78A
:10434000A0B808B50A486A4600210068FFF708F8D7
:1043500008BD000064000020902000205C000020C8
:10436000501B00205A000020580000206800002048
:10437000600000204F532D546D724C6F636B000032
:104380004F532D546D72536967000000901E00203A
:104390001542000875432F4F532D494920546D7223
:1043A000000000007047704770B586B000251422E9
:1043B000344901A80DF03CFA002601ACFCF798F94D
:1043C00024F815006D1CEDB20A2DF7D320D16D1E17
:1043D000002318460CE004EB400634F810107288F5
:1043E000914203D9718024F810200123401CC0B2EF
:1043F000A842F0DB002BEBD1BDF80A00BDF80C1091
:104400000844BDF80E1008440321B0FBF1F086B259
:10441000304606B070BD70B51A4986B0002514222A
:10442000143101A80DF004FA002601ACFCF781F963
:1044300024F815006D1CEDB20A2DF7D320D16D1EA6
:10444000002318460CE004EB400634F81010728884
:10445000914203D9718024F810200123401CC0B27E
:10446000A842F0DB002BEBD1BDF80A00BDF80C1020
:104470000844BDF80E1008440321B0FBF1F086B2E9
:104480003046C6E72C1C0108FFF789BC4FF47A714F
:10449000484390FBF1F080B2FFF7D8BB3220FFF722
:1044A000D5BB10B50120FEF7D3FE2A4C606000207A
:1044B000FEF75BF9A06010BD08B526486A460021EA
:1044C0004068FEF74DFF08BD22484068FEF7D9BF9F
:1044D0002148006890F82E00704708B51D486A46CC
:1044E00000218068FEF7C9F908BD1A4801218068DB
:1044F000FEF75DBA10B50020FEF7AAFE1549C860A8
:1045000010BD70B5134D2C6900F01BF80020286118
:10451000204670BD38B500F014F80E4C206920B963
:104520006A460021E068FEF71BFF00212069216137
:1045300038BD08490861C868FEF7A3BF70477047D7
:10454000704704480178002902D101210170D1E7A8
:10455000704700006C0000203000002038B50121B9
:104560001C20FCF739FDFF20ADF8000003208DF87A
:10457000020010208DF803006946FF4C2046FCF72E
:10458000DAF94FF47F40ADF800006946FB48FCF7CC
:10459000D2F94FF47060ADF8000069462046FCF790
:1045A000CAF938BDF44AD168C3B201F47F41194356
:1045B000D160F3490A6800F47F40D2B242EA0002B7
:1045C0000A6070472DE9F0418046002108460DF051
:1045D00045FAE94D4FF480766E6122200DF068FABD
:1045E00068152861002447004FF4963C4046FFF7C9
:1045F000D9FF6F612F61641C6445F7D32E61BDE85C
:10460000F08100E0401E0028FCD170472DE9F05FEA
:104610004FF6FF70FFF7C6FFD74D4FF4806028615B
:1046200087102F614010286186002E614CF25032B5
:104630001146491E0904090CFBD11046401E000416
:10464000000CFBD114461046401E0004000CFBD1A8
:1046500001210DF03DFA42F21070401EFDD12046BE
:10466000401E0004000CFBD12046401E0004000C3C
:10467000FBD16F610DF01CFA6E610DF0D5F92E6162
:104680002F61C04940F2072B088080B2A0F513418A
:104690004FF48878253901D0C91E7ED11021E7203A
:1046A0000DF016FA012100200DF012FA3946012012
:1046B0000DF00EFA4FF4E06102200DF009FA41F21C
:1046C000300103200DF004FA002104200DF000FA5F
:1046D000594608200DF0FCF9002109200DF0F8F9E9
:1046E00000210A200DF0F4F901210C200DF0F0F961
:1046F00000210D200DF0ECF900210F200DF0E8F95C
:10470000002110200DF0E4F9072111200DF0E0F94F
:10471000002112200DF0DCF9002113200DF0D8F952
:104720002046401E0004000CFBD125466D1E2D04C2
:104730002D0CFBD141F2905110200DF0C9F940F23F
:10474000272111200DF0C4F92046401E0004000C62
:10475000FBD125466D1E2D042D0CFBD19C21122072
:104760000DF0B6F92046401E0004000CFBD1254692
:104770006D1E2D042D0CFBD14FF4C85113200DF0EC
:10478000A7F9232129200DF0A3F90E212B200DF0EC
:104790009FF92046401E000400E0A8E0000CF9D17B
:1047A00025466D1E2D042D0CFBD1002120200DF07F
:1047B0008FF9002121200DF08BF92046401E0004C6
:1047C000000CFBD125466D1E2D042D0CFBD10721BD
:1047D00030200DF07DF940F2077131200DF078F9AD
:1047E000062132200DF074F940F2047135200DF0ED
:1047F0006FF941F6047136200DF06AF90421372073
:104800000DF066F9002138200DF062F940F20671D2
:1048100039200DF05DF940F201713C200DF058F99E
:104820000F213D200DF054F921462046401E000482
:10483000000CFBD1491E0904090CFBD150200DF0DE
:1048400047F9EF2151200DF043F9002152200DF0DE
:104850003FF940F23F1153200DF03AF94FF4274150
:1048600060200DF035F9012161200DF031F90021B2
:104870006A200DF02DF9002180200DF029F900218A
:1048800081200DF025F9002182200DF021F9002171
:1048900083200DF01DF9002184200DF019F900216D
:1048A00085200DF015F9102190200DF011F900214F
:1048B00092200DF00DF9032193200DF009F94146E6
:1048C00095200DF005F9002197200DF001F9002148
:1048D00098200DF0FDF840F2331107200DF0F8F8A4
:1048E000002120200DF0F4F800212120C3E0A0F5E4
:1048F000134140F2022520397ED108460DF0E8F838
:10490000394601200DF0E4F84FF4E06102200DF08B
:10491000DFF841F2180103200DF0DAF8002104203D
:104920000DF0D6F8294608200DF0D2F80021092014
:104930000DF0CEF800210A200DF0CAF801210C205C
:104940000DF0C6F800210D200DF0C2F800210F2057
:104950000DF0BEF82046401E0004000CFBD1254699
:104960006D1E2D042D0CFBD140F2011107200DF01E
:10497000AFF82146204607E000100140000C01403E
:104980000C0C014080000020401E0004000CF2D1FD
:10499000491E0904090CFBD14FF4865110200DF07B
:1049A00097F8072111200DF093F845464146122053
:1049B0000DF08EF84FF4306113200DF089F80021CE
:1049C00029200DF085F844F210012B200DF080F81D
:1049D000002150200DF07CF8EF2151200DF078F8E7
:1049E000002152200DF074F840F23F1153200DF0D9
:1049F0006FF84FF41C5100E040E060200DF068F8C3
:104A0000012161200DF064F800216A200DF060F8AA
:104A1000002180200DF05CF8002181200DF058F875
:104A2000002182200DF054F8002183200DF050F871
:104A3000002184200DF04CF8002185200DF048F86D
:104A4000102190200DF044F8002192200DF040F844
:104A5000012193200DF03CF8294695200DF038F8FF
:104A6000002197200DF034F8002198200DF030F847
:104A700040F2731190E00DF02BF8FFE1A0F5194121
:104A80004FF4827840F2053940F2055A19397ED147
:104A9000062128200DF01CF8012100200DF018F847
:104AA000002110200DF014F847F2EF2101200DF045
:104AB0000FF84FF4C06102200DF00AF846F63821D5
:104AC00003200DF005F846F6740111200DF000F8F2
:104AD00000210F200CF0FCFF45F208310B200CF0F8
:104AE000F7FF03210C200CF0F3FF0A210D200CF03E
:104AF000EFFF4FF438510E200CF0EAFFBE211E20CC
:104B00000CF0E6FF4FF4004125200CF0E1FF4FF4DC
:104B1000F04126200CF0DCFF782127200CF0D8FF94
:104B200000214E200CF0D4FF00214F200CF0D0FFCC
:104B300040F6D90112200CF0CBFF002130200CF000
:104B4000C7FF414631200CF0C3FF394632200CF03C
:104B5000BFFF4D46494633200CF0BAFF5146342082
:104B60000CF0B6FF294635200CF0B2FF40F2077179
:104B700036200CF0ADFF4FF4407137200CF0A8FF49
:104B80004FF490513A200CF0A3FF314600E005E0CD
:104B90003B200CF09DFF332107206CE7A0F58A41F4
:104BA0004FF4837631397ED1012100200CF090FF43
:104BB0004FF4C56110200CF08BFF062112200CF081
:104BC00087FF40F6322113200CF082FF4021112094
:104BD0000CF07EFF502115200CF07AFF16211220D8
:104BE0000CF076FF0F20401EFDD145F260611020D1
:104BF0000CF06EFF0F20401EFDD142F64E21132017
:104C00000CF066FF394601200CF062FF4FF4407152
:104C100002200CF05DFF41F2300103200CF058FF40
:104C2000294608200CF054FF00210A200CF050FF08
:104C3000002130200CF04CFF40F2024131200CF0FA
:104C400047FF314632200CF043FF4FF4E061332040
:104C50000CF03EFF414634200CF03AFF40F20131A7
:104C600035200CF035FF40F2077136200CF030FF94
:104C7000494637200CF02CFF4FF4027138200CF01D
:104C800027FF40F60B7139200CF022FF0F20401E49
:104C9000FDD1022141200CF01BFF4FF41C5160207C
:104CA0000CF016FF00E031E0012161200CF010FF54
:104CB00040F2191190200CF00BFF4FF485719220F7
:104CC0000CF006FF042193200CF002FF3946A020CF
:104CD0000CF0FEFE0F20401EFDD10F20401EFDD126
:104CE0000F20401EFDD10F20401EFDD140F2331198
:104CF00007200CF0EDFE0F20401EFDD10021A0206A
:104D00000CF0E6FE1420401EFDD1B7E0A0F5EE4108
:104D10008339FAD10121FF200CF0DAFE0821F320BB
:104D20000CF0D6FE394601200CF0D2FE4FF4E061C3
:104D300002200CF0CDFE41F2300103200CF0C8FE41
:104D400040F2023108200CF0C3FE594608200CF056
:104D5000BFFE002109200CF0BBFE00210A200CF050
:104D6000B7FE002110200CF0B3FE052111200CF03D
:104D7000AFFE002112200CF0ABFE002113200CF03E
:104D8000A7FE3220401EFDD141F2B02110200CF0D0
:104D90009FFE3220401EFDD1072111200CF098FE0D
:104DA0003220401EFDD18B2112200CF091FE3220CA
:104DB000401EFDD14FF4B85113200CF089FE322073
:104DC000401EFDD1222129200CF082FE002130203E
:104DD0000CF07EFE40F2077131200CF079FE514656
:104DE00032200CF075FE40F2071135200CF070FEF9
:104DF000082136200CF06CFE002137200CF068FEF4
:104E0000294638200CF064FE314639200CF060FE53
:104E100029463C200CF05CFE4FF481613D200CF0F3
:104E200057FE3220401EFDD1002150200CF050FED4
:104E3000EF2151200CF04CFE002152200CF048FED6
:104E400040F23F1153200CF043FE4FF42741602005
:104E50000CF03EFE012161200CF03AFE332190203F
:104E60000CF036FE0B212B200CF032FE40F23311F9
:104E700007200CF02DFE3220401EFDD1641E2404BC
:104E8000240CFBD1F820FFF79DFBBDE8F05F4FF449
:104E90007840FFF797BBC0F34511C20AC00200EB90
:104EA0004110104480B2704770B50CF0D7FDBA4C79
:104EB0004FF48076666122200CF0FAFDE5146561FE
:104EC0000CF0B2FD256165610CF0AEFD2561266137
:104ED000B2490988A1F5EE42833A06D0A1F58A428B
:104EE000313A02D0BDE87040D5E770BD70B51546C7
:104EF000B0F5A07F13D8F02911D80CF0AFFDA64C67
:104F00004FF48076666122200CF0D2FD601520619E
:104F10002846FFF747FB201560612061266170BDC0
:104F20002DE9F04704460F4616469946089D0CF0B9
:104F300095FD214650200CF0CBFD394652200CF057
:104F4000C7FD314651200CF0C3FD494653200CF0FB
:104F5000BFFD394620460CF081FD8F4F4FF480781D
:104F6000C7F8148022200CF0A3FD781538610024C6
:104F70004FF4806C06FB09F609E035F8020BFFF7E9
:104F800011FBC7F814C0C7F810C0641CA4B2A64235
:104F9000F3DCC7F81080BDE8F0872DE9FF5F074616
:104FA00000251001DFF8F8B18A46A0F5007909EB79
:104FB00005001BF8008000240AEB0506C4F1070178
:104FC00028FA01F0C00707EB0400B1B280B201D0AB
:104FD000039A00E00E9AFFF789FF641CA4B2082C24
:104FE000ECD36D1CADB2102DE1D3BDE8FF9F2DE9D0
:104FF000F05F002108460CF031FD002150200CF03C
:1050000067FDEF2151200CF063FD002152200CF0D0
:105010005FFD40F23F1153200CF05AFDDFF878811C
:105020004FF4807BC8F814B022200CF041FD4FF4FF
:105030000070C8F810000026374635464FF4806CE3
:105040000024E008C00240EA46103843FFF7AAFAFD
:10505000C8F814C0C8F810C0641CE4B2F02CF0D337
:105060006D1CEDB2322DEBD31F2000254FEAC02975
:1050700007463F260024A6EB9400A7EBD40149EA9B
:105080004010084380B2FFF78DFA4046C8F814C0BC
:10509000C8F810C0641CE4B2F02CECD36D1CEDB267
:1050A000322DE7D3002189460D464FEAC1288246BA
:1050B0000024A00848EA401040EA090080B2FFF747
:1050C00071FA5046CAF814C0CAF810C0641CE4B2A1
:1050D000F02CEED36D1CEDB2322DE9D34FF03F082A
:1050E000002581460024A7EBD401C80240EA4810FD
:1050F0000843FFF757FA4846C9F814C0C9F810C06A
:10510000641CE4B2F02CEED36D1CEDB2322DE9D369
:10511000002211461446D20242EA41188146002577
:1051200048EAD50188B2FFF73DFA4846C9F814C0ED
:10513000C9F810C06D1CEDB2F02DF1D3641CE4B2BF
:105140003C2CECD31F2500248246B846B1460026ED
:105150005746A8EBD600A9EB9601C00240EA4110E1
:105160002843FFF71FFAC7F814C0C7F810C0761C11
:10517000F6B2F02EEDD3641CE4B23C2CE7D3CAF8AF
:1051800010B0BDE8F09F7047034A4FF4805108B15A
:10519000116170475161704700100140800000208C
:1051A000541C0108C0F3C402C0F38521C0F3C440FD
:1051B000C00200EB4110104480B270472DE9F84F57
:1051C000DDE90A9A0646884615461F4600240CE08B
:1051D000CDF800A006EBC40015F8012B80B24B46B9
:1051E0004146FFF7DAFE641CE4B2BC42F0D3BDE8EE
:1051F000F88F2DE9F05FDDF828B004468A4617469F
:105200001E46994211D1BC4201D8254609E03D46CF
:10521000274606E05A4651462846FFF767FE6D1CB2
:10522000ADB2BD42F6D9BDE8F09F504601D9801B12
:1052300000E0301A1FFA80F9BC4210D1B24501D803
:10524000554609E03546564606E05A462946204668
:10525000FFF74CFE6D1CADB2B542F6D9E3E707D9B6
:10526000E01B3D46274634461FFA80F8564604E0C8
:10527000381B25461FFA80F85446C84510D10CE06B
:105280006D1CADB2B44201D9641E00E0641CA4B22E
:105290005A4621462846FFF729FEBD42F0D9C2E70B
:1052A0005A4621462846FFF721FEB4424046494669
:1052B00041D288421FD9C8EB490006B24FEA4900E3
:1052C0000FFA80FAA9EB080040000FFA80F80FE00F
:1052D0006D1CADB2002E01DA504602E0641CA4B28F
:1052E0004046304406B25A4621462846FFF7FEFDA6
:1052F000BD42EDD397E7C9EB480007B24FEA48003B
:105300000FFA80FAA8EB090040000FFA80F80FE0CE
:10531000641CA4B2002F01DA504602E06D1CADB24D
:105320004046384407B25A4621462846FFF7DEFD7C
:10533000B442EDD377E788421FD9C8EB490006B2E3
:105340004FEA49000FFA80FAA9EB080040000FFA73
:1053500080F80FE06D1CADB2002E01DA504602E07D
:10536000641EA4B24046304406B25A46214628463E
:10537000FFF7BCFDBD42EDD355E7C9EB480007B2CE
:105380004FEA48000FFA80FAA8EB090040000FFA34
:1053900080F80FE0641EA4B2002F01DA504602E04C
:1053A0006D1CADB24046384407B25A4621462846E5
:1053B000FFF79CFDA642EDD335E72DE9FF4F0646EA
:1053C0000024032081B00F461546A0EB42007FE089
:1053D0000E9880B3301B049B824682B279190093E9
:1053E00030198BB2814689B280B2FFF702FF049B6D
:1053F000791B00938BB21FFA8AF289B21FFA89F0E7
:10540000FFF7F7FE701B049B824682B239190093A6
:1054100070198BB2814689B280B2FFF7EAFE049B15
:10542000391B00938BB21FFA8AF289B21FFA89F0F6
:10543000FFF7DFFE40E0FFE77819814681B23019BF
:10544000834680B2049AFFF751FD301B82461FFA53
:1054500089F180B2049AFFF749FD781B814681B239
:105460001FFA8BF0049AFFF741FD1FFA89F11FFA2A
:105470008AF0049AFFF73AFD3819814681B2701913
:10548000834680B2049AFFF731FD701B82461FFAF3
:1054900089F180B2049AFFF729FD381B814681B259
:1054A0001FFA8BF0049AFFF721FD1FFA89F11FFA0A
:1054B0008AF0049AFFF71AFD641CA4B2B8F1000F39
:1054C0000EDB6D1EADB2A000A0EB850040440A309B
:1054D0000FFA80F8A5423FF67BAF05B0BDE8F08F2C
:1054E00008EB8400801DF3E72DE9F8430746DDE96A
:1054F00008900E4615469846A0B1AF4202D92C46F8
:105500003D460BE03C4609E04346224631462046F4
:10551000CDF80090FFF76DFE641CA4B2AC42F3D945
:10552000BDE8F88343463A4631463846CDF8009008
:10553000FFF75FFE43462A4641463846CDF80090C5
:10554000FFF757FE33462A4641462846CDF80090DD
:10555000FFF74FFE33463A4631462846CDF80090D5
:10556000FFF747FEDCE71CB514461A46049BCDE95D
:1055700000230A1993B2021992B2FFF7B5FF1CBDBE
:1055800010B5FFF743F8002010BD92B289B280B287
:10559000FFF7ACBC89B280B2FFF786BC704770B52C
:1055A00089B280B20C460546FFF77EFC4FF6FF71CC
:1055B0000A1A21462846BDE87040FFF797BC08B597
:1055C000F84B89B25B8800930B4692B280B2FFF72A
:1055D00010FE08BD08B5F34B80B25B88009393B210
:1055E000024689B2FFF705FE08BD2DE9F0410646E7
:1055F0000C4617461D4605E03A4621463046FFF761
:10560000DEFF641CAC42F7DDBDE8F0812DE9F05F00
:105610000546DDE90A40B0F80080B0F80290E148A4
:105620008B46007B167810F00301924603F00700CA
:105630001FFA8BF70BD0012911D0022917D10828A6
:1056400015D2DFE800F0141D27313B454F590828DB
:105650000DD2DFE800F0626C77828D9AA5B0082841
:1056600005D2DFE800F0BAC2CAD2DAE2EAF23006C6
:1056700004D54A463946A8B2FFF738FC641E7ED0EE
:10568000700605D5681C4A46394680B2FFF72EFCE5
:10569000641E74D0B00605D5A81C4A46394680B2AF
:1056A000FFF724FC641E6AD0F00605D5E81C4A46C4
:1056B000394680B2FFF71AFC641E60D0300705D56A
:1056C000281D4A46394680B2FFF710FC641E56D0AA
:1056D000700705D5681D4A46394680B2FFF706FCBB
:1056E000641E4CD0B00705D5A81D4A46394680B285
:1056F000FFF7FCFB641E42D0F00705D0E81D4A46C8
:10570000394680B2FFF7F2FB641E38D00AF101007F
:1057100005F1080582460678A9E74A46300600D416
:1057200042463946A8B2FFF7E1FB641E27D04A463D
:10573000700600D44246681C394680B2FFF7D6FB9B
:10574000641E1CD04A46B00600D44246A81C394606
:1057500080B2FFF7CBFB641E11D04A46F00600D49E
:105760004246E81C394680B2FFF7C0FB641E7AD07F
:105770004A46300700D442463946281D00E072E010
:1057800080B2FFF7B3FB641E6DD04A46700700D4A9
:105790004246681D394680B2FFF7A8FB641E62D0FE
:1057A0004A46B00700D44246A81D394680B2FFF7EA
:1057B0009DFB641E57D04A46F00700D14246E81DC3
:1057C000394680B2FFF792FB641E4CD00AF101000B
:1057D00005F10805824606789FE7300603D559464D
:1057E0002846FFF7DCFE641E3DD0700603D55946FF
:1057F000681CFFF7D4FE641E35D0B00603D55946A9
:10580000A81CFFF7CCFE641E2DD0F00603D5594628
:10581000E81CFFF7C4FE641E25D0300703D55946A7
:10582000281DFFF7BCFE641E1DD0700703D5594626
:10583000681DFFF7B4FE641E15D0B00703D55946A6
:10584000A81DFFF7ACFE641E0DD0F00703D059462B
:10585000E81DFFF7A4FE641E05D00AF1010008351B
:1058600082460678B9E7BDE8F09F2DE9F047064685
:105870004C48DDE90848007B157891468FB2B8F1B5
:10588000000F4FEA80707CD0002803F0030005DA97
:10589000D0B3012845D002285FD150E020B10128C3
:1058A0000BD002281FD113E0A90938F8112039467E
:1058B000B0B2FFF71BFB641E73D0C5F3011138F8BB
:1058C0001120701C394680B2FFF710FB641E68D0AF
:1058D000C5F3810138F81120B01C394680B2FFF7BA
:1058E00005FB641E5DD005F0030138F81120F01CA3
:1058F000394680B2FFF7FAFA641E52D009F101006E
:1059000081460578361DCFE7FFE715F0C00F06D0BA
:10591000A90938F811203946B0B2FFF7E7FA641E3A
:105920003FD015F0300F08D0C5F3011138F8112021
:10593000701C394680B2FFF7D9FA641E31D015F0D9
:105940000C0F08D0C5F3810138F81120B01C39467E
:1059500080B2FFF7CBFA641E23D0A80708D005F069
:10596000030138F81120F01C394680B2FFF7BEFA67
:10597000641E75D009F1010081460578361DC4E723
:10598000FFE7002803F0030005DAA8B301283ED0A2
:10599000022854D147E038B101280CD002281CD18C
:1059A00012E05DE084390020AA093946B0B2FFF761
:1059B0009DFA641E54D0701CC5F30112394680B2A2
:1059C000FFF794FA641E4BD0B01CC5F38102394630
:1059D00080B2FFF78BFA641E42D0F01C05F0030280
:1059E000394680B2FFF782FA641E39D009F101000E
:1059F00081460578361DD7E7FFE715F0C00F04D0C4
:105A0000AA093946B0B2FFF771FA641E28D015F022
:105A1000300F06D0701CC5F30112394680B2FFF773
:105A200065FA641E1CD015F00C0F06D0B01CC5F32F
:105A30008102394680B2FFF759FA641E10D0A807D8
:105A400006D0F01C05F00302394680B2FFF74EFA8B
:105A5000641E05D009F1010081460578361DCCE7AA
:105A6000BDE8F0872DE9F0470546AE48DDE9086955
:105A7000007B147890468FB2B9F1000F4FEA807026
:105A80003ED000284FEAC37001DA30BB1AE040B9BB
:105A9000210939F811203946A8B2FFF727FA761EF6
:105AA000DED004F00F0139F81120681C394680B2AD
:105AB000FFF71CFA761ED3D008F10100AD1C80461A
:105AC0000478E5E7200906D0210939F81120394684
:105AD000A8B2FFF70BFA761EC2D0200708D004F058
