:020000040800F2
:1000000048040020A90200080903000809030008A9
:1000100009030008090300080903000800000000A4
:1000200000000000000000000000000009030008BC
:100030000903000800000000090300080903000884
:100040000903000809030008090300080903000860
:100050000903000809030008090300080903000850
:100060000903000809030008090300080903000840
:100070000903000809030008090300080903000830
:100080000903000809030008090300080903000820
:100090000903000809030008090300080903000810
:1000A0000903000809030008090300080903000800
:1000B00009030008090300080903000809030008F0
:1000C00009030008090300080903000809030008E0
:1000D00009030008090300080903000809030008D0
:1000E00009030008090300080903000809030008C0
:1000F00009030008090300080903000809030008B0
:10010000090300080903000809030008090300089F
:10011000090300080903000809030008090300088F
:10012000090300080903000809030008090300087F
:100130005FF808F180B500AF154B154A126842F020
:1001400001021A60124A124B5968124B0B4053605D
:100150000F4A0F4B1B6823F0847323F48033136022
:100160000B4B0B4A126822F480221A60084B084A93
:10017000526822F4FE025A60054B4FF41F029A6047
:1001800000F00CF8044B4FF000629A6080BD00BF95
:10019000001002400000FFF800ED00E080B500AF65
:1001A00000F002F880BD00BF80B483B000AF002330
:1001B0007B6000233B603A4B394A126842F480323C
:1001C0001A60374B1B6803F400333B607B680133D4
:1001D0007B603B68002B03D17B68B3F5A06FF0D147
:1001E0002F4B1B6803F40033002B02D001233B602C
:1001F00001E000233B603B68012B4BD1294B294A8E
:10020000126842F010021A60264B264A126822F049
:1002100003021A60234B234A126842F002021A605A
:100220001F4B1F4A52685A601D4B1D4A52685A6044
:100230001B4B1B4A526842F480625A60184B184AA2
:10024000526822F47C125A60154B154A526842F4E7
:10025000E8125A60124B124A126842F080721A6019
:1002600000BF0F4B1B6803F00073002BF9D00C4B41
:100270000B4A526822F003025A60094B084A52683E
:1002800042F002025A6000BF054B5B6803F00C03AA
:10029000082BF9D10C37BD465DF8047B704700BFD1
:1002A000001002400020024080B582B000AF114B28
:1002B0007B60114B3B6007E03B681A1D3A607A682F
:1002C000111D796012681A603A680C4B9A42F3D398
:1002D0000B480C494FF000028842B8BF40F8042B8D
:1002E000FFF6FAAFFFF726FF00F080FB0837BD46A8
:1002F00080BD00BFB43100080000002004000020D1
:10030000040000204800002080B400AFFEE700BFDA
:1003100080B483B000AF78604FF020437A681268F1
:10032000796848687968896808437968C9680843C2
:10033000796809690843796849690843796889696E
:1003400008437968C96908437968096A0843796884
:10035000496A08437968896A08437968C96A084321
:100360007968096B014343F822107B689B68082B6E
:100370000DD14FF020437A6812684FF02041786821
:10038000006851F8201041F0400143F822104FF06E
:1003900020437A68126801327968496B0868796885
:1003A000496B4968090108437968496B8968090202
:1003B00008437968496BC968090408437968496B3F
:1003C0000969090508437968496B496909060843C1
:1003D0007968496B8969014343F822107B68DB6ABD
:1003E000B3F5804F20D1164B7A6812687968896B13
:1003F00008687968896B4968090108437968896BDD
:100400008968090208437968896B09690905084305
:100410007968896B4969090608437968896B896934
:10042000014343F8221006E0054B7A6812686FF02A
:10043000704143F822100C37BD465DF8047B7047CD
:10044000040100A080B483B000AF78600B46FB705D
:10045000FB78002B0CD04FF020434FF020427968FE
:1004600052F8212042F001017A6843F822100BE093
:100470004FF020424FF02043796853F82110054B8C
:100480000B40796842F821300C37BD465DF8047B9B
:10049000704700BFFEFF0F0080B483B000AF7860EC
:1004A00039604FF0C0437A6892B21A80044B3A68C0
:1004B00092B21A800C37BD465DF8047B704700BFCE
:1004C0000000026080B483B000AF7860044B7A68AB
:1004D00092B21A800C37BD465DF8047B704700BFAE
:1004E0000000026080B485B000AF78600023FB603C
:1004F00002E0FB680133FB60FA687B689A42F8D33C
:100500001437BD465DF8047B704700BF80B489B0E6
:1005100000AF786039600023FB6100233B6100235A
:10052000BB610023FB6000237B610023BB603B6851
:10053000DB7803F00F03FB613B68DB7803F010030B
:10054000002B04D03B689B78FA691343FB613B683E
:100550001B88DBB2002B44D07B681B687B610023C7
:10056000BB6138E0BB69012202FA03F3FB603B6820
:100570001B881A46FB6813403B613A69FB689A4244
:1005800026D1BB699B00FB60FB680F2202FA03F3D4
:10059000BB60BB68DB437A6913407B61FB68FA6927
:1005A00002FA03F37A6913437B613B68DB78282BFB
:1005B00005D1BB6901229A407B685A6108E03B681B
:1005C000DB78482B04D1BB6901229A407B681A6111
:1005D000BB690133BB61BB69072BC3D97B687A69EF
:1005E0001A603B681B88FF2B46D97B685B687B6180
:1005F0000023BB613AE0BB690833012202FA03F32E
:10060000FB603B681B881A46FB6813403B613A69F4
:10061000FB689A4227D1BB699B00FB60FB680F22F5
:1006200002FA03F3BB60BB68DB437A6913407B616A
:10063000FB68FA6902FA03F37A6913437B613B684A
:10064000DB78282B05D1BB69083301229A407B68EF
:100650005A613B68DB78482B05D1BB69083301221E
:100660009A407B681A61BB690133BB61BB69072B88
:10067000C1D97B687A695A602437BD465DF8047B2E
:10068000704700BF80B485B000AF78600B467B80B8
:100690000023FB737B689A687B881340002B02D091
:1006A0000123FB7301E00023FB73FB7B1846143727
:1006B000BD465DF8047B704780B483B000AF7860BE
:1006C0000B467B807A887B681A610C37BD465DF8E3
:1006D000047B704780B483B000AF78600B467B80AA
:1006E0007A887B685A610C37BD465DF8047B704799
:1006F00080B582B000AF7C20012100F0CFF94FF42B
:100700008070012100F0ACF94CF23373BB801823E8
:10071000FB710323BB713B1D21481946FFF7F6FE11
:100720004FF68073BB801823FB710323BB713B1D05
:100730001C481946FFF7EAFE1023FB714023BB80DB
:100740003B1D17481946FFF7E1FE0223BB803B1D06
:1007500014481946FFF7DAFE1823FB718023BB808B
:100760003B1D0F481946FFF7D1FE4FF40063BB80D5
:100770003B1D0B481946FFF7C9FE09488021FFF7CA
:100780009BFF08480221FFF7A5FF05481021FFF74E
:1007900093FF03482021FFF78FFF0837BD4680BD38
:1007A000001401400018014080B596B000AF02234C
:1007B0003B6000237B600523BB600023FB600023BC
:1007C0003B6100237B614FF08053BB610023FB61E1
:1007D00000233B6300233B6208237B621023BB6240
:1007E0000023FB6200237B630023BB630023FB63C6
:1007F0004FF480533B6400237B640023BB640023DD
:10080000FB643B463B653B467B6507F11C03184692
:10081000FFF77EFD00200121FFF714FE5837BD468B
:1008200080BD00BF80B500AF6E480221FFF752FFC8
:100830006D48FFF757FE6B480221FFF73DFF6A48FE
:10084000FFF750FE00200121FFF726FE0A20FFF7E8
:1008500049FE15203021FFF71FFE11204021FFF730
:100860001BFE102041F22861FFF716FE1220002126
:10087000FFF712FE132041F24D01FFF70DFE0A2093
:10088000FFF730FE12201021FFF706FE0A20FFF7C7
:1008900029FE102042F22061FFF7FEFD132043F2F3
:1008A0004D41FFF7F9FD0A20FFF71CFE01204FF430
:1008B0008071FFF7F1FD02204FF44071FFF7ECFD6E
:1008C000032041F23001FFF7E7FD082040F2046108
:1008D000FFF7E2FD09200021FFF7DEFD0A200821D5
:1008E000FFF7DAFD41200221FFF7D6FD60204FF42B
:1008F0001C51FFF7D1FD61200121FFF7CDFD9020B4
:100900004FF4C171FFF7C8FD93200121FFF7C4FD2B
:10091000A3201021FFF7C0FD0A20FFF7E3FD3020E0
:100920000021FFF7B9FD312040F20251FFF7B4FD7D
:10093000322040F20731FFF7AFFD332040F205319E
:10094000FFF7AAFD34200421FFF7A6FD352040F271
:100950000241FFF7A1FD362040F20771FFF79CFD31
:10096000372040F20351FFF797FD382041F205513F
:10097000FFF792FD392041F20551FFF78DFD0A2066
:10098000FFF7B0FD07200121FFF786FD0A20FFF7E2
:10099000A9FD07202121FFF77FFD07202321FFF775
:1009A0007BFD0A20FFF79EFD07203321FFF774FD32
:1009B0000A20FFF797FD072040F23311FFF76CFD87
:1009C00050200021FFF768FD5120EF21FFF764FD63
:1009D00052200021FFF760FD532040F23F11FFF746
:1009E0005BFD80BD00180140FFFF0F0080B500AF28
:1009F000FFF77EFEFFF7D8FEFFF714FF42F21070FC
:100A0000FFF770FD4FF6FF7000F0A8FE6420FFF7BF
:100A100069FD002000F0F4FC6420FFF763FD00F0A6
:100A20009FF8F0204FF4A07100F0C0F900F01AFA1E
:100A30004FF6FF7000F092FE07480849012200F0CF
:100A400061F9054B1A88054B1B8810461946002290
:100A500000F096FCF0E700BF040000200600002034
:100A600080B483B000AF78600B46FB70FB78002B3E
:100A700006D0094B084A51697A680A435A6106E070
:100A8000054B054A51697A68D2430A405A610C37CE
:100A9000BD465DF8047B70470010024080B483B00F
:100AA00000AF78600B46FB70FB78002B06D0094B3B
:100AB000084A91697A680A439A6106E0054B054A3B
:100AC00091697A68D2430A409A610C37BD465DF855
:100AD000047B70470010024080B584B000AF03462D
:100AE000FB800A2000F0CAF8FB881C48194600F079
:100AF000B5FE00BF1948012100F02EFF0346002B70
:100B0000F8D0164800F0B8FE0346FB8113480021D8
:100B100000F0A4FE00BF1148012100F01DFF0346B4
:100B2000002BF8D00D4800F0A7FE0346BB81FB89DF
:100B30001B019BB203F47F639AB2BB891B0B9BB270
:100B40009BB213439BB29BB25B007B810A2000F0F7
:100B500095F87B8918461037BD4680BD00300140AE
:100B600080B586B000AF01200121FFF797FFA023D9
:100B7000BB821823FB750323BB7507F114033848A8
:100B80001946FFF7C3FC4023BB820423FB750323F4
:100B9000BB7507F1140332481946FFF7B7FC4FF451
:100BA00080500121FFF77AFF2E48002100F036FE29
:100BB00000233B804FF482737B804FF40063BB8043
:100BC0000023FB8000233B814FF400737B8138239B
:100BD000BB810023FB8107233B823B46214819460A
:100BE00000F0D8FD1F48002100F096FE1D480121AD
:100BF00000F014FE1B48002100F06EFE19484FF46F
:100C0000807100F047FE1023FB750323BB75802322
:100C1000BB8207F1140314481946FFF777FC12480A
:100C20008021FFF749FD0423FB750323BB75402397
:100C3000BB8207F114030C481946FFF767FC0B4B06
:100C400000221A60094B1A68094B1A60094B0022EE
:100C50001A80084B1A88084B1A801837BD4680BD89
:100C60000008014000300140000C01400C00002051
:100C700008000020120000201000002080B485B081
:100C800000AF0346FB800023FB8102E0FB890133B8
:100C9000FB81FA89FB889A42F8D31437BD465DF888
:100CA000047B704780B582B000AF09488021FFF710
:100CB00011FD4FF41040FFF70FFF0346FB8004487F
:100CC0008021FFF7F9FCFB8818460837BD4680BD38
:100CD000000C014080B582B000AF09488021FFF7C9
:100CE000F9FC4FF45040FFF7F7FE0346FB80044841
:100CF0008021FFF7E1FCFB8818460837BD4680BD20
:100D0000000C014080B586B000AFF860B9601346B2
:100D1000FB7100F061F80346FB75FB7D002B38D0BA
:100D2000FFF7C0FF0346C3F57F630F33BB82FFF7B6
:100D3000D1FF03467B82FB79002B24D000F07CF8A6
:100D4000034683F00103DBB2002B1CD07A8A134BDD
:100D50001B881BB292FBF3F39AB2114B1B889BB218
:100D600013449AB2FB681A80BA8A0E4B1B881BB2D6
:100D700092FBF3F39AB20C4B1B889BB213449AB2CA
:100D8000BB681A8005E0FB687A8A1A80BB68BA8A59
:100D90001A80FB7D18461837BD4680BD2400002010
:100DA00026000020280000202A00002080B483B004
:100DB00000AF02460B46FA80BB80054BFA881A80CA
:100DC000044BBA881A800C37BD465DF8047B704727
:100DD000100000201200002080B500AF054840211F
:100DE000FFF750FC0346002B01D1012300E0002354
:100DF000184680BD000C014080B483B000AFF8807D
:100E0000B9807A803B80084BFA881A80074BBA88F1
:100E10001A80074B7A881A80064B3A881A800C375A
:100E2000BD465DF8047B70472400002026000020AA
:100E3000280000202A00002080B400AF074B1B8848
:100E4000002B03D0064B1B88002B01D1012300E0AF
:100E500000231846BD465DF8047B7047240000203F
:100E60002800002080B584B002AFFFF7E5FF0346FD
:100E700083F00103DBB2002B40F068824FF6FF7075
:100E800000F06CFC0023009301230193964832216B
:100E900064224FF6E07300F05FFB002300930A200A
:100EA00023213C22232300F083FB002300932320F3
:100EB0000A2123223C2300F07BFB00230093012323
:100EC00001938A48322178224FF6E07300F044FB08
:100ED00000BFFFF781FF034683F00103DBB2002B65
:100EE000F7D1BA1D3B1D104619460022FFF70AFF35
:100EF000FA8840F6F9739A4219D8BA8840F6F9731D
:100F00009A4214D8FB889AB2794B1A80BB889AB25D
:100F1000784B1A8000BF0023009301230193764889
:100F2000322178224FF6E07300F016FB01E000BF9B
:100F3000CEE7FFF751FF0346002BFAD100230093C1
:100F4000012301936D48322178224FF6E07300F0BF
:100F500003FB4FF6FF7000F001FC00230093012318
:100F600001936148322164224FF6E07300F0F4FAF5
:100F700000230093B4202321E622232300F018FB52
:100F800000230093CD200A21CD223C2300F010FB4A
:100F900000230093012301935448322178224FF615
:100FA000E07300F0D9FA00BFFFF716FF034683F0A5
:100FB0000103DBB2002BF7D1BA1D3B1D10461946C9
:100FC0000022FFF79FFEFA8840F6F9739A4219D87B
:100FD000BA8840F6F9739A4214D8FB889AB2444B07
:100FE0005A80BB889AB2434B5A8000BF00230093BB
:100FF000012301934048322178224FF6E07300F03C
:10100000ABFA01E000BFCEE7FFF7E6FE0346002B98
:10101000FAD100230093012301933848322178222A
:101020004FF6E07300F098FA4FF6FF7000F096FB71
:1010300000230093012301932B4832216E224FF6A7
:10104000E07300F089FA002300930A2040F21D119A
:101050003C2240F21D1300F0ABFA00230093232042
:101060004FF4827123224FF49B7300F0A1FA002306
:101070000093012301931D48322178224FF6E0733B
:1010800000F06AFA00BFFFF7A7FE034683F00103F2
:10109000DBB2002BF7D1BA1D3B1D104619460022CA
:1010A000FFF730FEFA8840F6F9739A4219D8BA88E9
:1010B00040F6F9739A4214D8FB889AB20C4B9A8086
:1010C000BB889AB20B4B9A8000BF00230093012388
:1010D00001930948322178224FF6E07300F03CFA80
:1010E0000EE000BFCEE700BF6C3100087831000889
:1010F0002C000020380000208431000890310008C6
:10110000FFF76AFE0346002BFAD100230093012368
:1011100001939048322178224FF6E07300F01CFAD8
:101120004FF6FF7000F01AFB002300930123019398
:10113000894832216E224FF6E07300F00DFA002349
:101140000093B42040F21D11E62240F21D1300F07E
:101150002FFA00230093CD204FF48271CD224FF45B
:101160009B7300F025FA00230093012301937B4831
:10117000322178224FF6E07300F0EEF900BFFFF75E
:101180002BFE034683F00103DBB2002BF7D1BA1D1F
:101190003B1D104619460022FFF7B4FDFA8840F6C1
:1011A000F9739A4219D8BA8840F6F9739A4214D85A
:1011B000FB889AB26A4BDA80BB889AB2694BDA80B4
:1011C00000BF002300930123019367483221782256
:1011D0004FF6E07300F0C0F901E000BFCEE7FFF783
:1011E000FBFD0346002BFAD100230093012301935A
:1011F0005848322178224FF6E07300F0ADF9584B91
:10120000DB881AB2564B1B881BB2D21ACD2319B2F7
:1012100023231BB2CB1A92FBF3F39AB2534B1A80DF
:1012200023239AB24E4B1B8819B2504B1B881BB21A
:1012300091FBF3F39BB2D31A9BB29AB24C4B1A8038
:10124000484BDB881AB2474B1B881BB2D21A40F2BC
:101250001D1319B223231BB2CB1A92FBF3F39AB2DC
:10126000444B1A8023239AB23E4B1B8819B2414B40
:101270001B881BB291FBF3F39BB2D31A9BB29AB2B9
:101280003D4B1A80364B9B881AB2354B5B881BB29C
:10129000D21A232319B2CD231BB2CB1A92FBF3F33C
:1012A0009AB2324B5A80CD239AB22D4B5B8819B239
:1012B0002E4B5B881BB291FBF3F39BB2D31A9BB20C
:1012C0009AB22B4B5A80274B9B881AB2254B5B88CE
:1012D0001BB2D21A40F21D1319B223231BB2CB1A30
:1012E00092FBF3F39AB2234B5A8023239AB21D4BFD
:1012F0005B8819B21F4B5B881BB291FBF3F39BB267
:10130000D31A9BB29AB21C4B5A80184B1888184BB0
:101310001988184B1A88184B1B8800B209B212B2F0
:101320001BB2FFF769FD4FF6FF7000F017FA0023BC
:10133000009301230193114814216E224FF6E073AC
:1013400000F00AF94FF47A70FFF7CCF80837BD4681
:1013500080BD00BF903100086C3100087831000872
:101360002C000020380000208431000814000020E8
:101370001C00002018000020200000209C310008E4
:1013800080B584B000AF13460246FA800A46BA80A0
:101390007B80FB88FB81BB88BB81184B1B78012BB2
:1013A0000FD1BB88EF2B03D8FB88B3F5A07F00D308
:1013B00021E0BB88FB81FB88C3F59F730133BB81B0
:1013C00007E0FB88EF2B03D8BB88B3F5A07F00D3E1
:1013D00011E0FB8920201946FFF75EF8BB89212028
:1013E0001946FFF759F84FF0C04322221A807B8834
:1013F0001846FFF767F81037BD4680BD440000204F
:1014000080B483B000AF0346FB71044BFA791A70C5
:101410000C37BD465DF8047B704700BF44000020D8
:1014200080B588B000AFF880B980FA703B80494B36
:101430001B68002B01D1002387E0464B1B685B78BB
:10144000FB74444B1B689B78BB74FA78FB7C9A4214
:1014500003D3FA78BB7C9A4201D9002375E03D4B57
:101460001B685B78FA78D31A7B743A4B1B685A680E
:101470007B7C9B0013441B883B74364B1B681B789A
:10148000FB73344B1B689B687B61324B1B685A684B
:101490007B7C9B0013445B88BB81BB897A691344C6
:1014A0007B61BB883B830023FB7749E0FB887B8320
:1014B0004FF40043BB837B691B78BB81BB891B0254
:1014C000BB817B6901337B617B691B78BB777B695F
:1014D00001337B61BB7F9AB2BB891343BB8100237D
:1014E000BB7723E0BA89BB8B13409BB2002B08D09B
:1014F000798B3A8B3B88084611461A46FFF740FF26
:101500000BE097F82C30002B07D0798B3A8B3B8D72
:10151000084611461A46FFF733FF7B8B01337B8366
:10152000BB8B5B08BB83BB7F0133BB77BA7F3B7C44
:101530009A42D7D33B8B01333B83FB7F0133FB774D
:10154000FA7FFB7B9A42B1D33B7C18462037BD46DD
:1015500080BD00BF0000002090B589B002AFF860E8
:1015600079813A81FB80F86800F012FA03463B610A
:1015700000237B6115E07B69FA6813441A78788947
:101580003989FB883C8D009497F82C400194FFF733
:1015900047FF03461A467B8913447B817B690133ED
:1015A0007B617A693B699A42E5DB1C37BD4690BD99
:1015B00080B58EB000AFF860B9607A603B60FA68C1
:1015C0007B689A422FD13A68BB689A4215DDBB68A6
:1015D000FB620DE0FB6899B2FB6A9AB2B7F8403043
:1015E000084611461A46FFF7CBFEFB6A0133FB6241
:1015F000FA6A3B689A42EDDBACE03B68FB620DE0C7
:10160000FB6899B2FB6A9AB2B7F8403008461146B7
:101610001A46FFF7B5FEFB6A0133FB62FA6ABB6844
:101620009A42EDDB96E0BA683B689A422FD17A681D
:10163000FB689A4215DDFB683B630DE03B6B99B29A
:10164000BB689AB2B7F84030084611461A46FFF711
:1016500097FE3B6B01333B633A6B7B689A42EDDB51
:1016600078E07B683B630DE03B6B99B2BB689AB254
:10167000B7F84030084611461A46FFF781FE3B6B2B
:1016800001333B633A6BFB689A42EDDB62E07A68B8
:10169000FB68D31ABB623A68BB68D31A7B62BB6A29
:1016A000002BB8BF5B423B627B6A002BB8BF5B423A
:1016B000FB61FA687B689A4201DA012301E04FF08E
:1016C000FF33BB61BA683B689A4201DA012301E04B
:1016D0004FF0FF337B613A6AFB69D31A7B637B6807
:1016E00099B23B689AB2B7F84030084611461A469C
:1016F000FFF746FE26E0FB6899B2BB689AB2B7F8DE
:101700004030084611461A46FFF73AFE7B6B5B00F5
:101710003B61FB695A423B699A4207DA7A6BFB6983
:10172000D31A7B63FA68BB691344FB603A693B6A6E
:101730009A4207DA7A6B3B6A13447B63BA687B6927
:101740001344BB60FA687B689A42D4D1BA683B689C
:101750009A42D0D13837BD4680BD00BF80B584B035
:1017600000AF0346FB800023FB604FF0C043222202
:101770001A800023FB6006E0FB881846FEF7A2FEF5
:10178000FB680133FB60FB68B3F5963FF4DB103771
:10179000BD4680BD80B485B000AF7860396000235D
:1017A000FB817B681B88FB81FB8903F44153FB8130
:1017B0003B681A883B685B8813439AB23B689B88F6
:1017C00013439AB23B68DB8813439AB23B681B8988
:1017D00013439AB23B685B8913439AB23B689B8977
:1017E00013439AB23B68DB8913439AB2FB891343D4
:1017F000FB817B68FA891A807B689B8B9BB223F400
:1018000000639AB27B689A833B681A8A7B681A8263
:101810001437BD465DF8047B704700BF80B483B0C9
:1018200000AF78600B46FB70FB78002B08D07B681C
:101830001B889BB243F040039AB27B681A8007E092
:101840007B681B889BB223F040039AB27B681A80A6
:101850000C37BD465DF8047B704700BF80B483B091
:1018600000AF78600B467B807B687A889A810C3762
:10187000BD465DF8047B704780B483B000AF7860EC
:101880007B689B899BB218460C37BD465DF8047B8C
:10189000704700BF80B483B000AF78600B467B8098
:1018A0007A884FF6FF639A4208D07B681B889BB208
:1018B00043F480739AB27B681A8007E07B681B88C8
:1018C0009BB223F480739AB27B681A800C37BD46B2
:1018D0005DF8047B704700BF80B483B000AF7860D0
:1018E0000B46FB70FB78002B08D07B689B889BB273
:1018F00043F004039AB27B689A8007E07B689B8878
:101900009BB223F004039AB27B689A800C37BD46E1
:101910005DF8047B704700BF80B483B000AF78608F
:101920000B46FB70FB78002B08D07B681B889BB2B2
:1019300043F400539AB27B681A8007E07B681B88E7
:101940009BB223F400539AB27B681A800C37BD46D1
:101950005DF8047B704700BF80B485B000AF78604D
:101960000B467B800023FB737B681B899AB27B88C4
:1019700013409BB2002B02D00123FB7301E0002334
:10198000FB73FB7B18461437BD465DF8047B70473C
:1019900020F0030110F00300C0F1000051F8043BF7
:1019A00000F1040C4FEACC0C6FF000021CBF22FACD
:1019B0000CF213434FF0010C4CEA0C2C4CEA0C4C8B
:1019C000A3EB0C0222EA030212EACC1204BF51F884
:1019D000043B0430F4D013F0FF0F1FBF013013F4A9
:1019E0007F4F013013F47F0F18BF0130704700BFE5
:1019F00000000000000000000000000000000000E7
:101A000000000000000000000000000000000000D6
:101A1000000008000800080008000800080008008E
:101A20000800080000000800080000000000000096
:101A3000000022002200220022000000000000001E
:101A40000000000000000000000000000000000096
:101A5000000009000900120012007F80120024001B
:101A6000FF8024002400480048000000000000001F
:101A700004001F0034002400240014000C000600A1
:101A800007000500050025003E00040000000000DE
:101A900000007040888089008A00720004000800FD
:101AA0001380144024404440838000000000000064
:101AB00000001C002200220026001C0030004840CC
:101AC0008C408480828043003F8000000000000042
:101AD00000000800080008000800000000000000E6
:101AE00000000000000000000000000000000000F6
:101AF0000000018006000C0008001000100010001B
:101B000010001000100008000C000600018000000A
:101B10000000600018000C00040002000200020037
:101B200002000200020004000C0018006000000027
:101B30000000080008006B00360014001C001400B0
:101B40000000000000000000000000000000000095
:101B5000000000000000000000000800080008006D
:101B60000800FF80080008000800000000000000D6
:101B70000000000000000000000000000000000065
:101B80000000000000001800180008000800100005
:101B90000000000000000000000000000000000045
:101BA0003F000000000000000000000000000000F6
:101BB0000000000000000000000000000000000025
:101BC00000000000000018001800000000000000E5
:101BD0000000008001000100020002000400040077
:101BE0000800080010001000200020004000000045
:101BF00000001C0022002200410041004100410081
:101C000041004100220022001C00000000000000F2
:101C1000000008007800080008000800080008001C
:101C200008000800080008007F0000000000000015
:101C300000007C00420002000200020004000400D8
:101C400008001000200040007E000000000000009E
:101C500000003C0002000200020002001C00020022
:101C600002000200020002003C0000000000000030
:101C7000000004000C001400140024004400440080
:101C80008400FF00040004000400000000000000C5
:101C900000003E0020002000200038000400020068
:101CA00002000200020004003800000000000000F2
:101CB00000001E002000200040005C006200410087
:101CC00041004100410022001C0000000000000013
:101CD00000007F000100020004000400080008006A
:101CE0001000100010002000200000000000000084
:101CF00000003E004100410041002600180026007F
:101D000042004100410042003C0000000000000091
:101D100000001C002200410041004100410023005E
:101D20001D000100020002003C0000000000000055
:101D30000000000000000000000018001800000073
:101D40000000000000001800180000000000000063
:101D50000000000000000000000018001800000053
:101D60000000000000001800180008000800100023
:101D700000000000000000000000008003000C00D4
:101D8000300030000C000300008000000000000064
:101D900000000000000000000000000000007F8044
:101DA000000000007F800000000000000000000034
:101DB00000000000000000000000400030000C00A7
:101DC000030003000C003000400000000000000091
:101DD00000007E00430041000100020004000800F2
:101DE00010001000000010001000000000000000B3
:101DF00000001E0021004700C900910091009300DF
:101E0000930097004DC062003E00000000000000FB
:101E100000000000000008001C0014001200220056
:101E200021007F00408040808040000000000000D2
:101E30000000000000007E004100410042007C00E4
:101E400042004100410041007E000000000000000F
:101E50000000000000001F006100400080008000C2
:101E600080008000400060001F00000000000000B3
:101E70000000000000007C004200410041004100E1
:101E800041004100410042007C00000000000000D1
:101E90000000000000007F004000400040004000C3
:101EA0007E004000400040007F0000000000000075
:101EB0000000000000007F004000400040004000A3
:101EC0007E00400040004000400000000000000094
:101ED0000000000000000F80308020004000400023
:101EE00043804080208030800F8000000000000090
:101EF000000000000000410041004100410041009D
:101F00007F0041004100410041000000000000004E
:101F10000000000000007F00080008000800080022
:101F200008000800080008007F0000000000000012
:101F30000000000000001E0002000200020002007B
:101F400002000200020002003C000000000000004D
:101F50000000000000004100420044004800700002
:101F60005000480046004100408000000000000092
:101F70000000000000004000400040004000400021
:101F800040004000400040007F00000000000000D2
:101F9000000000000000C300C300E300A500A5008E
:101FA000B500990099008100810000000000000048
:101FB0000000000000004100610051005100490094
:101FC00049004500450043004100000000000000BA
:101FD0000000000000001E00210040804080408082
:101FE00040804080408021001E0000000000000072
:101FF0000000000000007E0041004100410042005E
:102000007C00400040004000400000000000000054
:102010000000000000001E00210040804080408041
:1020200040804080408021001E00020001800000AE
:102030000000000000007C0042004200420044001A
:102040007800480044004200410000000000000009
:102050000000000000003F00410040006000180048
:1020600006000100010043007C00000000000000A9
:10207000000000000000FF800800080008000800C1
:102080000800080008000800080000000000000028
:1020900000000000000041004100410041004100FB
:1020A00041004100410022003C000000000000000F
:1020B000000000000000804040804080210021009E
:1020C0002200120012000C000C00000000000000B2
:1020D0000000000000008040804048804C804C8020
:1020E00054805280330033002100000000000000C3
:1020F00000000000000080404080210012000C0021
:102100000C00120021004080804000000000000010
:1021100000000000000080404080210022001400E8
:102120000800080008000800080000000000000087
:102130000000000000007F80008001000200040019
:1021400008001000200040007F8000000000000018
:1021500000001F0010001000100010001000100000
:102160001000100010001000100010001F000000F0
:1021700000004000200020001000100008000800AF
:1021800004000400020002000100010000800000C1
:1021900000007C00040004000400040004000400AB
:1021A0000400040004000400040004007C0000009B
:1021B0000000040004000C000A001A0012001100C4
:1021C000210021004080000000000000000000000D
:1021D00000000000000000000000000000000000FF
:1021E00000000000000000000000FFC00000000030
:1021F00008000400000000000000000000000000D3
:1022000000000000000000000000000000000000CE
:10221000000000000000000000003C00020002007E
:102220001E002200420046003B00000000000000AB
:10223000000040004000400040005E00620041009D
:1022400041004100410062005C000000000000000D
:10225000000000000000000000001F0020004000FF
:1022600040004000400020001F000000000000006F
:10227000000001000100010001001D0023004100D9
:1022800041004100410023003D000000000000002B
:10229000000000000000000000001E0021004100BE
:1022A0007F004000400020001F00000000000000F0
:1022B000000007801800100010007F801000100040
:1022C00010001000100010001000000000000000BE
:1022D000000000000000000000001D00230041007D
:1022E00041004100410023003D00010002003C008C
:1022F000000040004000400040004E0051006100DE
:102300004100410041004100410000000000000088
:102310000000180018000000000078000800080005
:102320000800080008000800080000000000000085
:1023300000000C000C00000000003C000400040041
:1023400004000400040004000400040004007800F9
:1023500000004000400040004000410046004800AE
:10236000700050004C0042004100000000000000DE
:1023700000003C0004000400040004000400040009
:102380000400040004000400040000000000000039
:1023900000000000000000000000B300CC80888036
:1023A0008880888088808880888000000000000005
:1023B000000000000000000000004E0071006100FD
:1023C00041004100410041004100000000000000C8
:1023D000000000000000000000001C00220041007E
:1023E00041004100410022001C00000000000000EC
:1023F000000000000000000000005E0062004100DC
:1024000041004100410062005C004000400040008B
:10241000000000000000000000001D00230041003B
:1024200041004100410023003D0001000100010086
:10243000000000000000000000002700290031001B
:1024400020002000200020002000000000000000EC
:10245000000000000000000000003E0040004000BE
:1024600030000C00020042007C0000000000000070
:10247000000000000000100010007F00100010009D
:1024800010001000100010000F00000000000000FD
:102490000000000000000000000042004200420076
:1024A00042004200420046003A00000000000000E6
:1024B000000000000000000000008080410041009A
:1024C0004200220024001400180000000000000058
:1024D00000000000000000000000804088404C80A8
:1024E0004C80528052803300210000000000000028
:1024F00000000000000000000000408021001200E9
:102500000C000C00120021004080000000000000C0
:10251000000000000000000000008040408040807B
:102520002100320012000C000C0008001000E00036
:10253000000000000000000000007F800100020099
:1025400004000800100020007F8000000000000050
:102550000000070008000800080008000800080044
:10256000300008000800080008000800070000000C
:102570000000080008000800080008000800080023
:102580000800080008000800080008000800000013
:1025900000003800040004000400040004000400EB
:1025A00003000400040004000400040038000000DC
:1025B000000000000000000000000000000070406B
:1025C0008C4083800000000000000000000000003C
:1025D00000000000000008001C001400120022008F
:1025E00021007F004080408080400000000000000B
:1025F0000000000000003E002000200020003E00FF
:1026000021002100210021003E0000000000000008
:102610000000000000007E004100410042007C00FC
:1026200042004100410041007E0000000000000027
:102630000000000000003F8020002000200020005B
:1026400020002000200020002000000000000000EA
:102650000000000000001F00110011001100110017
:102660001100210021002100FF8080808080000077
:102670000000000000007F004000400040004000DB
:102680007E004000400040007F000000000000008D
:10269000000000000000C98049002A002A001C0038
:1026A0002A002A006B004900C980000000000000D9
:1026B0000000000000007E000100010001001E007B
:1026C00001000100010001007E0000000000000088
:1026D00000000000000041004300450045004900A3
:1026E000490051005100610041000000000000005D
:1026F00022001C0000004100430045004500490045
:10270000490051005100610041000000000000003C
:10271000000000000000410042004400480070003A
:102720004800440044004200410000000000000056
:102730000000000000001F00110011001100110036
:1027400011001100110021006100000000000000D4
:10275000000000000000C300C300E300A500A500C6
:10276000B500990099008100810000000000000080
:102770000000000000004100410041004100410014
:102780007F004100410041004100000000000000C6
:102790000000000000001E002100408040804080BA
:1027A00040804080408021001E00000000000000AA
:1027B0000000000000007F00410041004100410096
:1027C00041004100410041004100000000000000C4
:1027D0000000000000007E00410041004100420076
:1027E0007C0040004000400040000000000000006D
:1027F0000000000000001F00610040008000800019
:1028000080008000400060001F0000000000000009
:10281000000000000000FF80080008000800080019
:102820000800080008000800080000000000000080
:1028300000000000000080404080410021001200A4
:1028400012000C00080018007000000000000000DA
:10285000000000000000080008003E00C9808880D9
:102860008880C9803E0008000800000000000000C9
:1028700000000000000080404080210012000C0099
:102880000C00120021004080804000000000000089
:1028900000000000000041004100410041004100F3
:1028A00041004100410041007FC000400040000065
:1028B00000000000000042004200420042004200CE
:1028C00046003A0002000200020000000000000082
:1028D00000000000000088808880888088808880D0
:1028E0008880888088808880FF8000000000000049
:1028F00000000000000088808880888088808880B0
:102900008880888088808880FFC000400040000068
:10291000000000000000F0001000100010001F0078
:1029200010801080108010801F0000000000000048
:10293000000000000000408040804080408078809F
:10294000448044804480448078800000000000007F
:1029500000000000000040004000400040007E00F9
:1029600041004100410041007E00000000000000E5
:102970000000000000007C000200010001001F00B8
:1029800001000100010002007C00000000000000C6
:102990000000000000008700888090409040F040D8
:1029A0009040904090408880870000000000000028
:1029B0000000000000003E004200420042004200D1
:1029C0003E001200220042008200000000000000D1
:1029D000000000000000000000003C0002000200B7
:1029E0001E002200420046003B00000000000000E4
:1029F00000001E002000200040005E006200410038
:102A000041004100410022001C00000000000000C5
:102A1000000000000000000000003E002100210036
:102A20003E002100210021003E00000000000000C7
:102A3000000000000000000000003F802000200097
:102A400020002000200020002000000000000000E6
:102A5000000000000000000000001E001200120034
:102A60001200120022002200FFC0804080400000BF
:102A7000000000000000000000001E0021004100D6
:102A80007F004000400020001F0000000000000008
:102A90000000000000000000000049002A002A0099
:102AA0001C002A0049004900888000000000000046
:102AB000000000000000000000007C000200020096
:102AC0001C000200020002007C0000000000000068
:102AD000000000000000000000004100430045002D
:102AE0004900490051006100410000000000000061
:102AF000000022001C0000000000410043004500CF
:102B00004900490051006100410000000000000040
:102B100000000000000000000000430042004400EC
:102B2000480070004C00420041000000000000001E
:102B3000000000000000000000001F001100110054
:102B400011001100110021004100000000000000F0
:102B5000000000000000000000004100630063006E
:102B600055005500550049004100000000000000DC
:102B70000000000000000000000041004100410092
:102B80007F004100410041004100000000000000C2
:102B9000000000000000000000001C0022004100B6
:102BA00041004100410022001C0000000000000024
:102BB000000000000000000000003F002100210094
:102BC0002100210021002100210000000000000060
:102BD000000000000000000000005E0062004100F4
:102BE00041004100410062005C00400040004000A4
:102BF000000000000000000000001F002000400056
:102C000040004000400020001F00000000000000C5
:102C1000000000000000000000007F8008000800A5
:102C2000080008000800080008000000000000007C
:102C30000000000000000000000080404080408054
:102C40002100320012000C000C0008001000E0000F
:102C5000000008000800080008007F0088808880C5
:102C600088808880888088807F00080008000800AD
:102C70000000000000000000000040802100120061
:102C80000C000C0012002100408000000000000039
:102C9000000000000000000000004200420042006E
:102CA00042004200420042007FC00040004000005D
:102CB000000000000000000000004200420042004E
:102CC00042003E000200020002000000000000007E
:102CD00000000000000000000000888088808880DC
:102CE0008880888088808880FF8000000000000045
:102CF00000000000000000000000888088808880BC
:102D00008880888088808880FFC000400040000064
:102D100000000000000000000000F00010001000A3
:102D20001E001100110011001E0000000000000034
:102D30000000000000000000000040804080408053
:102D40007880448044804480788000000000000047
:102D50000000000000000000000020002000200013
:102D60003E002100210021003E0000000000000084
:102D7000000000000000000000007C0002000100D4
:102D80001F000100010002007C00000000000000A4
:102D90000000000000000000000047804CC04840D8
:102DA00078404840484044C0478000000000000090
:102DB000000000000000000000001F0021002100B2
:102DC00021001F0011002100410000000000000050
:102DD0000A0000000A0020000A0040000A0060000B
:102DE0000A0080000A00A0000A00C0000A00E000FB
:102DF0000A0000010A0020010A0040010A006001E7
:102E00000A0080010A00A0010A00C0010A00E001D6
:102E10000A0000020A0020020A0040020A006002C2
:102E20000A0080020A00A0020A00C0020A00E002B2
:102E30000A0000030A0020030A0040030A0060039E
:102E40000A0080030A00A0030A00C0030A00E0038E
:102E50000A0000040A0020040A0040040A0060047A
:102E60000A0080040A00A0040A00C0040A00E0046A
:102E70000A0000050A0020050A0040050A00600556
:102E80000A0080050A00A0050A00C0050A00E00546
:102E90000A0000060A0020060A0040060A00600632
:102EA0000A0080060A00A0060A00C0060A00E00622
:102EB0000A0000070A0020070A0040070A0060070E
:102EC0000A0080070A00A0070A00C0070A00E007FE
:102ED0000A0000080A0020080A0040080A006008EA
:102EE0000A0080080A00A0080A00C0080A00E008DA
:102EF0000A0000090A0020090A0040090A006009C6
:102F00000A0080090A00A0090A00C0090A00E009B5
:102F10000A00000A0A00200A0A00400A0A00600AA1
:102F20000A00800A0A00A00A0A00C00A0A00E00A91
:102F30000A00000B0A00200B0A00400B0A00600B7D
:102F40000A00800B0A00A00B0A00C00B0A00000058
:102F50000A0000000A0000000A0000000A00000049
:102F60000A0000000A0000000A0000000A00000039
:102F70000A0000000A0000000A0000000A00000029
:102F80000A0000000A0000000A0000000A00000019
:102F90000A0000000A0000000A0000000A00000009
:102FA0000A0000000A0000000A0000000A000000F9
:102FB0000A0000000A0000000A0000000A000000E9
:102FC0000A0000000A0000000A0000000A000000D9
:102FD0000A0000000A0000000A0000000A000000C9
:102FE0000A0000000A0000000A0000000A000000B9
:102FF0000A0000000A0000000A0000000A000000A9
:103000000A0000000A0000000A0000000A00000098
:103010000A0000000A0000000A0000000A00000088
:103020000A0000000A0000000A0000000A00000078
:103030000A0000000A0000000A0000000A00000068
:103040000A0000000A0000000A0000000A00000058
:103050000A00E00B0A00000C0A00200C0A00400CD9
:103060000A00600C0A00800C0A00A00C0A00C00CC8
:103070000A00E00C0A00000D0A00200D0A00400DB5
:103080000A00600D0A00800D0A00A00D0A00C00DA4
:103090000A00E00D0A00000E0A00200E0A00400E91
:1030A0000A00600E0A00800E0A00A00E0A00C00E80
:1030B0000A00E00E0A00000F0A00200F0A00400F6D
:1030C0000A00600F0A00800F0A00A00F0A00C00F5C
:1030D0000A00E00F0A0000100A0020100A00401049
:1030E0000A0060100A0080100A00A0100A00C01038
:1030F0000A00E0100A0000110A0020110A00401125
:103100000A0060110A0080110A00A0110A00C01113
:103110000A00E0110A0000120A0020120A00401200
:103120000A0060120A0080120A00A0120A00C012EF
:103130000A00E0120A0000130A0020130A004013DC
:103140000A0060130A0080130A00A0130A00C013CB
:103150001020FF02D02D0008F01900082300CD0038
:103160002300CD00230023001D011D01CAE0EBE870
:10317000E1F0EEE2EAE00000CDE0E6E8ECE0E9F2C2
:10318000E5200000CEF2EFF3F1EAE0E9F2E500001D
:10319000202020202020202020200000CAE0EBE872
:1031A000E1F0EEE2EAE020E7E0E2E5F0F8E5EDE06C
:0431B000000000001B
:0431B400503100088E
:0400000508000000EF
:00000001FF
